:020000040800F2
:10000000000002200D270008FD0D0008FF0D00086C
:10001000010E0008030E0008050E00080000000095
:10002000000000000000000000000000070E0008B3
:10003000090E0008000000000B0E00080D0E00085D
:100040005D2700085D2700085D2700085D27000880
:100050005D2700085D270008490600085D270008A5
:100060005D2700085D2700085D2700085D27000860
:100070005D2700085D2700085D2700085D27000850
:10008000150E00085D2700085D2700085D270008A1
:100090005D2700085D2700085D2700085D27000830
:1000A0005D2700085D2700085D2700085D27000820
:1000B0005D2700085D2700085D2700085D27000810
:1000C0005D2700085D2700085D2700085D27000800
:1000D0005D2700085D2700085D2700085D270008F0
:1000E0005D2700085D2700085D2700085D270008E0
:1000F0005D2700085D2700085D2700085D270008D0
:100100005D2700085D2700085D2700085D270008BF
:100110005D2700085D2700085D2700085D270008AF
:100120005D2700085D2700085D2700085D2700089F
:100130005D27000800000000000000005D270008A7
:100140005D2700085D2700085D2700085D2700087F
:100150005D2700085D2700085D2700085D2700086F
:100160005D2700085D2700085D2700085D2700085F
:100170005D2700085D2700085D27000800000000DB
:10018000000000005D2700080000000000000000E3
:100190005D27000800000000000000005D27000847
:1001A0000000000000000000000000005D270008C3
:1001B0005D2700085D2700085D2700085D2700080F
:0401C0005D270008AF
:1001C40010B5054C237833B9044B13B10448AFF38D
:1001D40000800123237010BD14B001200000000032
:1001E400B827000808B5034B1BB103490348AFF314
:1001F400008008BD0000000018B00120B8270008E6
:1002040053B94AB9002908BF00281CBF4FF0FF3179
:100214004FF0FF3000F088B9ADF1080C6DE904CE61
:1002240000F006F8DDF804E0DDE9022304B07047CD
:100234002DE9F047089D8E4604468846002B4AD196
:100244008A42174662D9B2FA82F64EB1C6F1200349
:1002540001FA06F820FA03F3B74043EA0808B44069
:100264004FEA174E1FFA87FCB8FBFEF1230C0EFB76
:10027400118843EA084301FB0CF29A4209D9FB189E
:1002840001F1FF3080F0EA809A4240F2E7800239BF
:100294003B449A1AA3B2B2FBFEF00EFB102243EACF
:1002A400024300FB0CFC9C4509D9FB1800F1FF320A
:1002B40080F0D6809C4540F2D3803B44023840EA2B
:1002C4000140A3EB0C0300211DB1F3400022C5E95A
:1002D4000032BDE8F0878B4205D90DB1C5E90001B4
:1002E40000210846F5E7B3FA83F1002946D17345A6
:1002F40002D3824200F20581841A6EEB03020120CC
:100304009046002DE5D0C5E90048E2E7002A00F058
:100314009080B2FA82F6002E40F0A4808A1A030C70
:100324004FEA174E80B2BCB20121B2FBFEFC0EFBB9
:100334001C2243EA024304FB0CF29A4207D9FB183D
:100344000CF1FF3802D29A4200F2E080C4469B1AB4
:10035400B3FBFEF20EFB123340EA034302FB04F448
:100364009C4207D9FB1802F1FF3002D29C4200F2F2
:10037400CA8002461B1B42EA0C40A5E7C1F12006D5
:100384008B4022FA06F71F430EFA01F420FA06F313
:100394002EFA06FE4FEA1749234300FA01F81FFA22
:1003A40087FCBEFBF9F01C0C09FB10EE44EA0E447A
:1003B40000FB0CFEA64502FA01F209D93C1900F132
:1003C400FF3A80F09C80A64540F2998002383C4474
:1003D400A4EB0E041FFA83FEB4FBF9F309FB1344E8
:1003E4004EEA044403FB0CFCA44508D93C1903F170
:1003F400FF3E80F08280A4457FD9023B3C4443EA1F
:100404000040A4EB0C04A0FB02EC64457346E146F7
:1004140062D35FD05DB1B8EB030264EB090404FA64
:1004240006F622FA01F31E43CC40C5E9006400211C
:100434004FE7B1FBF2FC010C41EA0E4180B240EA05
:1004440001423B4638463C46B846BE462026B1FBF0
:10045400F7F1A2EB080241EA0C4166E7014618E70E
:1004640010462CE7C6F120022EFA02F3B740B14041
:1004740020FA02F24FEA174E0A43B3FBFEF8BCB26D
:100484000EFB1833110C41EA034108FB04F9B04098
:1004940089454FEA104380B23ED9791808F1FF3CF0
:1004A40001D289451FD8A1EB0901B1FBFEF909FB73
:1004B40004F80EFB191192B242EA0142424529D2D4
:1004C400BA1809F1FF31C4D24245C2D2A9F10201DE
:1004D4003A44BEE7F0459DD2BEEB02036CEB070C39
:1004E4000138E14696E7A7EB09094944A8F1020C53
:1004F400B1FBFEF909FB04F8DBE773467FE75046DE
:1005040066E70846FDE63B44023A33E7ACF1020CE9
:100514003B441CE749469CE7A1EB0901C446B1FBF7
:10052400FEF909FB04F8C4E7704700BF2DE9F04F5A
:1005340089B00024039404940594069407940094C9
:100544002F4B1A6B42F080021A631A6B02F080027E
:100554000092009A01941A6B42F001021A631A6B1A
:1005640002F001020192019A02941A6B42F0020213
:100574001A631B6B03F002030293029B4FF4404B7C
:10058400CDF80CB001260496DFF87CA003A95046F0
:1005940001F0B0FC4FF44079CDF80C90DFF86C809A
:1005A40003A9404601F0A6FC4FF410470397154DEC
:1005B40003A9284601F09EFC22465946504601F004
:1005C40089FD22464946404601F084FD22463946CB
:1005D400284601F07FFD03964FF488130493059693
:1005E40003A9284601F086FC22460221062001F0D8
:1005F400F3FF062002F000F809B0BDE8F08F00BF59
:10060400003802400000024000080240000402409A
:1006140000B583B000210191094B1A6B42F400121A
:100624001A631B6B03F400130193019B0A46102009
:1006340001F0D2FF102001F0DFFF03B05DF804FBEE
:100644000038024010B502F03BF8634B1860634B6E
:100654001B68C31AB3F57A7F1ED3604B1860604BD6
:100664001A68D36823F40073D3605E4801F05FFE18
:100674005D490A7801325D4B83FB020303EB4303BC
:10068400A2EB4303DBB20B70052B00F29680DFE88C
:1006940003F0074958677685012001F023FD40E007
:1006A400534B544A1A60544B544A1A60544B4FF0FB
:1006B4007E521A60534B4FF480621A60514B93ED93
:1006C400007AB8EE477A4E4BD3ED007A27EE277ABC
:1006D400DFED4D6AC6EE877AFCEEE77A17EE903AC4
:1006E4004A4AC2ED007A013B3D4CE360204600F0EB
:1006F4005DFD012000F0C0FA3F4B186800F0B0FA2D
:100704004FF48063424A126839490968354801F058
:10071400D9FD2268D36843F40073D360012001F04B
:10072400E1FC10BD324B3B4A1A60334B3A4A1A6023
:10073400334B4FF07E521A60324B4FF480621A6092
:10074400BCE72B4B354A1A602B4B354A1A602C4BAD
:100754004FF07E521A602B4B4FF480621A60ADE763
:10076400234B304A1A60244B2F4A1A60244B4FF013
:100774007E521A60234B4FF400521A609EE71C4BC2
:100784002A4A1A601C4B2A4A1A601D4B4FF07E52AB
:100794001A601C4B4FF400521A608FE7144B254A21
:1007A4001A60154B244A1A60154B4FF07E521A609A
:1007B400144B4FF400521A6080E70D4B0D4A1A6037
:1007C4000D4B0E4A1A600E4B4FF07E521A600D4BC1
:1007D4004FF480621A6071E748B0012044B00120F0
:1007E400F4B001204CB0012040B00120ABAAAA2AE9
:1007F4003CB0012008A0012038B00120D027000817
:1008040034B0012030B001200024744B04000020D7
:100814000000002008900120D8270008088001204B
:10082400E427000808000120F027000808800020C1
:10083400F8270008080000200028000872B6FEE728
:1008440000B58FB000230A930B930C930D93089378
:1008540009930193029303930493059306930793D7
:1008640036484FF08042026043608360344A126825
:10087400013AC2600361836100F098FC002850D102
:100884004FF480530A930AA92C4800F0F5FD002880
:1008940049D12A4800F0B6FC002846D10023089329
:1008A400099308A9254800F079FF00283FD10022C8
:1008B400019202920392059201A9204800F032FDB0
:1008C400002836D1002300931E4A116B41F4001115
:1008D4001163126B02F400120092009A1A481B4A28
:1008E40002604FF0C062426040228260C3604FF4F5
:1008F400806202614FF4805242614FF4804282610F
:100904004FF48072C2614FF400320262436201F01C
:1009140073FC80B9094A0C4B53629A630FB05DF8BB
:1009240004FBFFF78BFFFFF789FFFFF787FFFFF754
:1009340085FFFFF783FFFFF781FF00BFF4B00120BD
:1009440004000020003802404CB0012088600240BE
:1009540000B58FB000230A930B930C930D93089367
:1009640009930193029303930493059306930793C6
:100974001E481F4A02604360836040F6FF72C260F3
:100984000361836100F012FC28BB4FF480530A9387
:100994000AA9164800F070FDF8B9144800F05EFC8E
:1009A400E8B900230893099308A9104800F0F6FE5B
:1009B400B8B960230193002302930393059308229B
:1009C40001A90A4800F0DDFC68B9084800F090FA73
:1009D4000FB05DF804FBFFF731FFFFF72FFFFFF7C0
:1009E4002DFFFFF72BFFFFF729FF00BFACB001205D
:1009F4000004004000B595B03422002107A801F09E
:100A0400ACFE00230293039304930593069300938F
:100A1400194A116C41F080511164126C02F0805239
:100A24000092009A019315490A6822F4404242F464
:100A340080420A600A6802F440420192019A02224A
:100A4400079201220A9210220B920D9307A801F03B
:100A54002FF868B90F2302930021039104910591A3
:100A6400069102A800F0E0FE20B915B05DF804FB81
:100A7400FFF7E4FEFFF7E2FE00380240007000409A
:100A840008B501F0F7FDFFF7B5FF642001F01EFE85
:100A9400FFF74CFD00221021134801F01BFBFFF768
:100AA400B7FDFFF7CDFEFFF753FF00F06DF9082106
:100AB4000E4800F0F1FD0E4C0021204600F06AFDC6
:100AC4004FF480630B4A12680B490C4801F0FAFB9F
:100AD400012000F0D1F80A4800F0C2F82268D36877
:100AE40043F40073D360FEE700040240ACB001207D
:100AF400F4B001200000002008A001204CB0012027
:100B0400D027000882B000EB40000023019304E0EA
:100B140000BF00BF019B01330193019B8342F7D3C4
:100B240002B0704710B51420FFF7ECFF094CA3691D
:100B340043F40043A3611420FFF7E4FFA36943F0E7
:100B44000043A3611420FFF7DDFFA36943F40043CE
:100B5400A36110BD0008024010B504463D4A9369E4
:100B640043F48043936110F0800F41D13A4A936972
:100B740043F00043936114F0400F40D0364A936928
:100B840043F48053936114F0200F3ED0334A9369A9
:100B940043F40073936114F0100F3CD02F4A93690F
:100BA40043F480739361FFF7BDFF14F0080F38D04E
:100BB400294A936943F40043936114F0040F36D037
:100BC400254A936943F48053936114F0020F34D09F
:100BD400224A936943F40073936114F0010F32D0F5
:100BE4001E4A936943F480739361FFF79BFF10BD22
:100BF400A2F50062936943F400439361BBE7164A8C
:100C0400936943F080539361BDE7144A936943F0B9
:100C140000739361BFE7114A936943F08073936152
:100C2400C1E70D4A936943F000439361C5E70A4A5B
:100C3400936943F080539361C7E7084A936943F08B
:100C440000739361C9E7054A936943F08073936124
:100C5400CBE700BF0008024000000240000402404D
:100C640038B50546002403E0FFF776FF0134E4B20B
:100C7400285D0028F8D138BD10B504463F4A936971
:100C840043F08043936110F0800F45D13C4A93694F
:100C940043F00043936114F0400F44D0384A936901
:100CA40043F48053936114F0200F42D0354A936982
:100CB40043F40073936114F0100F40D0314A9369E8
:100CC40043F480739361FFF72DFF14F0080F3CD0B9
:100CD4002B4A936943F40043936114F0040F3AD010
:100CE400274A936943F48053936114F0020F38D078
:100CF400244A936943F40073936114F0010F36D0CE
:100D0400204A936943F480739361FFF70BFF40F625
:100D1400B830FFF7F7FE10BDA2F50062936943F403
:100D240000439361B7E7164A936943F08053936194
:100D3400B9E7144A936943F000739361BBE7114A1E
:100D4400936943F080739361BDE70D4A936943F05F
:100D540000439361C1E70A4A936943F08053936166
:100D6400C3E7084A936943F000739361C5E7054AF2
:100D7400936943F080739361C7E700BF00080240A2
:100D8400000002400004024008B5194B1A6B42F0FF
:100D940001021A631A6B42F002021A631A6B42F0E0
:100DA40004021A63134A136843F08243136002F582
:100DB4008062136843F4A023136002F58062136811
:100DC40043F0A043136047F23050FFF79BFE3320FB
:100DD400FFF752FF3220FFF74FFF0C20FFF74CFFC5
:100DE4002820FFF749FF0120FFF746FF08BD00BF99
:100DF4000038024000000240FEE7FEE7FEE7FEE79F
:100E0400FEE770477047704708B501F04DFC08BD18
:100E140008B5024801F09EFA08BD00BF4CB001209D
:100E240082B0002100910B4B5A6C42F480425A6408
:100E34005A6C02F480420092009A01911A6C42F0BA
:100E440080521A641B6C03F080530193019B02B01F
:100E5400704700BF0038024010B582B00368B3F198
:100E6400804F04D01E4A93422CD002B010BD0446D9
:100E7400002300931B4A116C41F001011164126CB0
:100E840002F001020092009A1748184A02604FF0DB
:100E9400C06242608360C3604FF4806202614FF4B9
:100EA400805242614FF480428261C36103624362B3
:100EB40001F0A2F918B90C4B63629C63D5E7FFF704
:100EC400BDFCF8E700230193064B1A6C42F00202C2
:100ED4001A641B6C03F002030193019BC5E700BF76
:100EE40000040040003802404CB0012088600240F9
:100EF40000B587B0002301930293039304930593F1
:100F040002680E4B9A4202D007B05DF804FB00233E
:100F140000930B4B1A6B42F002021A631B6B03F033
:100F240002030093009B0123019302230293059380
:100F340001A9044800F0DEFFE6E700BF000400401A
:100F4400003802400004024030B4036A026A22F00E
:100F5400010202624268846924F0730C0C6844EA5A
:100F64000C0423F0020C8B6843EA0C03114DA842D5
:100F740003D005F58065A84205D123F00803CD68A8
:100F84002B4323F004030B4DA84203D005F58065E1
:100F9400A84207D122F440724D6945EA020C8A69DD
:100FA40042EA0C02426084614A684263036230BCD4
:100FB400704700BF0000014030B4036A026A22F4A3
:100FC400807202624268C46924F0730C0C6844EABB
:100FD4000C0523F400738C6843EA0423114CA042EB
:100FE40003D004F58064A04206D123F40063CC68E6
:100FF40043EA042323F480630A4CA04203D004F59B
:101004008064A04207D122F440524C6942EA04129F
:101014008C6942EA04124260C5614A68C263036291
:1010240030BC70470000014030B4036A026A22F405
:10103400805202624468C26922F4E6420D6842EAC0
:10104400052223F400538D6843EA0533094DA84271
:1010540003D005F58065A84204D124F480444D6989
:1010640044EA85144460C2614A680264036230BC85
:10107400704700BF0000014010B4036A046A24F002
:1010840001040462846924F0F00C4CEA021223F097
:101094000A030B43826103625DF8044B704710B48A
:1010A400036A046A24F010040462846924F4704C12
:1010B4004CEA023223F0A00343EA01138261036283
:1010C4005DF8044B7047836823F070030B4343F0CF
:1010D4000703836070477047704700000368324A13
:1010E400904212D0B0F1804F0FD0A2F57C429042D2
:1010F4000BD002F58062904207D002F580629042E4
:1011040003D002F57842904203D123F070034A6879
:101114001343254A90422AD0B0F1804F27D0A2F53C
:101124007C42904223D002F5806290421FD002F5A7
:10113400806290421BD002F57842904217D002F5AB
:101144007052904213D002F5806290420FD002F5A3
:10115400806290420BD0A2F59832904207D002F5FB
:101164008062904203D002F58062904203D123F45E
:101174004073CA68134323F080034A6913438A689F
:10118400C2620A688262084A904203D002F5806211
:10119400904201D10A690263026842F004020260CB
:1011A40001224261036070470000014040B310B562
:1011B400044690F83D30F3B1022384F83D302146D3
:1011C40051F8040BFFF78AFF012384F8463084F8B2
:1011D4003E3084F83F3084F8403084F8413084F85D
:1011E400423084F8433084F8443084F8453084F83D
:1011F4003D30002010BD80F83C30FFF72DFEDBE7CA
:101204000120704740B310B5044690F83D30F3B167
:10121400022384F83D30214651F8040BFFF75EFFAA
:10122400012384F8463084F83E3084F83F3084F853
:10123400403084F8413084F8423084F8433084F8F4
:10124400443084F8453084F83D30002010BD80F8E7
:101254003C30FFF740FFDBE70120704740B310B597
:10126400044690F83D30F3B1022384F83D30214622
:1012740051F8040BFFF732FF012384F8463084F859
:101284003E3084F83F3084F8403084F8413084F8AC
:10129400423084F8433084F8443084F8453084F88C
:1012A4003D30002010BD80F83C30FFF715FFDBE730
:1012B4000120704730B4036A026A22F0100202620D
:1012C4004468826922F4E6420D6842EA052223F06A
:1012D40020038D6843EA0513114DA84203D005F598
:1012E4008065A84206D123F08003CD6843EA051344
:1012F40023F040030A4DA84203D005F58065A842B7
:1013040007D124F440644D6944EA85048D6944EAB4
:101314008504446082614A688263036230BC70471A
:101324000000014090F83C30012B28D010B5044651
:10133400012380F83C300C2A1CD8DFE802F0071B9C
:101344001B1B0C1B1B1B111B1B1B16000068FFF730
:10135400FBFD00200FE00068FFF7ACFF00200AE06F
:101364000068FFF729FE002005E00068FFF75CFE37
:10137400002000E00120002384F83C3010BD02204E
:10138400704738B590F83C30012B66D004460D46C2
:10139400012380F83C300C2A5AD8DFE802F00759C0
:1013A40059591B5959593059595944000068FFF784
:1013B400CBFD2268936943F0080393612268936923
:1013C40023F0040393612268936929690B439361B1
:1013D40000203EE00068FFF76DFF2268936943F444
:1013E400006393612268936923F4806393612268A4
:1013F4009369296943EA01239361002029E0006885
:10140400FFF7DAFD2268D36943F00803D361226849
:10141400D36923F00403D3612268D36929690B4398
:10142400D361002015E00068FFF7FEFD2268D36950
:1014340043F40063D3612268D36923F48063D361E6
:101444002268D369296943EA0123D361002000E0BB
:101454000120002384F83C3038BD0220FCE710B49E
:10146400846824F47F4C42EA03220A4342EA0C02D1
:1014740082605DF8044B704790F83C30012B78D0C3
:1014840010B50446012380F83C30022380F83D3037
:101494000268936823F47F4323F0770393600B6817
:1014A400602B4CD023D8402B54D011D8202B03D000
:1014B4000AD80BB1102B05D119462068FFF703FE9B
:1014C400002028E0012026E0302BF5D0012022E086
:1014D400502B0AD1CA6849680068FFF7CDFD502136
:1014E4002068FFF7F0FD002015E0012013E0B3F5BC
:1014F400805F3AD0B3F5005F14D0702B37D1CB683E
:101504004A6889680068FFF7AAFF2268936843F075
:10151400770393600020012384F83D30002384F88E
:101524003C3010BDCB684A6889680068FFF797FFB4
:101534002268936843F4804393600020EBE7CA6811
:1015440049680068FFF7ABFD60212068FFF7BBFD29
:101554000020E0E7CA6849680068FFF78DFD402174
:101564002068FFF7B0FD0020D5E70020D3E7012075
:10157400D1E70220704701F01F014FF0010C0CFA73
:1015840001FC036A23EA0C030362036A8A401343DF
:101594000362704710B504460846002942D194F806
:1015A4003E30DBB2013B18BF0123002B6ED1002873
:1015B40051D1022384F83E30012201462068FFF70E
:1015C400DAFF2368334A934203D002F580629342E0
:1015D40003D15A6C42F400425A6423682D4A934260
:1015E40049D0B3F1804F46D0A2F57C42934242D019
:1015F40002F5806293423ED002F5806293423AD073
:1016040002F57842934236D002F57052934232D0BA
:10161400A2F5943293422ED01A6842F001021A6065
:10162400002032E0042908D008290DD094F8413074
:10163400DBB2013B18BF0123B7E794F83F30DBB2BC
:10164400013B18BF0123B0E794F84030DBB2013B03
:1016540018BF0123A9E7042805D0082807D00223CE
:1016640084F84130A8E7022384F83F30A4E702233A
:1016740084F84030A0E79A6802F00702062A07D0EF
:101684001A6842F001021A60002010BD0120FCE734
:101694000020FAE70000014010B50446084600297E
:1016A40042D194F83E30DBB2013B18BF0123002B3A
:1016B4006ED1002851D1022384F83E300122014624
:1016C4002068FFF758FF2368334A934203D002F59A
:1016D4008062934203D15A6C42F400425A642368F4
:1016E4002D4A934249D0B3F1804F46D0A2F57C42B3
:1016F400934242D002F5806293423ED002F580626A
:1017040093423AD002F57842934236D002F57052B1
:10171400934232D0A2F5943293422ED01A6842F00A
:1017240001021A60002032E0042908D008290DD0F3
:1017340094F84130DBB2013B18BF0123B7E794F8BA
:101744003F30DBB2013B18BF0123B0E794F84030CF
:10175400DBB2013B18BF0123A9E7042805D0082800
:1017640007D0022384F84130A8E7022384F83F30ED
:10177400A4E7022384F84030A0E79A6802F0070245
:10178400062A07D01A6842F001021A60002010BD30
:101794000120FCE70020FAE70000014090F83C201B
:1017A400012A3DD010B40346012280F83C200222D5
:1017B40080F83D2002685068946820F0700C086836
:1017C40040EA0C0050601A68164882421AD0B2F1FE
:1017D400804F17D0A0F57C40824213D000F5806082
:1017E40082420FD000F5806082420BD000F5784031
:1017F400824207D000F57050824203D0A0F59430A5
:10180400824204D124F0800449682143916001227A
:1018140083F83D20002083F83C005DF8044B7047BA
:101824000220704700000140002800F09B8070B542
:101834000D4604464F4B1B6803F00F038B4208D23E
:10184400CBB24C4A1370136803F00F038B4240F081
:101854008B80236813F0020F17D013F0040F04D009
:10186400454A936843F4E0539360236813F0080FE8
:1018740004D0414A936843F4604393603E4A9368BA
:1018840023F0F003A1680B439360236813F0010F66
:1018940032D06368012B21D09A1E012A25D9364AF9
:1018A400126812F0020F61D033498A6822F00302F1
:1018B40013438B6000F004FF06462F4B9B6803F034
:1018C4000C036268B3EB820F16D000F0F9FE801BA4
:1018D40041F288339842F0D9032042E0264A126844
:1018E40012F4003FE0D101203BE0234A126812F0D9
:1018F400007FD9D1012034E01E4B1B6803F00F0395
:10190400AB4207D9EAB21B4B1A701B6803F00F03F2
:10191400AB422DD1236813F0040F06D0164A936806
:1019240023F4E053E1680B439360236813F0080F3A
:1019340007D0114A936823F46043216943EAC10341
:10194400936000F021F80C4B9B68C3F303130B4A1C
:10195400D35CD8400A4B18600A4B186800F064FE48
:10196400002070BD012070470120FAE70120F8E74C
:101974000120F6E7003C024000380240102800082D
:1019840010B001200CB0012008B5464B9B6803F051
:101994000C03082B05D00C2B43D0042B7FD14248D9
:1019A40019E0404B5A6802F03F025B6813F4800F61
:1019B40012D03C4B5968C1F388113B480023A1FB6A
:1019C4000001FEF71DFC374B5B68C3F30143013391
:1019D4005B00B0FBF3F008BD324B5868C0F38810CD
:1019E4004FEA401CBCEB000C6EEB0E0E4FEA8E135C
:1019F40043EA9C634FEA8C11B1EB0C0163EB0E03D9
:101A0400DB0043EA5173C90011EB000C43F10003FE
:101A1400990200234FEA8C2041EA9C51FEF7F0FB27
:101A2400D1E7204B5A6802F03F025B6813F4800F41
:101A340010D01C4B5968C1F388111B480023A1FB2B
:101A44000001FEF7DDFB174B5B68C3F30273B0FBC9
:101A5400F3F0C0E7134B5868C0F388104FEA401CFA
:101A6400BCEB000C6EEB0E0E4FEA8E1343EA9C6344
:101A74004FEA8C11B1EB0C0163EB0E03DB0043EA7C
:101A84005173C90011EB000C43F1000399020023C8
:101A94004FEA8C2041EA9C51FEF7B2FBD3E703489E
:101AA40099E700BF0038024040787D010024F4002B
:101AB400002800F0018270B582B00446036813F078
:101AC400010F41D0994B9B6803F00C03042B32D0D7
:101AD400964B9B6803F00C03082B27D0934B9B6811
:101AE40003F00C030C2B59D06368B3F5803F5BD033
:101AF400B3F5A02F5ED08D4B1A6822F480321A60A1
:101B04001A6822F480221A606368002B5CD000F00B
:101B1400D7FD0546854B1B6813F4003F14D100F034
:101B2400CFFD401B6428F5D90320CCE17F4B5B68D3
:101B340013F4800FD2D07D4B1B6813F4003F03D005
:101B44006368002B00F0BA81236813F0020F60D0A1
:101B5400764B9B6813F00C0F4AD0744B9B6803F0D0
:101B64000C03082B3FD0714B9B6803F00C030C2B28
:101B740069D0E368002B75D06D4B01221A6000F028
:101B84009FFD0546694B1B6813F0020F61D100F0FD
:101B940097FD401B0228F5D9032094E1634B5B6851
:101BA40013F4800FA0D0C6E7604A136843F480336F
:101BB4001360A9E75D4B1A6842F480221A601A6820
:101BC40042F480321A609FE700F07AFD0546574BD5
:101BD4001B6813F4003FB7D000F072FD401B64286B
:101BE400F5D903206FE1514B5B6813F4800FBAD130
:101BF4004E4B1B6813F0020F03D0E368012B40F037
:101C04005F814A4A136823F0F803216943EAC10358
:101C14001360236813F0080F49D06369002B33D095
:101C2400434B0122C3F8802E00F04AFD05463F4B8A
:101C34005B6F13F0020F3AD100F042FD401B022803
:101C4400F5D903203FE1394B5B6813F4800F90D141
:101C5400CEE7364A136823F0F803216943EAC10347
:101C64001360D6E7324B00221A6000F029FD0546C6
:101C74002E4B1B6813F0020FCBD000F021FD401B4C
:101C84000228F5D903201EE1294B0022C3F8802E37
:101C940000F016FD0546254B5B6F13F0020F06D0CE
:101CA40000F00EFD401B0228F5D903200BE1236848
:101CB40013F0040F76D01D4B1B6C13F0805F33D1EF
:101CC40000230193194B1A6C42F080521A641B6C66
:101CD40003F080530193019B0125164B1B6813F4F9
:101CE400807F29D0A368012B3AD0052B3ED00F4B1F
:101CF4001A6F22F001021A671A6F22F004021A679F
:101D0400A368002B3CD000F0DBFC0646074B1B6F9E
:101D140013F0020F45D100F0D3FC801B41F288334D
:101D24009842F3D90320CEE00025D6E700380240DC
:101D340000004742007000406B4A136843F480730C
:101D4400136000F0BDFC0646674B1B6813F4807FEC
:101D5400C8D100F0B5FC801B0228F5D90320B2E0FD
:101D6400624A136F43F001031367C9E75F4B1A6FAD
:101D740042F004021A671A6F42F001021A67BFE7C1
:101D840000F09EFC0646594B1B6F13F0020F08D05F
:101D940000F096FC801B41F288339842F3D903206B
:101DA40091E0EDB9A369002B00F08C804F4A926852
:101DB40002F00C02082A54D0022B17D04C4B0022FC
:101DC4001A6600F07DFC0446484B1B6813F0007F44
:101DD40045D000F075FC001B0228F5D9032072E001
:101DE400424A136C23F080531364DBE7404B002218
:101DF4001A6600F065FC05463C4B1B6813F0007F37
:101E040006D000F05DFC401B0228F5D903205AE0FF
:101E1400E369226A1343626A43EA8213A26A52089C
:101E2400013A43EA0243E26A43EA0263226B43EA69
:101E340002732E4A53602E4B01221A6600F040FCB6
:101E440004462A4B1B6813F0007F06D100F038FCCF
:101E5400001B0228F5D9032035E0002033E00020E0
:101E640031E0012B31D0214B5B6803F48001E2693E
:101E740091422CD103F03F02216A8A4229D1616A3E
:101E840047F6C0721A40B2EB811F24D103F44031EB
:101E9400A26A5208013AB1EB024F1ED103F07062FC
:101EA400E16AB2EB016F1AD103F0E043226BB3EBAA
:101EB400027F16D1002006E001207047012002E0D5
:101EC400012000E0002002B070BD0120FBE70120EA
:101ED400F9E70120F7E70120F5E70120F3E7012006
:101EE400F1E70120EFE700BF007000400038024036
:101EF4000000474200230F2B00F2E38070B582B04C
:101F040065E085684FEA430E032404FA0EF425EADB
:101F14000405CC6804FA0EF42C438460446824EA73
:101F240002044A68C2F300129A40224342605CE011
:101F3400DC08083450F8242003F00705AD004FF006
:101F44000F0E0EFA05FE22EA0E0E0A69AA4042EAB4
:101F54000E0240F824205CE0062200E0002202FA8F
:101F64000EF22A430234574D45F82420564A946809
:101F74006FEA0C0224EA0C054E6816F4801F01D0A7
:101F84004CEA0405504CA560E46802EA04054E6876
:101F940016F4001F01D04CEA04054B4CE56064685C
:101FA40002EA04054E6816F4003F01D04CEA040529
:101FB400454C6560246822404D6815F4803F01D08B
:101FC4004CEA0402404C226001330F2B77D80122E3
:101FD4009A400C6804EA020C32EA0404F4D14C6816
:101FE40004F00304013C012C8BD94A6802F003027B
:101FF400032A09D0C4685D000322AA4024EA02042B
:102004008A68AA402243C2604A6802F00302022A94
:102014008ED004684FEA430E032202FA0EF224EA39
:1020240002044A6802F0030202FA0EF2224302603A
:102034004A6812F4403FC7D000220192234A546CEC
:1020440044F480445464526C02F480420192019A34
:102054009C08A51C1B4A52F8255003F0030E4FEAB6
:102064008E0E0F2202FA0EF225EA0205184A904259
:102074003FF474AF02F58062904216D002F580629C
:10208400904214D002F58062904212D002F5806230
:10209400904210D002F5806290420ED002F5806228
:1020A40090423FF459AF072259E7012257E7022231
:1020B40055E7032253E7042251E705224FE702B014
:1020C40070BD704700380140003C014000380240B8
:1020D400000002400AB181617047090481617047C0
:1020E4007047000008B5054B5B69034200D108BD89
:1020F400024B5861FFF7F4FFF9E700BF003C0140D1
:1021040030B405682C6824F480242C60046863606F
:102114008368402B05D0036899600368DA6030BC9B
:10212400704703689A600368D960F8E710B40368DD
:10213400D9B210390A4AA2FB01421209094CA25C25
:10214400C2655F2907D96FF3090304338365806D82
:102154005DF8044B70476FF309038365F7E700BF2D
:10216400ABAAAAAA08280008836A826992B9012B3B
:102174000AD0022B02D00BB100207047C36A13F0BF
:10218400807F28D100207047C36AB3F1C07F24D078
:1021940000207047B2F5005F09D0022B25D9032B2C
:1021A40025D1C36A13F0807F23D100207047032B0D
:1021B40003D8DFE803F01404140A00207047C36A4C
:1021C40013F0807F0DD100207047C36AB3F1C07F44
:1021D40009D000207047012070470120704701207A
:1021E400704701207047012070470120704700208C
:1021F400704701207047000070B5044600F060FA93
:10220400002C5BD00546022384F83530002384F883
:1022140034302268136823F00103136023681A68BA
:1022240012F0010F0AD000F04BFA431B052BF5D92D
:1022340020236365032084F8350070BD1A682049A3
:1022440011406268A0680243E068024320690243C7
:1022540060690243A0690243E0690243206A0243C1
:102264000A43616A04291ED01A602668756925F03C
:102274000705636A1D43042B07D1A36A1D43E36A60
:102284001BB12046FFF770FF90B975612046FFF738
:102294004DFFE26D3F23934083600020606501237E
:1022A40084F83530C9E7E16A206B01430A43DBE770
:1022B40040236365012084F83500BEE70120BCE7B4
:1022C4003F8010F038B50446856D90F8340001283D
:1022D4002BD0012084F8340094F83500C0B20128D2
:1022E40004D0002384F83430022038BD022084F85E
:1022F4003500002060652046FFF702FFE26D3F23B2
:102304009340AB602268136843F016031360236C98
:1023140023B12268136843F008031360226813682A
:1023240043F0010313600020DFE70220DDE790F8AB
:102334003530DBB2022B03D0802343650120704784
:10234400052380F835300268136823F00103136015
:1023540000207047F0B583B0044600230193724B0C
:102364001D68724BA3FB0535AD0A876D3E68C26DCF
:1023740008239340334210D003681A6812F0040F04
:102384000BD01A6822F004021A60C26D082393402D
:10239400BB60436D43F001034365E26D0123934049
:1023A400334209D02268526912F0800F04D0BB6016
:1023B400636D43F002036365E26D0423934033428B
:1023C40009D02268126812F0020F04D0BB60636D5A
:1023D40043F004036365E26D10239340334224D039
:1023E4002268126812F0080F1FD0BB6023681A68B5
:1023F40012F4802F0DD01B6813F4002F04D1236C2A
:102404009BB12046984710E0A36C73B120469847CF
:102414000BE01A6812F4807F03D11A6822F00802D4
:102424001A60236C0BB120469847E26D2023934039
:10243400334255D02268126812F0100F50D0BB609E
:1024440094F83530DBB2052B0ED023681A6812F4E9
:10245400802F33D01B6813F4002F2AD1636C002B18
:102464003ED0204698473BE02268136823F01603C9
:1024740013602268536923F080035361236CA3B172
:102484002268136823F008031360E26D3F2393402E
:10249400BB60012384F83530002384F83430236D85
:1024A400002B3FD0204698473CE0A36C002BE7D19B
:1024B400EBE7E36BA3B12046984711E01A6812F4E6
:1024C400807F09D11A6822F010021A60012384F86F
:1024D4003530002384F83430E36B0BB12046984741
:1024E400636DFBB1636D13F0010F17D0052384F8FE
:1024F40035302268136823F001031360019B013314
:102504000193AB4204D823681B6813F0010FF5D183
:10251400012384F83530002384F83430E36C0BB1A4
:102524002046984703B0F0BD10B00120B5814E1B82
:10253400002807DB00F01F02400901239340024AF0
:1025440042F82030704700BF00E100E0002808DBBB
:102554000901C9B200F1604000F5614080F8001340
:10256400704700F00F000901C9B2014B19547047BC
:1025740014ED00E000B500F00700C0F1070CBCF159
:10258400040F28BF4FF0040C031D062B0FD9C31EE4
:102594004FF0FF3E0EFA0CF021EA000199400EFACA
:1025A40003FE22EA0E0241EA02005DF804FB002366
:1025B400EEE70000074AD36823F4E0631B041B0C16
:1025C400000200F4E060034343F0BF6343F40033CC
:1025D400D360704700ED00E010B50446054BD868A1
:1025E400C0F30220FFF7C6FF01462046FFF7AEFF07
:1025F40010BD00BF00ED00E008B5FFF799FF08BD6E
:102604000138B0F1807F0BD24FF0E0235861054AC6
:10261400F02182F823100020986107221A61704784
:102624000120704700ED00E010B504460E4B1A7807
:102634004FF47A73B3FBF2F30C4A1068B0FBF3F077
:10264400FFF7DEFF68B90F2C01D901200AE0002250
:1026540021464FF0FF30FFF7BFFF054B1C60002001
:1026640000E0012010BD00BF08B0012010B001201F
:102674000CB0012008B50B4B1A6842F400721A60C2
:102684001A6842F480621A601A6842F480721A600E
:102694000320FFF78FFF0F20FFF7C6FFFEF7C0FBF5
:1026A400002008BD003C0240034A1168034B1B781C
:1026B4000B441360704700BF3CB1012008B00120F7
:1026C400014B1868704700BF3CB1012038B504467F
:1026D400FFF7F6FF0546B4F1FF3F02D0044B1B7829
:1026E4001C44FFF7EDFF401BA042FAD338BD00BFE6
:1026F40008B00120034AD2F8883043F47003C2F8CA
:102704008830704700ED00E0DFF834D0FFF7F2FFC7
:102714000C480D490D4A002302E0D458C450043338
:10272400C4188C42F9D30A4A0A4C002301E013600E
:102734000432A242FBD300F019F8FEF7A1F9704766
:10274400000002200000002014B0012030280008FE
:1027540014B0012040B10120FEE702440346934235
:1027640000D1704703F8011BF9E7000070B50D4D67
:102774000D4C641BA4100026A64209D10B4D0C4C31
:1027840000F018F8641BA4100026A64205D170BD01
:1027940055F8043B98470136EEE755F8043B984753
:1027A4000136F2E72828000828280008282800080D
:1027B4002C280008F8B500BFF8BC08BC9E4670473A
:0C27C400F8B500BFF8BC08BC9E4670478A
:1027D00053696E6500000000536177746F6F746811
:1027E00000000000547269616E676C6500000000B3
:1027F0005069616E6F000000477569746172000076
:102800004472756D73000000000610160006101665
:102810000000000000000000010203040607080990
:0828200014DAFF7F0100000043
:04282800E9010008BA
:04282C00C5010008DA
:102830003C040040093D0000A1040000C104000068
:1028400027040000AD03000088030000B10300006E
:10285000420400005605000048060000A8060000DB
:102860002E0700000C080000AD0800002109000040
:1028700026090000210A0000600A0000020B000087
:10288000850B0000920B00002B0C0000C50B000014
:102890003B0C0000810C0000780C0000B20C000022
:1028A000950C0000830C00000A0D0000680D00006C
:1028B0009F0D00007F0D0000900D0000B40D000082
:1028C000F00D0000210E00005A0D0000490D00001F
:1028D000BD0E00007B0E0000BD0D0000310E00009B
:1028E000520E0000FB0D0000EF0D0000F80D00007F
:1028F000EF0D0000270E0000160E0000EE0D000088
:102900000C0E00001B0E0000FD0D0000070E000065
:10291000450E0000770E00004C0E0000F30D000085
:10292000E30D0000920D0000310D00002B0D0000A2
:102930009D0C0000D70B0000C40B0000B70B00007B
:10294000070B0000840A0000930A0000430A0000FD
:102950008A0900009C090000D1080000D707000088
:10296000E20700007307000017070000C906000017
:102970009606000040060000990500005005000082
:10298000F40400008004000030040000140400007F
:10299000C80300004D0300001903000022030000DB
:1029A0003F030000C902000044020000630200006F
:1029B0007D020000140200009D010000680100007B
:1029C000660100005E0100003F0100002C010000D4
:1029D0002A0100002A010000240100001901000062
:1029E0001601000025010000370100003801000039
:1029F000260100000E010000050100001401000086
:102A0000250100001F010000100100000C01000062
:102A1000130100001B0100001D0100001C0100004B
:102A20001E010000270100002F0100002E01000000
:102A30002401000018010000180100002601000018
:102A400036010000350100002301000015010000DF
:102A50001001000011010000170100001901000021
:102A600010010000FD000000EC000000DE0000008E
:102A7000D0000000CA000000CD000000CE00000021
:102A8000CA000000C8000000CD000000D600000011
:102A9000D2000000C6000000C7000000D8000000FF
:102AA000E5000000E8000000EC000000FC00000071
:102AB0000A01000019010000430100007F0100002D
:102AC0009E010000B6010000080200006A0200003A
:102AD00089020000B6020000070300001B0300008B
:102AE00048030000BA0300001C0400006704000053
:102AF000AA040000DF0400001A0500009905000088
:102B00000006000048060000B7060000FA060000B4
:102B100011070000DA070000460800006B080000FB
:102B2000EA0800005509000087090000030A0000B8
:102B3000670A00005B0A00008F0A0000070B000014
:102B4000770B0000B90B0000F70B0000370C0000FA
:102B50008D0C0000AF0C0000CD0C0000200D00001B
:102B60006D0D00008F0D00009A0D0000B60D0000E5
:102B7000E20D00000E0E0000270E00002A0E0000DD
:102B8000390E00006D0E0000AE0E0000D60E0000E3
:102B9000E50E0000FD0E00001F0F00003A0F0000C0
:102BA000510F00006A0F00007D0F0000880F000029
:102BB0008C0F00008C0F00008B0F0000920F0000A4
:102BC000A40F0000B00F0000B10F0000AA0F00001A
:102BD000A10F00009B0F00009B0F00009F0F000043
:102BE000A90F0000B50F0000B80F0000B40F0000DF
:102BF000AB0F0000A30F0000A60F0000AC0F0000F9
:102C0000B20F0000B40F0000B60F0000B70F0000B5
:102C1000B60F0000B40F0000B50F0000BA0F00009F
:102C2000C10F0000C30F0000C20F0000C00F000062
:102C3000C00F0000C10F0000C20F0000C00F000055
:102C4000BC0F0000BA0F0000BD0F0000C30F000052
:102C5000C80F0000CA0F0000C80F0000C40F00001A
:102C6000C10F0000C00F0000C20F0000C40F000021
:102C7000C90F0000CD0F0000D10F0000D30F0000DE
:102C8000D30F0000D00F0000CD0F0000CB0F0000CD
:102C9000CC0F0000CF0F0000D20F0000D50F0000B6
:102CA000DA0F0000DF0F0000E30F0000E30F000069
:102CB000DF0F0000D80F0000D40F0000D40F000079
:102CC000D90F0000DF0F0000E40F0000E70F000045
:102CD000E70F0000E50F0000E30F0000E00F000029
:102CE000DD0F0000DE0F0000E10F0000E60F000026
:102CF000EA0F0000ED0F0000EE0F0000F10F0000E2
:102D0000F30F0000F60F0000F60F0000F60F0000B2
:102D1000F50F0000F70F0000F90F0000FA0F000098
:102D2000F90F0000F60F0000F30F0000F20F000093
:102D3000F40F0000F60F0000F70F0000F70F00007F
:102D4000F70F0000F60F0000F20F0000EC0F00007C
:102D5000EB0F0000F10F0000F70F0000F20F000072
:102D6000E20F0000CE0F0000BF0F0000B30F000005
:102D7000AB0F0000A00F00007F0F0000380F000015
:102D8000D70E0000930E0000830E00006A0E0000B4
:102D90000E0E00009F0D0000540D0000210D0000DC
:102DA000DE0C00008F0C0000490C0000070C000036
:102DB000CE0B0000920B0000670B0000310B0000EF
:102DC000D90A00008F0A0000650A0000130A0000FB
:102DD000AC09000061090000EF0800006F08000066
:102DE0002C080000D8070000620700000F07000051
:102DF000D00600008A06000020060000A70500009B
:102E00006B050000CC0400009F0400006E0400006D
:102E1000F1030000BB030000780300003C03000046
:102E200004030000E0020000DE020000A002000037
:102E30006702000059020000410200001E0200006B
:102E4000FC010000E9010000FF010000F5010000A5
:102E5000C6010000B8010000C5010000CA01000061
:102E6000C6010000AA0100007C0100006D01000005
:102E700090010000A30100008F0100006901000023
:102E8000470100004301000047010000300100003D
:102E90001E010000220100002401000020010000AA
:102EA0001601000019010000350100003D0100007D
:102EB00016010000FF0000001E0100003B010000A1
:102EC00049010000560100005F010000730100008D
:102ED0007A01000088010000C7010000EF01000036
:102EE000F60100001F0200006F02000099020000BE
:102EF000770200008A020000F20200002D030000A9
:102F0000300300003E03000077030000A703000029
:102F1000D70300004E04000090040000DC04000011
:102F20002205000087050000DA0500006D0600009C
:102F3000EF0600004B0700000908000081080000B0
:102F400054090000D3090000210A00001A0A0000F9
:102F5000A409000037080000F20600002706000060
:102F60004F0600003D06000006060000DB050000DD
:102F7000A905000044050000E5040000B0040000BD
:102F8000230400003E04000032040000140400008A
:102F9000F4030000BA030000D6030000C2030000DF
:102FA0007F0300005603000050030000550300009B
:102FB000520300003E0300000B030000FB02000070
:102FC000D0020000C1020000E4020000D0020000B4
:102FD0009502000092020000B7020000B202000059
:102FE0009B0200009602000094020000870200008D
:102FF0006A020000500200004A020000490200007C
:10300000450200002E02000000020000D601000070
:10301000C9010000C8010000BD010000BA010000A4
:10302000BC010000AD0100009A0100008D0100000C
:103030006D01000047010000450100006001000033
:103040007D01000089010000710100004F010000B6
:103050004D0100005B0100005B0100005C0100000D
:103060006C0100007D01000087010000900100005C
:10307000930100008A010000770100006C0100004C
:1030800080010000A3010000AD010000A6010000C6
:10309000A9010000B0010000B6010000BA01000063
:1030A000B8010000BC010000C9010000D30100000C
:1030B000E2010000F4010000FB010000F10100004A
:1030C000DD010000E70100000B0200002E020000FD
:1030D0004802000052020000590200007202000083
:1030E000890200008B0200008A020000A302000097
:1030F000C0020000C6020000BD020000AE020000D7
:10310000B5020000C1020000CE020000D1020000A2
:10311000CA020000DF020000F7020000FF02000008
:10312000010300001F0300003A0300003503000004
:103130005403000068030000890300008F030000AF
:103140009D030000DC030000FE03000028040000D3
:103150004204000083040000AE040000F6040000F6
:1031600043050000B5050000EE0500004E06000016
:10317000FD0600008F07000048080000B8060000A8
:1031800047060000200600002C0600008306000011
:103190004E0700004E080000CC0800004A0900005D
:1031A000C5090000350A00007D0A0000DA0A0000A7
:1031B0002A0B0000580B0000800B0000DE0B000003
:1031C000240C0000490C0000770C0000950C000056
:1031D000A60C0000D90C0000120D0000400D0000EC
:1031E000580D0000630D00008B0D0000B40D0000B1
:1031F000C40D0000DA0D0000FA0D0000130E0000EF
:103200001F0E0000250E0000280E00002B0E0000EF
:103210003D0E00005D0E0000780E00008D0E0000D7
:10322000A60E0000B90E0000C40E0000D90E00006A
:10323000EF0E0000FE0E00000E0F0000220F000037
:103240003A0F0000510F0000670F0000730F0000DD
:10325000760F0000760F0000790F0000830F00004A
:10326000900F00009C0F0000A60F0000AB0F0000A5
:10327000B10F0000B90F0000BF0F0000C00F000029
:10328000BF0F0000C10F0000C60F0000C80F0000F4
:10329000C90F0000C80F0000C70F0000C60F0000D4
:1032A000C70F0000CA0F0000CF0F0000D20F0000B0
:1032B000D30F0000D20F0000D30F0000D50F000085
:1032C000D80F0000DA0F0000DD0F0000DF0F000054
:1032D000E20F0000E30F0000E50F0000E70F000021
:1032E000EA0F0000ED0F0000EF0F0000EF0F0000ED
:1032F000F10F0000F40F0000F90F0000FA0F0000BA
:10330000FA0F0000FA0F0000FA0F0000FA0F000099
:10331000FA0F0000FA0F0000FA0F0000FA0F000089
:10332000FA0F0000FA0F0000FA0F0000FA0F000079
:10333000FA0F0000FA0F0000FA0F0000FA0F000069
:10334000FA0F0000FA0F0000FA0F0000FA0F000059
:10335000FA0F0000FA0F0000FA0F0000FA0F000049
:10336000FA0F0000FA0F0000FA0F0000FA0F000039
:10337000FA0F0000FA0F0000FA0F0000FA0F000029
:10338000FA0F0000FA0F0000FA0F0000FA0F000019
:10339000FA0F0000FA0F0000FA0F0000FA0F000009
:1033A000FA0F0000FA0F0000FA0F0000FA0F0000F9
:1033B000FA0F0000FA0F0000FA0F0000FA0F0000E9
:1033C000FA0F0000FA0F0000FA0F0000FA0F0000D9
:1033D000FA0F0000FA0F0000FA0F0000FA0F0000C9
:1033E000FA0F0000FA0F0000FA0F0000FA0F0000B9
:1033F000FA0F0000FA0F0000FA0F0000FA0F0000A9
:10340000FA0F0000FA0F0000FA0F0000FA0F000098
:10341000FA0F0000FA0F0000FA0F0000FA0F000088
:10342000FA0F0000FA0F0000FA0F0000FA0F000078
:10343000FA0F0000FA0F0000FA0F0000FA0F000068
:10344000FA0F0000FA0F0000FA0F0000FA0F000058
:10345000FA0F0000FA0F0000FA0F0000FA0F000048
:10346000FA0F0000FA0F0000FA0F0000FA0F000038
:10347000FA0F0000FA0F0000FA0F0000FA0F000028
:10348000FA0F0000FA0F0000FA0F0000FA0F000018
:10349000FA0F0000FA0F0000FA0F0000FA0F000008
:1034A000FA0F0000FA0F0000FA0F0000F70F0000FB
:1034B000F40F0000F10F0000EF0F0000EB0F000011
:1034C000E50F0000E10F0000DF0F0000DF0F00003C
:1034D000DE0F0000DB0F0000D70F0000D10F00004F
:1034E000CA0F0000C40F0000C00F0000BC0F000096
:1034F000B70F0000B00F0000AC0F0000AA0F0000D3
:10350000AC0F0000AF0F0000AF0F0000A90F0000CC
:103510009B0F00008D0F0000800F00007A0F00004D
:10352000740F00006D0F0000630F00005B0F0000C0
:10353000530F00004C0F0000440F00003A0F000032
:10354000330F00002F0F00002B0F0000220F000090
:10355000190F0000120F00000E0F0000060F0000F0
:10356000FD0E0000F60E0000F10E0000EE0E000051
:10357000E90E0000E00E0000D10E0000C40E0000B5
:10358000B90E0000AD0E00009F0E0000950E000069
:103590008D0E0000820E0000750E0000690E000006
:1035A0005D0E0000500E00003B0E00002C0E0000CF
:1035B0002E0E0000220E0000030E0000EC0D000095
:1035C000E00D0000D70D0000CA0D0000AA0D00009C
:1035D000860D00006A0D00004E0D0000330D000046
:1035E000210D0000130D0000000D0000E60C00008E
:1035F000CC0C0000B60C0000970C00007B0C000007
:103600006A0C0000610C00004A0C0000300C000045
:10361000110C0000190C00000A0C0000E90B00005E
:10362000C20B0000AD0B0000AB0B0000930B0000C1
:10363000620B00004D0B0000440B0000050B000066
:10364000E60A0000CA0A0000A50A0000AA0A000053
:103650009E0A00008E0A0000890A00009C0A0000F1
:10366000AB0A00009F0A00009D0A0000960A0000B5
:10367000A60A0000A70A0000B60A0000C90A000056
:10368000DE0A0000F80A0000120B00003B0B0000ED
:103690005B0B00005C0B00006F0B0000780B000060
:1036A0007D0B00007C0B00008C0B0000830B0000E6
:1036B000790B00006F0B0000430B0000290B00008A
:1036C0001E0B0000030B0000FE0A0000DB0A0000D6
:1036D000BD0A00005D0A0000C409000020090000C6
:1036E00075080000C707000037070000AA060000A1
:1036F00043060000BF0500006D0500002305000023
:10370000EA04000097040000610400003404000093
:103710000E040000E2030000B20300008C0300006E
:103720007103000050030000300300000603000096
:10373000DF020000BC0200008E02000068020000F0
:1037400050020000350200001B02000002020000CF
:10375000E8010000CB010000AC0100009501000071
:103760008801000077010000690100005E0100008F
:103770004E0100003B010000240100000801000090
:10378000EB000000D3000000C4000000B9000000FE
:10379000B1000000A60000009800000087000000B3
:1037A0007B0000006F000000650000005D0000006D
:1037B00059000000540000004D00000045000000CA
:1037C0003D0000003900000035000000310000001D
:1037D0002C00000028000000240000002100000050
:1037E0001C000000150000000D0000000700000094
:1037F00004000000030000000200000001000000BF
:1038000000000000000000000000000000000000B8
:1038100000000000000000000000000000000000A8
:103820000000000000000000000000000000000098
:103830000000000000000000000000000000000088
:103A30000000000000000000000000000100000085
:103A40000100000000000000000000000000000075
:103A50000000000000000000000000000000000066
:103A60000000000000000000000000000000000056
:103A70000000000001000000010000000000000044
:103A80000000000000000000000000000000000036
:103A90000000000000000000000000000000000026
:103AA0000000000000000000000000000000000016
:103AB0000000000000000000000000000000000006
:103AC00000000000000000000100000001000000F4
:103AD00001000000010000000100000001000000E2
:103AE00000000000000000000000000001000000D5
:103AF00001000000000000000000000000000000C5
:103B000001000000010000000100000001000000B1
:103B100001000000000000000000000000000000A4
:103B20000000000000000000000000000100000094
:103B300003000000090000000D000000100000005C
:103B40000F0000001200000018000000210000001B
:103B5000280000002E000000350000003D0000009D
:103B60004400000045000000440000004500000043
:103B70004B00000050000000530000005400000003
:103B8000580000005F0000006900000072000000A3
:103B9000790000007F000000830000008700000023
:103BA0008F0000009A000000A4000000A90000009F
:103BB000AB000000AE000000B5000000BE00000039
:103BC000C9000000D2000000DA000000E10000009F
:103BD000E7000000EB000000EE000000F200000033
:103BE000F900000001010000060100000F010000C3
:103BF0001D0100002D01000035010000370100000B
:103C000038010000390100003E01000048010000B9
:103C100056010000600100006C0100007A01000004
:103C20008701000090010000950100009A0100004A
:103C3000A3010000B1010000BD010000C4010000AB
:103C4000C6010000CC010000D5010000DD0100002C
:103C5000E2010000E7010000F0010000F9010000AE
:103C6000FE0100000802000018020000250200000A
:103C70002B0200002A02000023020000270200009D
:103C800037020000460200005702000060020000F8
:103C9000640200006F020000780200008102000050
:103CA0008A0200009002000097020000A3020000B8
:103CB000B3020000C0020000CE020000D7020000E4
:103CC000E3020000E1020000D1020000D702000080
:103CD000E4020000E5020000F7020000F902000023
:103CE000FB020000FC0200000603000010030000BD
:103CF0000B030000120300001E0300001D03000060
:103D0000260300003C030000440300003E030000C3
:103D10003903000045030000540300004E03000077
:103D20005803000060030000600300006903000006
:103D30005A030000650300007103000082030000C5
:103D40009F030000A9030000AE030000BB030000B6
:103D5000E6030000FD030000080400001A04000050
:103D6000350400003D0400005C0400007A040000FB
:103D700091040000A1040000E2040000FA04000025
:103D8000200500003F05000079050000AA0500009D
:103D9000E90500003B060000AE0600007E070000BB
:103DA000BC08000074090000BE090000180A0000E9
:103DB000580A0000940A0000C60A00000E0B00001A
:103DC000310B0000610B0000770B00009A0B000024
:103DD000B30B0000C50B0000D80B0000EC0B00007B
:103DE000F60B0000050C0000130C0000250C000071
:103DF0002B0C00003A0C00004E0C0000680C000078
:103E0000690C0000790C00008B0C0000A00C000075
:103E1000B90C0000CF0C0000DD0C0000E70C000026
:103E2000F60C00000D0D00001C0D00002E0D000012
:103E3000430D0000520D0000650D0000740D0000E0
:103E40007D0D00008C0D00009F0D0000B10D0000E5
:103E5000C20D0000D00D0000D70D0000D80D0000ED
:103E6000E10D0000F50D0000080E0000150E000029
:103E7000230E00002F0E0000340E0000360E00004E
:103E80003B0E00003D0E0000440E0000550E0000E9
:103E9000650E00006D0E0000780E0000870E000019
:103EA000900E00008F0E0000910E00009D0E00008D
:103EB000A90E0000B10E0000B90E0000C50E0000F2
:103EC000CF0E0000D50E0000DA0E0000DD0E00005F
:103ED000DF0E0000E50E0000F00E0000F60E000000
:103EE000FC0E0000040F00000C0F00000D0F00007E
:103EF0000B0F00000A0F00000B0F00000D0F000059
:103F0000130F00001D0F0000240F0000290F0000F8
:103F10002E0F0000330F0000370F00003B0F000092
:103F2000420F00004B0F0000510F0000570F000020
:103F30005D0F0000630F0000660F0000690F0000B6
:103F40006C0F0000700F0000760F00007E0F000065
:103F5000830F0000840F0000830F0000830F000018
:103F6000850F0000880F00008B0F0000910F0000EC
:103F7000960F00009D0F0000A00F0000A10F000091
:103F8000A10F00009F0F00009F0F0000A00F000076
:103F9000A10F0000A20F0000A40F0000A90F000055
:103FA000AF0F0000B60F0000B60F0000B60F000004
:103FB000B50F0000B70F0000B80F0000B90F0000E8
:103FC000BD0F0000C00F0000C20F0000C10F0000B5
:103FD000C00F0000C10F0000C20F0000C00F0000A2
:103FE000BD0F0000BC0F0000BD0F0000BD0F0000A2
:103FF000B90F0000B70F0000B80F0000BE0F00009F
:10400000C30F0000C70F0000CC0F0000D20F00004C
:10401000DA0F0000DD0F0000DE0F0000DC0F0000F3
:10402000DC0F0000DD0F0000DF0F0000DE0F0000DE
:10403000DA0F0000D50F0000D10F0000D10F0000F3
:10404000D20F0000D50F0000DB0F0000E00F0000D2
:10405000E40F0000E30F0000E10F0000E00F00009C
:10406000E10F0000DE0F0000D80F0000D20F0000AB
:10407000D20F0000D80F0000E00F0000E20F000098
:10408000DD0F0000D50F0000CF0F0000D00F0000A3
:10409000D10F0000D20F0000CE0F0000CA0F0000A9
:1040A000C70F0000C90F0000CA0F0000CB0F0000AF
:1040B000C40F0000BD0F0000B50F0000AF0F0000DF
:1040C000AA0F0000A60F0000A40F0000A20F00001E
:1040D000A20F0000A20F0000A10F0000A00F00001F
:1040E0009C0F0000990F0000960F0000990F000030
:1040F0009A0F00009A0F0000940F0000910F00002B
:104100008F0F0000910F0000900F00008D0F000036
:10411000890F0000890F0000890F0000880F000040
:10412000840F00007E0F0000780F0000770F000062
:10413000760F0000740F0000710F0000710F000077
:10414000760F00007B0F0000770F0000700F00005B
:104150006A0F00006B0F00006B0F0000660F00007D
:10416000570F00004E0F0000480F0000480F0000DE
:10417000460F0000440F0000410F00003D0F0000FB
:10418000380F0000330F00002F0F0000270F000032
:104190001E0F0000190F0000180F00001C0F000078
:1041A000190F0000140F00000D0F0000090F000090
:1041B000010F0000F80E0000F00E0000EF0E0000EE
:1041C000F20E0000F10E0000EE0E0000EC0E0000FA
:1041D000EB0E0000E70E0000E50E0000E30E00000D
:1041E000DF0E0000D50E0000CC0E0000C80E00004F
:1041F000C30E0000BE0E0000BC0E0000BC0E00008E
:10420000B70E0000B40E0000B50E0000B30E0000A3
:10421000AD0E0000A60E0000A40E0000A30E0000CC
:104220009E0E0000970E0000910E0000880E000008
:104230007A0E00006E0E0000660E0000600E000098
:10424000590E0000520E00004B0E0000440E0000FC
:104250003F0E0000390E0000290E00001A0E00006B
:10426000150E00000E0E0000020E0000F90D0000F9
:10427000F20D0000EB0D0000E70D0000E60D000060
:10428000E40D0000DF0D0000D80D0000CE0D000091
:10429000BF0D0000B00D0000AB0D0000A80D000028
:1042A0009E0D0000950D00008D0D0000870D000093
:1042B000810D00007D0D0000740D0000620D0000F6
:1042C000600D00005D0D0000550D0000480D000060
:1042D000300D00002C0D00002E0D0000230D0000FD
:1042E000130D0000010D0000F50C0000F50C00009E
:1042F000F60C0000E30C0000CB0C0000BE0C00002C
:10430000BA0C0000B00C00009E0C0000840C0000F1
:104310007C0C0000680C0000560C0000350C0000FE
:104320001B0C00000A0C0000FF0B0000CD0B00006E
:10433000A10B0000890B0000580B0000310B00009E
:10434000F80A0000B50A0000940A00003D0A0000C7
:10435000D60900006C090000C1080000CE0700006B
:10436000D806000056060000E80500008805000099
:104370005705000026050000F8040000CD040000E9
:10438000AE040000920400007B04000069040000F9
:10439000580400003A040000300400002D0400001E
:1043A0001E0400000B04000007040000F1030000DD
:1043B000EA030000E3030000D4030000C803000088
:1043C000C9030000CE030000C6030000CC030000B8
:1043D000C8030000C7030000C1030000C4030000BD
:1043E000C4030000CA030000D1030000C903000099
:1043F000BE030000D1030000DF030000D60300006D
:10440000DD030000E7030000F4030000F9030000EF
:10441000040400000F040000190400001804000048
:1044200025040000360400003904000046040000A2
:104430005B040000680400008204000087040000A0
:1044400098040000A6040000B4040000CD0400009D
:10445000E7040000FB040000130500002F05000026
:10446000430500006005000079050000BD0500005F
:10447000F8050000270600008A060000F20600008A
:10448000800700001B070000870600001F060000D1
:10449000DA050000A70500007B05000065050000A7
:1044A000460500003C05000032050000160500002E
:1044B000120500000A0500000805000016050000AE
:1044C000220500002B050000540500005A050000DD
:1044D0008E050000AE050000EA0500003906000068
:1044E0009706000042070000770800004E09000010
:1044F000BD090000FB0900003B0A0000700A000033
:104500008D0A00009D0A0000A30A0000CD0A0000E9
:10451000D80A0000D10A0000D00A0000CD0A00002D
:10452000CF0A0000C60A0000C00A0000C20A00004C
:10453000B50A0000B20A0000980A0000910A0000C3
:104540007F0A00006D0A0000610A00004B0A0000AB
:104550003E0A0000380A00001F0A00000F0A00008F
:10456000020A0000FE090000FB090000090A000021
:10457000040A0000180A00000A0A0000060A0000E7
:10458000120A0000170A0000060A0000130A0000C1
:10459000070A0000FF090000F6090000DC0900001E
:1045A000D10900009D09000066090000040900000F
:1045B00080070000C706000047060000DE05000077
:1045C000C4050000AA050000880500006905000078
:1045D000580500003E0500003E0500002B050000C8
:1045E000140500002C050000FC0400000405000078
:1045F000E8040000F3040000E9040000F0040000F7
:10460000EA04000004050000F9040000EC040000C6
:10461000F2040000E7040000EA040000DB040000EC
:10462000DD040000E1040000E6040000F4040000E2
:10463000EF040000E3040000E9040000E5040000CA
:10464000DC040000DB040000DD040000D7040000EF
:10465000D3040000D6040000D5040000D2040000FA
:10466000C2040000BD040000BF040000AE0400004E
:10467000BD040000A20400009A0400009A04000097
:1046800098040000920400008804000085040000E3
:104690007B0400007C040000700400008004000023
:1046A000720400006C040000690400007004000043
:1046B000730400005A0400004E0400005B04000074
:1046C000510400004B040000550400005904000090
:1046D0005D0400006C040000690400006C0400002C
:1046E0006C040000730400007B0400007D040000E3
:1046F00096040000A1040000A5040000C504000009
:10470000C5040000D1040000DF040000FE04000026
:104710001505000022050000440500007505000095
:1047200099050000D70500000C060000580600009F
:10473000C8060000C70700000B0900005709000069
:1047400096090000C8090000FE0900002A0A0000BE
:10475000580A0000820A0000960A0000C00A000001
:10476000D50A0000F40A0000110B0000390B00000C
:10477000460B0000620B0000830B00008E0B000054
:10478000A30B0000BD0B0000C90B0000D80B0000FC
:10479000EB0B0000FD0B0000070C0000180C0000E4
:1047A000340C0000420C0000500C0000560C0000BD
:1047B000620C0000740C0000870C00008E0C0000DE
:1047C0009D0C0000A60C0000B40C0000C70C0000FB
:1047D000CA0C0000CC0C0000D10C0000E10C000061
:1047E000EE0C0000F00C0000F00C0000F40C0000D7
:1047F000FE0C0000090D0000140D0000170D000054
:10480000100D0000100D0000150D00001C0D000023
:10481000190D0000150D00001D0D0000220D0000F7
:10482000280D0000250D0000260D00001F0D0000C2
:104830001E0D00001A0D00001D0D0000200D0000CF
:104840001C0D0000190D0000160D0000140D0000D5
:10485000140D0000190D0000120D00000E0D0000D7
:10486000120D0000110D0000100D0000030D0000DE
:10487000F80C0000F80C0000F80C0000F40C00002C
:10488000ED0C0000E90C0000E30C0000DC0C000063
:10489000CF0C0000CB0C0000C20C0000B50C0000D7
:1048A000AD0C0000A70C0000990C0000890C000062
:1048B0007B0C0000790C0000760C0000670C0000F7
:1048C000520C0000450C0000370C0000300C0000BA
:1048D000210C0000140C0000FF0B0000F10B000085
:1048E000DD0B0000CD0B0000C80B0000B60B000074
:1048F000A00B0000910B0000750B0000630B000083
:104900004B0B0000370B00001B0B0000060B0000D8
:10491000E60A0000D80A0000B70A0000A50A000055
:104920007C0A00005A0A00003C0A00000B0A000042
:10493000C909000077090000FB0800008907000092
:10494000B40600004B060000FE050000C50500008F
:10495000A00500007F05000062050000440500007E
:104960002D0500000E050000FC040000F20400000C
:10497000D1040000CD040000BC040000B20400001B
:10498000AF040000A7040000A80400009B0400007E
:104990009104000094040000830400007E040000E1
:1049A0007704000074040000760400006D04000029
:1049B0006E040000750400006C040000690400002F
:1049C0006D0400006D0400006C040000760400001B
:1049D00072040000730400007A0400007A040000EE
:1049E00079040000810400008504000086040000B2
:1049F000900400008D04000097040000980400005B
:104A00009A040000A4040000AE040000B2040000F8
:104A1000C1040000CA040000D9040000E104000041
:104A2000F2040000090500001A0500002F0500002F
:104A30003C050000570500006C0500008F050000D4
:104A4000B4050000DF050000100600004C06000061
:104A5000B00600006A070000F808000051090000D5
:104A60007B0900008C090000970900009D090000E7
:104A70009A09000094090000840900006A090000F6
:104A800043090000F0080000AE07000068070000BE
:104A900019070000090700000C0700003407000098
:104AA0009708000010090000490900007009000083
:104AB0008C0900009B0900009D090000920900007C
:104AC000810900005D090000190900008408000048
:104AD0002D070000E1060000B30600009606000066
:104AE0007E06000077060000700600007E060000CB
:104AF00095060000C7060000130700008A080000A2
:104B0000A408000069090000F608000087090000F9
:104B100060090000800800004C0600001A07000031
:104B20002D060000B9080000FF0600005109000032
:104B3000880500002F0600004B0A0000D80700007F
:104B4000B6090000B5080000F10700002B0A0000BC
:104B500079080000C3090000150500005F06000089
:104B6000250700004A06000099060000EC0400003A
:104B7000780200009B0400003B05000034050000A3
:104B8000460600005C070000080A0000F20600006C
:104B900052090000970B0000520A00000B0A0000A7
:104BA000FA090000CE0B0000570B0000B809000006
:104BB000810700004507000089090000180B00006C
:104BC000C70C0000FC0D0000C60D00009A0D00008F
:104BD000880D00007B0C00005A0C00009F0D0000A7
:104BE000520D0000AF0C0000480C00006B0C0000E0
:104BF000D10D0000510F0000E80F0000F80F000079
:104C0000FA0F0000F40F0000F10F0000C30F0000C6
:104C1000C80E00006D0E0000580F0000EA0F0000E3
:104C2000F20F0000F80F0000FA0F0000E70F00007D
:104C3000A90F00008E0F0000B40F0000E10F00006C
:104C4000F70F0000FA0F0000F80F0000EA0F000055
:104C5000FD0E00009F0D0000410D0000CC0D000076
:104C60006D0E0000200F0000D90F0000F80F0000AB
:104C7000C70F0000B30E0000620D0000820D00009F
:104C80009C0D00003D0D0000650D0000E30D0000CF
:104C9000DE0D0000A10C0000A30B0000200B0000A3
:104CA000BE0900007D090000910A00004A0B0000C7
:104CB000650A00007C090000710900004C09000031
:104CC000560900005009000065080000F9060000C0
:104CD0006106000046070000AC0700004306000024
:104CE00092050000BA0500006404000017030000EC
:104CF0007B0300002B040000C80300008C020000AE
:104D00008A020000000400008E0400007604000007
:104D10009A0400005E0400007203000055020000C7
:104D200051020000DD020000D00100007D00000003
:104D30002D000000350000003500000023000000B9
:104D40001400000011000000060000002100000017
:104D5000B300000098010000AD0100001801000040
:104D60008D0000004600000023000000010000004C
:104D7000130000004C0000008200000094000000BE
:104D80006D0000002100000006000000200000006F
:104D9000660000009A0000007C0000004700000050
:104DA0001400000009000000050000000B000000D6
:104DB0002500000038000000380000001F0000003F
:104DC0000A000000020000000A0000003500000098
:104DD000570000006B000000510000002D00000093
:104DE0000B000000030000000300000008000000AA
:104DF00010000000160000001A000000160000005D
:104E00000D00000001000000050000000600000089
:104E1000030000000800000018000000410000002E
:104E20003F0000002B0000000C0000000900000003
:104E300011000000160000001A0000001A00000017
:104E40000E0000000A000000090000000B00000036
:104E50000400000000000000010000000700000046
:104E60000C0000000C000000030000000100000026
:104E70000A000000190000002600000026000000C3
:104E80001C0000000D0000000100000004000000F4
:104E9000280000003C000000350000002500000054
:104EA0002B000000580000007C000000950000006E
:104EB000A40000009C000000850000006E000000BF
:104EC0005E00000068000000790000006B00000038
:104ED0006100000086000000D90000003E010000D3
:104EE00065010000570100008B0100004F02000027
:104EF0003D0300009C030000610300003C03000030
:104F0000960300004C040000E704000018050000B0
:104F10003D050000EF050000400700008808000084
:104F2000F80800009008000041080000C6080000D2
:104F3000CE090000BD0A0000290B00002F0B000065
:104F40003C0B00003D0B0000860B0000290C00000C
:104F50004B0C0000730C0000F10C0000250D00004C
:104F6000390D0000460D00005E0D0000100E00001F
:104F70009D0E0000040E0000210D0000350D000004
:104F8000FB0D00004E0E00004D0E0000AD0E0000A7
:104F9000000F0000CA0E00004E0E0000560E00006A
:104FA000C70E0000170F0000450F0000630F000040
:104FB000340F0000E70E0000F10E00002D0F00007E
:104FC0003E0F00001F0F0000FA0E0000F10E00005F
:104FD000F80E0000F60E0000020F0000280F00007F
:104FE0002E0F0000160F0000020F00000E0F000031
:104FF000400F0000660F0000450F0000EB0E0000A0
:10500000800E0000350E0000390E0000430E000037
:10501000330E0000500E0000A10E0000FD0E000037
:10502000FF0E0000EA0E0000EE0E0000100F000060
:10503000390F00003E0F0000FD0E0000890E000039
:105040002F0E0000320E0000A80E0000FF0E000020
:105050001E0F0000430F0000710F0000930F0000AF
:105060009D0F0000A70F0000B60F0000A10F000069
:10507000880F00009E0F0000B70F0000960F000081
:105080004D0F0000280F0000700F0000CA0F000035
:10509000DA0F0000CE0F0000B50F0000910F0000E6
:1050A000B30F0000EF0F0000A50F0000CF0E0000AF
:1050B000490E0000410E00008E0E0000C40E0000DC
:1050C0006C0E00001C0E0000240E0000040E0000F8
:1050D000D00D0000DC0D0000BB0D0000080D00002D
:1050E0002A0C0000710B0000D60A0000800A0000A4
:1050F000810A00008F0A00006C0A00002B0A0000E1
:10510000CC0900002F090000A40800004F0800008F
:10511000D60700002A0700008C06000033060000B6
:1051200018060000DB0500007605000029050000D8
:1051300076040000470300009502000067020000AB
:10514000360200004402000024020000900100002A
:1051500071010000BC010000A7010000380100003F
:10516000D4000000AA000000BA000000C100000046
:10517000D60000001001000017010000EC00000044
:10518000CC000000B3000000B1000000C600000029
:10519000D8000000E4000000CA000000A9000000E0
:1051A000C3000000ED000000F4000000D500000086
:1051B000AD000000980000009A000000B10000005F
:1051C000D5000000F90000000B010000F400000011
:1051D000C30000009F0000008F0000009500000049
:1051E0009C000000A8000000B3000000BB0000000D
:1051F000BE000000C4000000C9000000CB00000099
:10520000C9000000CE000000DF000000ED0000003B
:10521000ED000000DE000000BC0000009A0000006D
:10522000830000007F000000800000007A00000082
:105230006C000000660000006700000065000000D0
:10524000550000004F000000550000006400000001
:105250006E0000006A000000610000005B000000BA
:105260006200000078000000840000007B00000065
:1052700055000000480000005300000066000000D8
:10528000700000006C000000500000003D000000B5
:1052900041000000500000005A00000054000000CF
:1052A0003B0000002A0000002D0000002E0000003E
:1052B0002C00000039000000480000004C000000F5
:1052C0004C0000004E00000051000000580000009B
:1052D000630000007E000000AD000000C30000007D
:1052E000D800000039010000D6010000490200008A
:1052F000510200005A020000E90200009003000081
:10530000D0030000FE03000062040000C604000099
:10531000D3040000B404000008050000B505000037
:10532000130600003C0600008E060000090700007E
:105330009907000035080000D20800003F0900006E
:105340004709000014090000170900009009000037
:10535000570A0000090B00005F0B0000570B00000C
:10536000260B00000E0B00003A0B00009A0B000009
:10537000F50B0000390C0000BA0C0000A20D000073
:105380005E0E0000720E00003D0E0000430E000095
:10539000810E0000A50E0000BC0E00001E0F0000D4
:1053A000AA0F0000F10F0000F80F0000EA0F000044
:1053B000DB0F0000DF0F0000F20F0000F90F00000C
:1053C000EE0F0000E80F0000ED0F0000F30F0000EB
:1053D000F30F0000EF0F0000F00F0000F40F0000CB
:1053E000F80F0000F90F0000F60F0000F00F0000AA
:1053F000F00F0000F50F0000FA0F0000FA0F000098
:10540000FA0F0000FA0F0000FA0F0000F90F000079
:10541000EF0F0000E00F0000CF0F0000CF0F0000E3
:10542000D70F0000E50F0000EE0F0000F30F0000A3
:10543000F50F0000F60F0000F50F0000F40F00005C
:10544000F10F0000F20F0000F50F0000F80F000050
:10545000F90F0000F60F0000F20F0000F00F00003F
:10546000F70F0000FA0F0000FA0F0000FA0F00001B
:10547000FA0F0000F80F0000F70F0000F80F00000F
:10548000F10F0000EB0F0000E60F0000DD0F000041
:10549000D20F0000C60F0000C30F0000D10F0000A4
:1054A000E50F0000F90F0000FA0F0000FA0F0000EE
:1054B000F90F0000FA0F0000FA0F0000FA0F0000C9
:1054C000FA0F0000FA0F0000FA0F0000FA0F0000B8
:1054D000F90F0000F30F0000EA0F0000F30F0000C7
:1054E000F90F0000FA0F0000FA0F0000F90F00009A
:1054F000F60F0000F30F0000F20F0000F70F00009E
:10550000FA0F0000FA0F0000FA0F0000FA0F000077
:10551000FA0F0000FA0F0000FA0F0000FA0F000067
:10552000FA0F0000FA0F0000FA0F0000F60F00005B
:10553000F50F0000F80F0000FA0F0000FA0F00004E
:10554000F90F0000F60F0000F80F0000FA0F00003E
:10555000FA0F0000FA0F0000FA0F0000FA0F000027
:10556000FA0F0000FA0F0000FA0F0000FA0F000017
:10557000FA0F0000FA0F0000FA0F0000FA0F000007
:10558000FA0F0000F60F0000F10F0000F10F00000D
:10559000E20F00008A0F00003C0F0000550F0000D2
:1055A000760F0000460F0000F60E0000C20E00004D
:1055B000980E0000500E0000E10D0000A10D00004B
:1055C000C10D0000B70D00007A0D0000440D000071
:1055D000EA0C0000800C00007A0C0000820C000035
:1055E000FD0B00009B0B0000AC0B0000750B0000D6
:1055F000350B0000E60A0000AE0A0000770A000042
:10560000AC0900003E0900008E09000011090000ED
:10561000600800007E080000F10700009707000006
:1056200005070000BB060000EA050000BD050000FC
:105630001E050000D80400006004000054040000AF
:105640007D0400000A0400007E0300000D0300003A
:105650003403000021030000840200002002000047
:10566000C9010000C30100002B0200006F0200000E
:105670001B0200008C0100007A0100007A0100008A
:10568000BD010000CB010000AF010000640100007B
:105690006E0100005E01000062010000A101000037
:1056A00082010000760100009D010000D101000090
:1056B0009D010000C80100001B020000FB0100006A
:1056C000E0010000E9010000FB010000D80100003A
:1056D000C601000058020000FD020000C4020000E4
:1056E0000B0200001C020000DA0200004803000068
:1056F00034030000420300003303000027030000CE
:10570000C502000076020000E50200007E030000F2
:10571000FC0200005F030000890300001B0400007E
:1057200046030000F8030000620400009D0400002E
:1057300030050000CC0600003F0700008F07000086
:10574000EE0700000C080000F5080000050A000044
:10575000040B0000B10B0000C7090000E6080000C0
:10576000CB070000D6070000A7070000A90700002C
:105770000E0600005D0600001C0600008305000008
:10578000960400009004000011040000CF03000004
:10579000F80300005903000042030000B6020000B5
:1057A00053030000310300008C02000012030000CC
:1057B0003A0300006C020000FD01000040020000FE
:1057C0007702000013020000AC010000F4000000AA
:1057D000AC00000042010000730100000B0100005A
:1057E0007B00000062000000F60000005E01000087
:1057F00022010000B600000085000000CF0000007C
:10580000590100008201000074010000AB0100009A
:10581000B7010000310100009E000000B20000004E
:1058200063010000E0010000AE0100005101000032
:1058300058010000A1010000D4010000ED010000AA
:10584000F6010000CD010000800100005E010000B3
:1058500093010000D4010000D20100009B01000070
:105860005E01000024010000F3000000EA000000D7
:105870001901000066010000BE010000E301000004
:10588000A30100005E0100004101000030010000A2
:105890003D01000072010000A3010000B5010000FD
:1058A000A50100007A0100006A01000097010000D4
:1058B000B9010000B1010000AB010000AC01000023
:1058C000AD010000B2010000BF010000D7010000DF
:1058D000A80100002C010000530100000302000099
:1058E0005F02000058020000390200000A020000B6
:1058F000CF010000BA010000D5010000D201000074
:10590000170200008F020000BF020000B702000073
:10591000AF020000A70200006E02000010030000AA
:10592000D40300006A030000D8020000280300002E
:105930002D0300005403000006040000970400003B
:10594000E2040000D6040000E30400007D0500002E
:1059500092050000200500002D0600000F06000043
:10596000890600007606000043060000A606000037
:1059700074060000350600001F06000083050000C5
:10598000DA050000180600006D070000FB060000A5
:1059900034070000FF070000A708000046090000C8
:1059A0002E0A0000950A00006A0A0000170B00008A
:1059B000AD0A0000310B0000B50B0000BE0B00006B
:1059C000BF0B0000CC0B0000F90B0000060C000020
:1059D0003A0C0000A00C0000AE0C0000B10C00005E
:1059E000100D0000180D0000C90C0000BB0C0000D9
:1059F000580D0000A30D00004F0D0000FE0C00002C
:105A0000FA0C0000210D00004D0D0000490D0000B2
:105A1000630D0000A60D0000070E0000380E000008
:105A2000FA0D0000E60D00000A0E0000120E000044
:105A30001F0E00003F0E0000720E0000A90E0000B5
:105A40009D0E0000750E0000650E00006D0E00003A
:105A5000A80E0000F00E0000FC0E0000E10E000099
:105A6000F00E00002B0F0000510F00005A0F000035
:105A7000460F0000220F0000160F0000230F000049
:105A8000360F0000400F0000420F0000470F0000DB
:105A90005F0F0000780F00007F0F0000680F00000C
:105AA000270F0000E10E0000BB0E0000AE0E00004C
:105AB000A50E0000730E0000620E0000890E0000AB
:105AC000E80E0000400F0000500F00003B0F0000E8
:105AD000100F0000EB0E0000D90E0000CF0E0000EA
:105AE000C60E0000CC0E0000F90E0000360F0000BC
:105AF0005E0F0000430F00001C0F0000F60E0000B8
:105B0000FC0E0000140F0000390F0000600F0000B1
:105B10005E0F0000400F0000000F0000FC0E0000B0
:105B20001B0F00005D0F0000820F00009C0F0000A3
:105B3000AD0F0000B90F0000C20F0000C90F000038
:105B4000CD0F0000C60F0000B10F0000990F00003C
:105B5000950F0000A90F0000CE0F0000E80F000015
:105B6000F50F0000F80F0000FA0F0000F80F00001A
:105B7000E20F0000D50F0000DB0F0000E90F00006E
:105B8000F40F0000F50F0000F60F0000F80F000002
:105B9000FA0F0000FA0F0000F90F0000F80F0000E4
:105BA000F80F0000F70F0000F20F0000EE0F0000EA
:105BB000EC0F0000E60F0000DF0F0000D70F000021
:105BC000E10F0000EC0F0000F50F0000F80F0000DF
:105BD000F70F0000F80F0000F80F0000F60F0000AC
:105BE000F70F0000F80F0000F70F0000F80F00009B
:105BF000FA0F0000FA0F0000FA0F0000F90F000082
:105C0000F60F0000F30F0000EA0F0000E90F00009C
:105C1000ED0F0000F50F0000FA0F0000FA0F000072
:105C2000F50F0000EE0F0000ED0F0000ED0F00007B
:105C3000F00F0000ED0F0000EA0F0000F10F000070
:105C4000F60F0000FA0F0000FA0F0000FA0F000034
:105C5000FA0F0000F90F0000F70F0000F80F000026
:105C6000F90F0000F80F0000F60F0000F40F00001D
:105C7000F20F0000F30F0000F80F0000F90F000012
:105C8000F70F0000EE0F0000E80F0000F10F00001A
:105C9000F50F0000F70F0000F50F0000F50F0000F2
:105CA000F70F0000F60F0000F40F0000F40F0000E3
:105CB000F50F0000F70F0000F90F0000FA0F0000C9
