:020000040800F2
:100000000000022039260008290D00082B0D0008E9
:100010002D0D00082F0D0008310D00080000000014
:10002000000000000000000000000000330D000888
:10003000350D000800000000370D0008390D0008DC
:1000400089260008892600088926000889260008D4
:100050008926000889260008490600088926000824
:1000600089260008892600088926000889260008B4
:1000700089260008892600088926000889260008A4
:10008000410D0008892600088926000889260008F5
:100090008926000889260008892600088926000884
:1000A0008926000889260008892600088926000874
:1000B0008926000889260008892600088926000864
:1000C0008926000889260008892600088926000854
:1000D0008926000889260008892600088926000844
:1000E0008926000889260008892600088926000834
:1000F0008926000889260008892600088926000824
:100100008926000889260008892600088926000813
:100110008926000889260008892600088926000803
:1001200089260008892600088926000889260008F3
:100130008926000800000000000000008926000851
:1001400089260008892600088926000889260008D3
:1001500089260008892600088926000889260008C3
:1001600089260008892600088926000889260008B3
:10017000892600088926000889260008000000005A
:1001800000000000892600080000000000000000B8
:1001900089260008000000000000000089260008F1
:1001A0000000000000000000000000008926000898
:1001B0008926000889260008892600088926000863
:0401C0008926000884
:1001C40010B5054C237833B9044B13B10448AFF38D
:1001D40000800123237010BD146000200000000083
:1001E400E426000808B5034B1BB103490348AFF3E9
:1001F400008008BD0000000018600020E42600080C
:1002040053B94AB9002908BF00281CBF4FF0FF3179
:100214004FF0FF3000F088B9ADF1080C6DE904CE61
:1002240000F006F8DDF804E0DDE9022304B07047CD
:100234002DE9F047089D8E4604468846002B4AD196
:100244008A42174662D9B2FA82F64EB1C6F1200349
:1002540001FA06F820FA03F3B74043EA0808B44069
:100264004FEA174E1FFA87FCB8FBFEF1230C0EFB76
:10027400118843EA084301FB0CF29A4209D9FB189E
:1002840001F1FF3080F0EA809A4240F2E7800239BF
:100294003B449A1AA3B2B2FBFEF00EFB102243EACF
:1002A400024300FB0CFC9C4509D9FB1800F1FF320A
:1002B40080F0D6809C4540F2D3803B44023840EA2B
:1002C4000140A3EB0C0300211DB1F3400022C5E95A
:1002D4000032BDE8F0878B4205D90DB1C5E90001B4
:1002E40000210846F5E7B3FA83F1002946D17345A6
:1002F40002D3824200F20581841A6EEB03020120CC
:100304009046002DE5D0C5E90048E2E7002A00F058
:100314009080B2FA82F6002E40F0A4808A1A030C70
:100324004FEA174E80B2BCB20121B2FBFEFC0EFBB9
:100334001C2243EA024304FB0CF29A4207D9FB183D
:100344000CF1FF3802D29A4200F2E080C4469B1AB4
:10035400B3FBFEF20EFB123340EA034302FB04F448
:100364009C4207D9FB1802F1FF3002D29C4200F2F2
:10037400CA8002461B1B42EA0C40A5E7C1F12006D5
:100384008B4022FA06F71F430EFA01F420FA06F313
:100394002EFA06FE4FEA1749234300FA01F81FFA22
:1003A40087FCBEFBF9F01C0C09FB10EE44EA0E447A
:1003B40000FB0CFEA64502FA01F209D93C1900F132
:1003C400FF3A80F09C80A64540F2998002383C4474
:1003D400A4EB0E041FFA83FEB4FBF9F309FB1344E8
:1003E4004EEA044403FB0CFCA44508D93C1903F170
:1003F400FF3E80F08280A4457FD9023B3C4443EA1F
:100404000040A4EB0C04A0FB02EC64457346E146F7
:1004140062D35FD05DB1B8EB030264EB090404FA64
:1004240006F622FA01F31E43CC40C5E9006400211C
:100434004FE7B1FBF2FC010C41EA0E4180B240EA05
:1004440001423B4638463C46B846BE462026B1FBF0
:10045400F7F1A2EB080241EA0C4166E7014618E70E
:1004640010462CE7C6F120022EFA02F3B740B14041
:1004740020FA02F24FEA174E0A43B3FBFEF8BCB26D
:100484000EFB1833110C41EA034108FB04F9B04098
:1004940089454FEA104380B23ED9791808F1FF3CF0
:1004A40001D289451FD8A1EB0901B1FBFEF909FB73
:1004B40004F80EFB191192B242EA0142424529D2D4
:1004C400BA1809F1FF31C4D24245C2D2A9F10201DE
:1004D4003A44BEE7F0459DD2BEEB02036CEB070C39
:1004E4000138E14696E7A7EB09094944A8F1020C53
:1004F400B1FBFEF909FB04F8DBE773467FE75046DE
:1005040066E70846FDE63B44023A33E7ACF1020CE9
:100514003B441CE749469CE7A1EB0901C446B1FBF7
:10052400FEF909FB04F8C4E7704700BF2DE9F04F5A
:1005340089B00024039404940594069407940094C9
:100544002F4B1A6B42F080021A631A6B02F080027E
:100554000092009A01941A6B42F001021A631A6B1A
:1005640002F001020192019A02941A6B42F0020213
:100574001A631B6B03F002030293029B4FF4404B7C
:10058400CDF80CB001260496DFF87CA003A95046F0
:1005940001F046FC4FF44079CDF80C90DFF86C8004
:1005A40003A9404601F03CFC4FF410470397154D56
:1005B40003A9284601F034FC22465946504601F06E
:1005C4001FFD22464946404601F01AFD224639469F
:1005D400284601F015FD03964FF4881304930596FD
:1005E40003A9284601F01CFC22460221062001F042
:1005F40089FF062001F096FF09B0BDE8F08F00BF27
:10060400003802400000024000080240000402409A
:1006140000B583B000210191094B1A6B42F400121A
:100624001A631B6B03F400130193019B0A46102009
:1006340001F068FF102001F075FF03B05DF804FBC2
:100644000038024070B501F0D1FF354B1860354BCE
:100654001B68C31AC72B1ED9324B1860324B1A6859
:10066400D36823F40073D360304801F0F6FD3049B9
:100674000A7801322F4B83FB020303EB4303A2EB03
:100684004303DBB20B70013B042B08D8DFE803F013
:10069400200C11161B00012001F0BAFC3EE04FF4BF
:1006A4007A72254E254D17E04FF47A72244E254D6B
:1006B40012E04FF4FA72244E244D0DE04FF4FA7216
:1006C400234E244D08E04FF4FA72234E234D03E0E9
:1006D4004FF47A72224E234D9202234BB3FBF2F372
:1006E400224A1360013B104CE360204600F0F4FC06
:1006F400012000F057FA304600F048FA4FF48063C6
:100704001B4A12682946094801F072FD2268D36821
:1007140043F40073D360012001F07AFC70BD00BF84
:100724003860002034600020E46000203C60002039
:1007340030600020ABAAAA2AFC260008085000203A
:1007440010270008083000201C270008082000207B
:1007540024270008081000202C2700080800002087
:1007640004270008084000200024F40004000020AE
:100774000000002072B6FEE700B58FB000230A9394
:100784000B930C930D930893099301930293039392
:10079400049305930693079336484FF08042026012
:1007A40043608360344A1268013AC2600361836122
:1007B40000F092FC002850D14FF480530A930AA908
:1007C4002C4800F0EFFD002849D12A4800F0B0FC85
:1007D400002846D100230893099308A9254800F06E
:1007E40073FF00283FD100220192029203920592E6
:1007F40001A9204800F02CFD002836D100230093E5
:100804001E4A116B41F400111163126B02F40012C1
:100814000092009A1A481B4A02604FF0C06242607C
:1008240040228260C3604FF4806202614FF48052C0
:1008340042614FF4804282614FF48072C2614FF48E
:1008440000320262436201F06DFC80B9094A0C4B2C
:1008540053629A630FB05DF804FBFFF78BFFFFF759
:1008640089FFFFF787FFFFF785FFFFF783FFFFF798
:1008740081FF00BFE4600020040000200038024033
:100884003C6000208860024000B58FB000230A93CA
:100894000B930C930D930893099301930293039381
:1008A40004930593069307931E481F4A026043600E
:1008B400836040F6FF72C2600361836100F00CFC48
:1008C40028BB4FF480530A930AA9164800F06AFD26
:1008D400F8B9144800F058FCE8B9002308930993C8
:1008E40008A9104800F0F0FEB8B960230193002372
:1008F400029303930593082201A90A4800F0D7FC48
:1009040068B9084800F08AFA0FB05DF804FBFFF7F5
:1009140031FFFFF72FFFFFF72DFFFFF72BFFFFF747
:1009240029FF00BF9C6000200004004000B595B082
:100934003422002107A801F0A6FE002302930393AA
:100944000493059306930093194A116C41F0805166
:100954001164126C02F080520092009A01931549BE
:100964000A6822F4404242F480420A600A6802F4AF
:1009740040420192019A0222079201220A92102215
:100984000B920D9307A801F029F868B90F2302937D
:100994000021039104910591069102A800F0DAFE6A
:1009A40020B915B05DF804FBFFF7E4FEFFF7E2FEA3
:1009B400003802400070004008B501F0F1FD00F07D
:1009C40079F9322001F018FEFFF7B0FFFFF7AEFD12
:1009D400FFF71EFEFFF7D0FEFFF756FF08210E4873
:1009E40000F0F0FD0D4C0021204600F069FD4FF4AD
:1009F40080630B4A12680B490B4801F0F9FB012094
:100A040000F0D0F8094800F0C1F82268D36843F434
:100A14000073D360FEE700BF9C600020E460002008
:100A240000000020085000203C600020FC26000844
:100A340082B000EB40000023019304E000BF00BF3C
:100A4400019B01330193019B8342F7D302B07047AA
:100A540010B51420FFF7ECFF094CA36943F40043DD
:100A6400A3611420FFF7E4FFA36943F00043A361EB
:100A74001420FFF7DDFFA36943F40043A36110BD15
:100A84000008024010B504463D4A936943F480438C
:100A9400936110F0800F41D13A4A936943F00043C7
:100AA400936114F0400F40D0364A936943F4805365
:100AB400936114F0200F3ED0334A936943F40073DA
:100AC400936114F0100F3CD02F4A936943F4807360
:100AD4009361FFF7BDFF14F0080F38D0294A9369DA
:100AE40043F40043936114F0040F36D0254A93690C
:100AF40043F48053936114F0020F34D0224A936973
:100B040043F40073936114F0010F32D01E4A9369C9
:100B140043F480739361FFF79BFF10BDA2F500625D
:100B2400936943F400439361BBE7164A936943F026
:100B340080539361BDE7144A936943F00073936152
:100B4400BFE7114A936943F080739361C1E70D4A8B
:100B5400936943F000439361C5E70A4A936943F0FC
:100B640080539361C7E7084A936943F00073936124
:100B7400C9E7054A936943F080739361CBE700BFEB
:100B840000080240000002400004024038B5054657
:100B9400002403E0FFF776FF0134E4B2285D002867
:100BA400F8D138BD10B504463F4A936943F08043F9
:100BB400936110F0800F45D13C4A936943F00043A0
:100BC400936114F0400F44D0384A936943F480533E
:100BD400936114F0200F42D0354A936943F40073B3
:100BE400936114F0100F40D0314A936943F4807339
:100BF4009361FFF72DFF14F0080F3CD02B4A936943
:100C040043F40043936114F0040F3AD0274A9369E4
:100C140043F48053936114F0020F38D0244A93694B
:100C240043F40073936114F0010F36D0204A9369A2
:100C340043F480739361FFF70BFF40F6B830FFF77E
:100C4400F7FE10BDA2F50062936943F4004393617B
:100C5400B7E7164A936943F080539361B9E7144A9E
:100C6400936943F000739361BBE7114A936943F0BE
:100C740080739361BDE70D4A936943F00043936128
:100C8400C1E70A4A936943F080539361C3E7084A72
:100C9400936943F000739361C5E7054A936943F090
:100CA40080739361C7E700BF000802400000024060
:100CB4000004024008B5194B1A6B42F001021A6392
:100CC4001A6B42F002021A631A6B42F004021A63AE
:100CD400134A136843F08243136002F58062136879
:100CE40043F4A023136002F58062136843F0A04329
:100CF400136047F23050FFF79BFE3320FFF752FF9B
:100D04003220FFF74FFF0C20FFF74CFF2820FFF79E
:100D140049FF0120FFF746FF08BD00BF003802402D
:100D240000000240FEE7FEE7FEE7FEE7FEE770474D
:100D34007047704708B501F04DFC08BD08B502487E
:100D440001F09EFA08BD00BF3C60002082B0002183
:100D540000910B4B5A6C42F480425A645A6C02F470
:100D640080420092009A01911A6C42F080521A64F7
:100D74001B6C03F080530193019B02B0704700BFCA
:100D84000038024010B582B00368B3F1804F04D03C
:100D94001E4A93422CD002B010BD04460023009397
:100DA4001B4A116C41F001011164126C02F0010242
:100DB4000092009A1748184A02604FF0C0624260DD
:100DC4008360C3604FF4806202614FF480524261D9
:100DD4004FF480428261C3610362436201F0A2F96D
:100DE40018B90C4B63629C63D5E7FFF7C3FCF8E7C3
:100DF40000230193064B1A6C42F002021A641B6C26
:100E040003F002030193019BC5E700BF0004004007
:100E1400003802403C6000208860024000B587B082
:100E240000230193029303930493059302680E4BEA
:100E34009A4202D007B05DF804FB002300930B4BE9
:100E44001A6B42F002021A631B6B03F00203009355
:100E5400009B0123019302230293059301A90448F3
:100E640000F0DEFFE6E700BF000400400038024067
:100E74000004024030B4036A026A22F001020262F2
:100E84004268846924F0730C0C6844EA0C0423F06F
:100E9400020C8B6843EA0C03114DA84203D005F5FC
:100EA4008065A84205D123F00803CD682B4323F0C5
:100EB40004030B4DA84203D005F58065A84207D171
:100EC40022F440724D6945EA020C8A6942EA0C0236
:100ED400426084614A684263036230BC704700BF69
:100EE4000000014030B4036A026A22F48072026294
:100EF4004268C46924F0730C0C6844EA0C0523F4BA
:100F040000738C6843EA0423114CA04203D004F517
:100F14008064A04206D123F40063CC6843EA04232E
:100F240023F480630A4CA04203D004F58064A042F9
:100F340007D122F440524C6942EA04128C6942EA15
:100F440004124260C5614A68C263036230BC7047E0
:100F54000000014030B4036A026A22F48052026243
:100F64004468C26922F4E6420D6842EA052223F489
:100F740000538D6843EA0533094DA84203D005F5B3
:100F84008065A84204D124F480444D6944EA851460
:100F94004460C2614A680264036230BC704700BFA7
:100FA4000000014010B4036A046A24F001040462DE
:100FB400846924F0F00C4CEA021223F00A030B4378
:100FC400826103625DF8044B704710B4036A046ADB
:100FD40024F010040462846924F4704C4CEA023254
:100FE40023F0A00343EA0113826103625DF8044B1A
:100FF4007047836823F070030B4343F00703836057
:1010040070477047704700000368324A904212D01C
:10101400B0F1804F0FD0A2F57C4290420BD002F584
:101024008062904207D002F58062904203D002F5BC
:101034007842904203D123F070034A681343254A4F
:1010440090422AD0B0F1804F27D0A2F57C42904242
:1010540023D002F5806290421FD002F58062904254
:101064001BD002F57842904217D002F5705290429C
:1010740013D002F5806290420FD002F58062904254
:101084000BD0A2F59832904207D002F580629042CC
:1010940003D002F58062904203D123F44073CA68FE
:1010A400134323F080034A6913438A68C2620A68BF
:1010B4008262084A904203D002F58062904201D1D4
:1010C4000A690263026842F004020260012242617A
:1010D400036070470000014040B310B5044690F827
:1010E4003D30F3B1022384F83D30214651F8040B1E
:1010F400FFF78AFF012384F8463084F83E3084F8F1
:101104003F3084F8403084F8413084F8423084F829
:10111400433084F8443084F8453084F83D3000206E
:1011240010BD80F83C30FFF72DFEDBE7012070474F
:1011340040B310B5044690F83D30F3B1022384F86F
:101144003D30214651F8040BFFF75EFF012384F87C
:10115400463084F83E3084F83F3084F8403084F8D8
:10116400413084F8423084F8433084F8443084F8C1
:10117400453084F83D30002010BD80F83C30FFF746
:1011840040FFDBE70120704740B310B5044690F8F8
:101194003D30F3B1022384F83D30214651F8040B6D
:1011A400FFF732FF012384F8463084F83E3084F898
:1011B4003F3084F8403084F8413084F8423084F879
:1011C400433084F8443084F8453084F83D300020BE
:1011D40010BD80F83C30FFF715FFDBE701207047B6
:1011E40030B4036A026A22F010020262446882691F
:1011F40022F4E6420D6842EA052223F020038D68BA
:1012040043EA0513114DA84203D005F58065A842B1
:1012140006D123F08003CD6843EA051323F040038D
:101224000A4DA84203D005F58065A84207D124F4ED
:1012340040644D6944EA85048D6944EA8504446048
:1012440082614A688263036230BC704700000140D7
:1012540090F83C30012B28D010B50446012380F8C7
:101264003C300C2A1CD8DFE802F0071B1B1B0C1BAC
:101274001B1B111B1B1B16000068FFF7FBFD002046
:101284000FE00068FFF7ACFF00200AE00068FFF7FA
:1012940029FE002005E00068FFF75CFE002000E066
:1012A4000120002384F83C3010BD0220704738B57B
:1012B40090F83C30012B66D004460D46012380F89B
:1012C4003C300C2A5AD8DFE802F0075959591B5907
:1012D40059593059595944000068FFF7CBFD226829
:1012E400936943F0080393612268936923F004032C
:1012F40093612268936929690B43936100203EE05E
:101304000068FFF76DFF2268936943F400639361FB
:101314002268936923F4806393612268936929693D
:1013240043EA01239361002029E00068FFF7DAFD16
:101334002268D36943F00803D3612268D36923F098
:101344000403D3612268D36929690B43D361002064
:1013540015E00068FFF7FEFD2268D36943F40063DB
:10136400D3612268D36923F48063D3612268D3698B
:10137400296943EA0123D361002000E0012000230E
:1013840084F83C3038BD0220FCE710B4846824F4AF
:101394007F4C42EA03220A4342EA0C0282605DF86F
:1013A400044B704790F83C30012B78D010B50446BC
:1013B400012380F83C30022380F83D3002689368B2
:1013C40023F47F4323F0770393600B68602B4CD0A6
:1013D40023D8402B54D011D8202B03D00AD80BB1DA
:1013E400102B05D119462068FFF703FE002028E0E2
:1013F400012026E0302BF5D0012022E0502B0AD129
:10140400CA6849680068FFF7CDFD50212068FFF7DE
:10141400F0FD002015E0012013E0B3F5805F3AD021
:10142400B3F5005F14D0702B37D1CB684A68896854
:101434000068FFF7AAFF2268936843F0770393607C
:101444000020012384F83D30002384F83C3010BD93
:10145400CB684A6889680068FFF797FF2268936839
:1014640043F4804393600020EBE7CA68496800684E
:10147400FFF7ABFD60212068FFF7BBFD0020E0E72C
:10148400CA6849680068FFF78DFD40212068FFF7AE
:10149400B0FD0020D5E70020D3E70120D1E70220EA
:1014A400704701F01F014FF0010C0CFA01FC036AB4
:1014B40023EA0C030362036A8A40134303627047FE
:1014C40010B504460846002942D194F83E30DBB2F8
:1014D400013B18BF0123002B6ED1002851D10223F8
:1014E40084F83E30012201462068FFF7DAFF2368C2
:1014F400334A934203D002F58062934203D15A6C7B
:1015040042F400425A6423682D4A934249D0B3F10D
:10151400804F46D0A2F57C42934242D002F58062CD
:1015240093423ED002F5806293423AD002F578426B
:10153400934236D002F57052934232D0A2F59432DF
:1015440093422ED01A6842F001021A60002032E061
:10155400042908D008290DD094F84130DBB2013BAE
:1015640018BF0123B7E794F83F30DBB2013B18BF43
:101574000123B0E794F84030DBB2013B18BF0123EC
:10158400A9E7042805D0082807D0022384F84130AD
:10159400A8E7022384F83F30A4E7022384F840300C
:1015A400A0E79A6802F00702062A07D01A6842F0F8
:1015B40001021A60002010BD0120FCE70020FAE7B8
:1015C4000000014010B504460846002942D194F8B1
:1015D4003E30DBB2013B18BF0123002B6ED1002843
:1015E40051D1022384F83E30012201462068FFF7DE
:1015F40058FF2368334A934203D002F58062934232
:1016040003D15A6C42F400425A6423682D4A93422F
:1016140049D0B3F1804F46D0A2F57C42934242D0E8
:1016240002F5806293423ED002F5806293423AD042
:1016340002F57842934236D002F57052934232D08A
:10164400A2F5943293422ED01A6842F001021A6035
:10165400002032E0042908D008290DD094F8413044
:10166400DBB2013B18BF0123B7E794F83F30DBB28C
:10167400013B18BF0123B0E794F84030DBB2013BD3
:1016840018BF0123A9E7042805D0082807D002239E
:1016940084F84130A8E7022384F83F30A4E702230A
:1016A40084F84030A0E79A6802F00702062A07D0BF
:1016B4001A6842F001021A60002010BD0120FCE704
:1016C4000020FAE70000014090F83C20012A3DD0B8
:1016D40010B40346012280F83C20022280F83D2009
:1016E40002685068946820F0700C086840EA0C00A6
:1016F40050601A68164882421AD0B2F1804F17D04F
:10170400A0F57C40824213D000F5806082420FD065
:1017140000F5806082420BD000F57840824207D009
:1017240000F57050824203D0A0F59430824204D177
:1017340024F08004496821439160012283F83D200C
:10174400002083F83C005DF8044B7047022070478A
:1017540000000140002800F09B8070B50D4604464F
:101764004F4B1B6803F00F038B4208D2CBB24C4A99
:101774001370136803F00F038B4240F08B802368CF
:1017840013F0020F17D013F0040F04D0454A9368E6
:1017940043F4E0539360236813F0080F04D0414AE4
:1017A400936843F4604393603E4A936823F0F003E4
:1017B400A1680B439360236813F0010F32D0636870
:1017C400012B21D09A1E012A25D9364A126812F01B
:1017D400020F61D033498A6822F0030213438B60FD
:1017E40000F004FF06462F4B9B6803F00C0362686D
:1017F400B3EB820F16D000F0F9FE801B41F2883360
:101804009842F0D9032042E0264A126812F4003FBD
:10181400E0D101203BE0234A126812F0007FD9D1C5
:10182400012034E01E4B1B6803F00F03AB4207D9C1
:10183400EAB21B4B1A701B6803F00F03AB422DD1A5
:10184400236813F0040F06D0164A936823F4E05378
:10185400E1680B439360236813F0080F07D0114A23
:10186400936823F46043216943EAC103936000F061
:1018740021F80C4B9B68C3F303130B4AD35CD84089
:101884000A4B18600A4B186800F064FE002070BD13
:10189400012070470120FAE70120F8E70120F6E76C
:1018A400003C0240003802403C2700081060002041
:1018B4000C60002008B5464B9B6803F00C03082B12
:1018C40005D00C2B43D0042B7FD1424819E0404B68
:1018D4005A6802F03F025B6813F4800F12D03C4B4D
:1018E4005968C1F388113B480023A1FB0001FEF7AE
:1018F40087FC374B5B68C3F3014301335B00B0FBE8
:10190400F3F008BD324B5868C0F388104FEA401C0E
:10191400BCEB000C6EEB0E0E4FEA8E1343EA9C6395
:101924004FEA8C11B1EB0C0163EB0E03DB0043EACD
:101934005173C90011EB000C43F100039902002319
:101944004FEA8C2041EA9C51FEF75AFCD1E7204B28
:101954005A6802F03F025B6813F4800F10D01C4BEE
:101964005968C1F388111B480023A1FB0001FEF74D
:1019740047FC174B5B68C3F30273B0FBF3F0C0E79B
:10198400134B5868C0F388104FEA401CBCEB000CA2
:101994006EEB0E0E4FEA8E1343EA9C634FEA8C11F2
:1019A400B1EB0C0163EB0E03DB0043EA5173C90096
:1019B40011EB000C43F10003990200234FEA8C2041
:1019C40041EA9C51FEF71CFCD3E7034899E700BFAA
:1019D4000038024040787D010024F400002800F023
:1019E400018270B582B00446036813F0010F41D040
:1019F400994B9B6803F00C03042B32D0964B9B68E5
:101A040003F00C03082B27D0934B9B6803F00C03C3
:101A14000C2B59D06368B3F5803F5BD0B3F5A02F8E
:101A24005ED08D4B1A6822F480321A601A6822F450
:101A340080221A606368002B5CD000F0D7FD054655
:101A4400854B1B6813F4003F14D100F0CFFD401BFD
:101A54006428F5D90320CCE17F4B5B6813F4800F35
:101A6400D2D07D4B1B6813F4003F03D06368002B76
:101A740000F0BA81236813F0020F60D0764B9B68A4
:101A840013F00C0F4AD0744B9B6803F00C03082B23
:101A94003FD0714B9B6803F00C030C2B69D0E368B7
:101AA400002B75D06D4B01221A6000F09FFD054696
:101AB400694B1B6813F0020F61D100F097FD401BC6
:101AC4000228F5D9032094E1634B5B6813F4800F7B
:101AD400A0D0C6E7604A136843F480331360A9E7D3
:101AE4005D4B1A6842F480221A601A6842F480320C
:101AF4001A609FE700F07AFD0546574B1B6813F404
:101B0400003FB7D000F072FD401B6428F5D90320D4
:101B14006FE1514B5B6813F4800FBAD14E4B1B68D5
:101B240013F0020F03D0E368012B40F05F814A4AAF
:101B3400136823F0F803216943EAC103136023689F
:101B440013F0080F49D06369002B33D0434B0122B3
:101B5400C3F8802E00F04AFD05463F4B5B6F13F03F
:101B6400020F3AD100F042FD401B0228F5D90320B0
:101B74003FE1394B5B6813F4800F90D1CEE7364ACE
:101B8400136823F0F803216943EAC1031360D6E71D
:101B9400324B00221A6000F029FD05462E4B1B68CB
:101BA40013F0020FCBD000F021FD401B0228F5D921
:101BB40003201EE1294B0022C3F8802E00F016FDFD
:101BC4000546254B5B6F13F0020F06D000F00EFDA7
:101BD400401B0228F5D903200BE1236813F0040FFE
:101BE40076D01D4B1B6C13F0805F33D1002301931F
:101BF400194B1A6C42F080521A641B6C03F0805328
:101C04000193019B0125164B1B6813F4807F29D097
:101C1400A368012B3AD0052B3ED00F4B1A6F22F04C
:101C240001021A671A6F22F004021A67A368002BD4
:101C34003CD000F0DBFC0646074B1B6F13F0020F91
:101C440045D100F0D3FC801B41F288339842F3D98C
:101C54000320CEE00025D6E70038024000004742CA
:101C6400007000406B4A136843F48073136000F003
:101C7400BDFC0646674B1B6813F4807FC8D100F097
:101C8400B5FC801B0228F5D90320B2E0624A136F29
:101C940043F001031367C9E75F4B1A6F42F0040274
:101CA4001A671A6F42F001021A67BFE700F09EFC40
:101CB4000646594B1B6F13F0020F08D000F096FC38
:101CC400801B41F288339842F3D9032091E0EDB9A7
:101CD400A369002B00F08C804F4A926802F00C023A
:101CE400082A54D0022B17D04C4B00221A6600F05D
:101CF4007DFC0446484B1B6813F0007F45D000F080
:101D040075FC001B0228F5D9032072E0424A136CCB
:101D140023F080531364DBE7404B00221A6600F083
:101D240065FC05463C4B1B6813F0007F06D000F0B1
:101D34005DFC401B0228F5D903205AE0E369226ABE
:101D44001343626A43EA8213A26A5208013A43EADD
:101D54000243E26A43EA0263226B43EA02732E4AB5
:101D640053602E4B01221A6600F040FC04462A4BB5
:101D74001B6813F0007F06D100F038FC001B02281A
:101D8400F5D9032035E0002033E0002031E0012BB9
:101D940031D0214B5B6803F48001E26991422CD17C
:101DA40003F03F02216A8A4229D1616A47F6C07270
:101DB4001A40B2EB811F24D103F44031A26A5208C5
:101DC400013AB1EB024F1ED103F07062E16AB2EB4B
:101DD400016F1AD103F0E043226BB3EB027F16D1FB
:101DE400002006E001207047012002E0012000E00D
:101DF400002002B070BD0120FBE70120F9E70120BB
:101E0400F7E70120F5E70120F3E70120F1E70120DE
:101E1400EFE700BF00700040003802400000474276
:101E240000230F2B00F2E38070B582B065E0856873
:101E34004FEA430E032404FA0EF425EA0405CC68A1
:101E440004FA0EF42C438460446824EA02044A68C9
:101E5400C2F300129A40224342605CE0DC0808347A
:101E640050F8242003F00705AD004FF00F0E0EFAD2
:101E740005FE22EA0E0E0A69AA4042EA0E0240F862
:101E840024205CE0062200E0002202FA0EF22A433B
:101E94000234574D45F82420564A94686FEA0C02E0
:101EA40024EA0C054E6816F4801F01D04CEA0405A0
:101EB400504CA560E46802EA04054E6816F4001F5D
:101EC40001D04CEA04054B4CE560646802EA040561
:101ED4004E6816F4003F01D04CEA0405454C656099
:101EE400246822404D6815F4803F01D04CEA040276
:101EF400404C226001330F2B77D801229A400C68A2
:101F040004EA020C32EA0404F4D14C6804F0030439
:101F1400013C012C8BD94A6802F00302032A09D040
:101F2400C4685D000322AA4024EA02048A68AA4025
:101F34002243C2604A6802F00302022A8ED0046877
:101F44004FEA430E032202FA0EF224EA02044A681C
:101F540002F0030202FA0EF2224302604A6812F40B
:101F6400403FC7D000220192234A546C44F4804479
:101F74005464526C02F480420192019A9C08A51C9C
:101F84001B4A52F8255003F0030E4FEA8E0E0F221F
:101F940002FA0EF225EA0205184A90423FF474AFA1
:101FA40002F58062904216D002F58062904214D00D
:101FB40002F58062904212D002F58062904210D005
:101FC40002F5806290420ED002F5806290423FF4A6
:101FD40059AF072259E7012257E7022255E70322A6
:101FE40053E7042251E705224FE702B070BD704762
:101FF40000380140003C014000380240000002402B
:102004000AB181617047090481617047704700001B
:1020140008B5054B5B69034200D108BD024B58610A
:10202400FFF7F4FFF9E700BF003C014030B4056856
:102034002C6824F480242C60046863608368402B3B
:1020440005D0036899600368DA6030BC70470368A0
:102054009A600368D960F8E710B40368D9B21039FC
:102064000A4AA2FB01421209094CA25CC2655F291B
:1020740007D96FF3090304338365806D5DF8044B5E
:1020840070476FF309038365F7E700BFABAAAAAAF9
:1020940034270008836A826992B9012B0AD0022B83
:1020A40002D00BB100207047C36A13F0807F28D19F
:1020B40000207047C36AB3F1C07F24D0002070476A
:1020C400B2F5005F09D0022B25D9032B25D1C36AB1
:1020D40013F0807F23D100207047032B03D8DFE85F
:1020E40003F01404140A00207047C36A13F0807FBD
:1020F4000DD100207047C36AB3F1C07F09D000201E
:10210400704701207047012070470120704701206B
:10211400704701207047012070470020704701205C
:102124007047000070B5044600F060FA002C5BD0E4
:102134000546022384F83530002384F834302268BD
:10214400136823F00103136023681A6812F0010F67
:102154000AD000F04BFA431B052BF5D92023636505
:10216400032084F8350070BD1A6820491140626864
:10217400A0680243E06802432069024360690243A5
:10218400A0690243E0690243206A02430A43616A88
:1021940004291ED01A602668756925F00705636A4C
:1021A4001D43042B07D1A36A1D43E36A1BB12046D8
:1021B400FFF770FF90B975612046FFF74DFFE26DA0
:1021C4003F239340836000206065012384F8353009
:1021D400C9E7E16A206B01430A43DBE740236365F7
:1021E400012084F83500BEE70120BCE73F8010F0F1
:1021F40038B50446856D90F8340001282BD00120B1
:1022040084F8340094F83500C0B2012804D00023C7
:1022140084F83430022038BD022084F835000020D0
:1022240060652046FFF702FFE26D3F239340AB60F9
:102234002268136843F016031360236C23B12268E9
:10224400136843F0080313602268136843F0010322
:1022540013600020DFE70220DDE790F83530DBB2C1
:10226400022B03D08023436501207047052380F8A7
:1022740035300268136823F00103136000207047AF
:10228400F0B583B0044600230193724B1D68724B72
:10229400A3FB0535AD0A876D3E68C26D08239340E4
:1022A400334210D003681A6812F0040F0BD01A6876
:1022B40022F004021A60C26D08239340BB60436D90
:1022C40043F001034365E26D01239340334209D097
:1022D4002268526912F0800F04D0BB60636D43F032
:1022E40002036365E26D04239340334209D02268FC
:1022F400126812F0020F04D0BB60636D43F0040354
:102304006365E26D10239340334224D0226812683F
:1023140012F0080F1FD0BB6023681A6812F4802FD4
:102324000DD01B6813F4002F04D1236C9BB12046FD
:10233400984710E0A36C73B1204698470BE01A68E5
:1023440012F4807F03D11A6822F008021A60236C09
:102354000BB120469847E26D20239340334255D079
:102364002268126812F0100F50D0BB6094F8353018
:10237400DBB2052B0ED023681A6812F4802F33D0F9
:102384001B6813F4002F2AD1636C002B3ED0204627
:1023940098473BE02268136823F016031360226811
:1023A400536923F080035361236CA3B1226813683B
:1023B40023F008031360E26D3F239340BB600123C5
:1023C40084F83530002384F83430236D002B3FD05B
:1023D400204698473CE0A36C002BE7D1EBE7E36B86
:1023E400A3B12046984711E01A6812F4807F09D1FE
:1023F4001A6822F010021A60012384F83530002391
:1024040084F83430E36B0BB120469847636DFBB11D
:10241400636D13F0010F17D0052384F8353022685B
:10242400136823F001031360019B01330193AB4252
:1024340004D823681B6813F0010FF5D1012384F835
:102444003530002384F83430E36C0BB120469847D0
:1024540003B0F0BD10600020B5814E1B002807DBDF
:1024640000F01F02400901239340024A42F8203041
:10247400704700BF00E100E0002808DB0901C9B291
:1024840000F1604000F5614080F80013704700F0EF
:102494000F000901C9B2014B1954704714ED00E053
:1024A40000B500F00700C0F1070CBCF1040F28BF11
:1024B4004FF0040C031D062B0FD9C31E4FF0FF3E33
:1024C4000EFA0CF021EA000199400EFA03FE22EA0A
:1024D4000E0241EA02005DF804FB0023EEE700006F
:1024E400074AD36823F4E0631B041B0C000200F4C6
:1024F400E060034343F0BF6343F40033D3607047A9
:1025040000ED00E010B50446054BD868C0F3022086
:10251400FFF7C6FF01462046FFF7AEFF10BD00BF20
:1025240000ED00E008B5FFF799FF08BD0138B0F1F0
:10253400807F0BD24FF0E0235861054AF02182F8E6
:1025440023100020986107221A6170470120704708
:1025540000ED00E010B504460E4B1A784FF47A7380
:10256400B3FBF2F30C4A1068B0FBF3F0FFF7DEFFA5
:1025740068B90F2C01D901200AE0002221464FF04E
:10258400FF30FFF7BFFF054B1C60002000E0012077
:1025940010BD00BF08600020106000200C60002007
:1025A40008B50B4B1A6842F400721A601A6842F4B8
:1025B40080621A601A6842F480721A600320FFF77E
:1025C4008FFF0F20FFF7C6FFFEF7C0FB002008BDFA
:1025D400003C0240034A1168034B1B780B44136010
:1025E400704700BF2C61002008600020014B186870
:1025F400704700BF2C61002038B50446FFF7F6FF92
:102604000546B4F1FF3F02D0044B1B781C44FFF78E
:10261400EDFF401BA042FAD338BD00BF0860002084
:10262400034AD2F8883043F47003C2F88830704704
:1026340000ED00E0DFF834D0FFF7F2FF0C480D495D
:102644000D4A002302E0D458C4500433C4188C4209
:10265400F9D30A4A0A4C002301E013600432A2426F
:10266400FBD300F019F8FEF7A7F970470000022029
:1026740000000020146000205C2700081460002083
:1026840030610020FEE702440346934200D17047C4
:1026940003F8011BF9E7000070B50D4D0D4C641BE8
:1026A400A4100026A64209D10B4D0C4C00F018F8DA
:1026B400641BA4100026A64205D170BD55F8043B46
:1026C40098470136EEE755F8043B98470136F2E7A0
:1026D40054270008542700085427000858270008E6
:1026E400F8B500BFF8BC08BC9E467047F8B500BFFB
:0826F400F8BC08BC9E467047CB
:1026FC0053696E6500000000536177746F6F7468E6
:10270C0000000000547269616E676C650000000087
:10271C005069616E6F00000047756974617200004A
:10272C004472756D7300000000061016000610163A
:10273C000000000000000000010203040607080965
:08274C00E8DAFF7F0100000044
:04275400E90100088F
:04275800C5010008AF
:10275C003C0400400F000000C0070000FA0E00000F
:10276C001E0D0000B10000004500000096000000A6
:10277C000C0F0000E20E0000C80A0000110100005E
:10278C007E00000094040000CA0F0000C00F00007F
:10279C00C50F00003A07000003020000DB02000036
:1027AC00120200001F020000BE0B0000F00E000021
:1027BC008A0F0000C80F0000CA0F0000CE0F0000E7
:1027CC00140F0000C90C0000D30000002B00000007
:1027DC00290000002B000000290000002900000047
:1027EC002C000000680100003B0A0000160D0000E0
:1027FC00860C0000D20C00005B0D0000B103000041
:10280C003F0200006E03000033050000AC05000021
:10281C00DA090000FD05000032090000650E000019
:10282C00B80D0000750000003200000082000000AE
:10283C002F0F00001E0F00001A0600000F010000F1
:10284C008500000044060000CE0F0000CC0F0000F5
:10285C00B80F0000920400001F0200005703000094
:10286C0099010000E20100002D0C0000150F000082
:10287C00A20F0000CE0F0000CE0F0000C70F00000B
:10288C00360F0000D50C00009D0000002A0000004F
:10289C002B0000002C0000002A0000002C0000007F
:1028AC002B00000063010000500A00001F0D000007
:1028BC007F0C0000BC0C0000430D000096030000D0
:1028CC002B0200006F0300002F050000C70500005D
:1028DC00DE0900000006000097080000F70F00005A
:1028EC00FE0F0000AC0100005E000000D5010000EE
:1028FC00FB0F0000FB0F0000FE0F0000D7010000D3
:10290C005A0000005B000000490100008F0F00001E
:10291C00AD0F0000FB0F0000DE0C00006400000097
:10292C000F010000500B0000A30F000096040000E4
:10293C00AE0D0000CF020000570B0000510A000042
:10294C00F6080000C30F0000B90A0000A000000048
:10295C0023000000880000008A0E0000140F000005
:10296C00BF0F000030010000BD000000900100000E
:10297C00B40F0000C20F0000BD0F0000F10E0000EC
:10298C00E9000000EB01000053000000FA00000019
:10299C00060600007C0D0000E30D0000370F000060
:1029AC00C30F00004D0F00003A0F0000890D00000E
:1029BC008B0100002500000024000000290000000D
:1029CC002200000023000000240000004002000050
:1029DC00BA0A00002C0C0000D60C0000D80D000028
:1029EC007D0E0000EA0D0000C10200003D01000058
:1029FC008501000006030000990400009E050000FC
:102A0C0087040000290C0000F1050000A40500005B
:102A1C0045080000340F0000EE0F0000BD0A000056
:102A2C004F000000FE000000F00F0000ED0F000052
:102A3C00ED0F0000150D00005000000060000000BC
:102A4C004D000000820D00005C0F0000D60F00004E
:102A5C00EE0F0000730000004F000000DB000000D0
:102A6C00D50D0000B90F0000110C00003505000059
:102A7C00730F0000EE0400003A0C0000520400003A
:102A8C0033050000970A00005D050000F90D0000F9
:102A9C0048010000FC0000009D0D0000A70F000085
:102AAC00D20F0000E50F00009F0200008B01000018
:102ABC00AF03000097010000F7020000B40D000006
:102ACC00B80F0000E80F0000E80F0000E80F00004E
:102ADC00230F0000B20C00007A0B0000F60000007F
:102AEC0043000000430000004300000045000000CC
:102AFC004400000028010000B00200004504000062
:102B0C001E0D0000E70E00008D0F0000C10F00002D
:102B1C008A0F00000F0F0000410E0000BE0C0000D9
:102B2C00F80300008D060000920A00001C0500004E
:102B3C00790400008C0B0000220D00001E0C00001C
:102B4C00BD040000A9080000B8070000A60E000094
:102B5C002A0D00009E0000003E00000091000000C5
:102B6C00150F0000F20E00001D0B00001C010000F0
:102B7C0073000000E2040000CD0F0000C90F00003C
:102B8C00CD0F00007C0600000D020000B00200001A
:102B9C00030200000C020000D20B0000EC0E00003F
:102BAC00970F0000CD0F0000CA0F0000CC0F0000E3
:102BBC001B0F0000CF0C0000D0000000290000000B
:102BCC002C0000002A0000002B000000290000004F
:102BDC002900000066010000340A0000120D0000FC
:102BEC007F0C0000B90C00004E0D0000A303000088
:102BFC00380200006F03000031050000AC05000036
:102C0C00DB090000FC05000029080000FB0F000098
:102C1C00F50F0000A00100005F000000C3010000E0
:102C2C00FF0F0000FC0F0000FF0F0000D30100009D
:102C3C0064000000670000007C010000A10F000090
:102C4C00EB0F0000D80F00007B04000065000000B3
:102C5C00D1000000D10E0000980F0000FA04000013
:102C6C00C10C000076030000750B0000E00A0000A8
:102C7C00F9080000C50F00004A0B0000A600000078
:102C8C00240000007B0000008A0E0000020F0000F0
:102C9C00C60F00003D010000CA000000CC0100007E
:102CAC00C10F0000C40F0000C80F0000FC0E000094
:102CBC00D2000000F80100004A00000005010000ED
:102CCC00F0050000700D0000BA0D00004D0F000063
:102CDC00C80F0000670F0000340F0000C40D000087
:102CEC006201000026000000260000002300000006
:102CFC00230000002400000024000000200200003B
:102D0C000C0B0000290C00006B0D0000D00D000016
:102D1C00700E0000F60D0000AF0200003A0100003A
:102D2C008501000002030000560400006805000045
:102D3C00C8040000080C00005F060000B605000087
:102D4C00D9080000BC0E0000090D0000370000007F
:102D5C00320000007E000000140F0000340F000051
:102D6C0013050000E5000000890000004C0900007C
:102D7C00CE0F0000CE0F0000CA0F0000610400004F
:102D8C002C0200007F0300009C010000D801000011
:102D9C001A0C00000C0F00008F0F0000CD0F00006C
:102DAC00CC0F0000C80F0000270F00002C0D0000F6
:102DBC006A00000029000000290000002900000022
:102DCC00330000002A0000002F0000005B0100000F
:102DDC00B7090000410D0000880C0000860C0000B3
:102DEC00410D000084030000210200006D0300006F
:102DFC002F050000BE050000DD090000FF050000E6
:102E0C00CF0800002E0F0000EC0F0000C10A0000DC
:102E1C004E0000001B010000F00F0000F10F00003D
:102E2C00EE0F0000200D00004C0000004F000000D1
:102E3C005C000000610D00004F0F0000E20F00006D
:102E4C00E30F0000A300000055000000F700000095
:102E5C00C10D0000C70F0000FE0B0000D3050000E1
:102E6C00670F0000E8040000EE0C00003E040000B8
:102E7C00070500009B0A000060050000FC0D000027
:102E8C005401000007010000C00D0000A20F00005B
:102E9C00CB0F0000DB0F00008C020000990100003A
:102EAC007D0300009701000006030000C30D000025
:102EBC00B70F0000E80F0000E80F0000E80F00005B
:102ECC001D0F00007E0C0000490B0000EC00000000
:102EDC0043000000430000004300000043000000DA
:102EEC00430000002C010000B90200006104000046
:102EFC00310D0000EC0E00008F0F0000BF0F000022
:102F0C00860F00000C0F00003B0E0000BA0C0000F6
:102F1C00FC0300002A0600008A0A000018050000C5
:102F2C007D040000910B0000220D00001A0C000023
:102F3C00BC040000A9080000B1070000D50E000079
:102F4C00210D0000B000000056000000A20000009F
:102F5C002B0F0000170F00004F0A00002301000088
:102F6C007900000035050000CE0F0000CE0F0000E8
:102F7C00CE0F00002105000016020000E102000047
:102F8C000102000003020000E10B0000F50E00003E
:102F9C00950F0000CC0F0000C90F0000CE0F0000F1
:102FAC00210F0000CE0C0000AD0000002900000035
:102FBC002900000029000000290000002C0000005E
:102FCC002B000000600100003B0A00001A0D0000FD
:102FDC00800C0000C90C0000540D0000AA03000076
:102FEC003B0200007103000031050000BC0500002D
:102FFC00DE090000FF050000050A0000A20E00001B
:10300C00C60C00004B0000003000000082000000E5
:10301C00170F00003E0F0000D7040000EF00000067
:10302C0097000000F40A0000C80F0000BB0F00005E
:10303C00C20F000075040000EB010000B702000095
:10304C0096010000E10100006C0C00000E0F000066
:10305C00A10F0000CD0F0000CC0F0000CD0F000021
:10306C00200F0000240D0000650000002B00000064
:10307C002A0000002B000000300000002C00000093
:10308C003000000062010000AE090000470D000096
:10309C008B0C0000840C0000430D00008B0300001F
:1030AC00240200007003000027050000D505000075
:1030BC00DE0900000006000095080000FB0F000070
:1030CC00FF0F0000B50100005C000000D7010000FC
:1030DC00F70F0000F40F0000F70F00009301000041
:1030EC00610000005F00000096010000970F0000D7
:1030FC00E80F0000F10F0000ED0500005B00000080
:10310C00860000003B0D00008A0F0000390400000F
:10311C00BD0C0000870300007E0B0000E90A0000D4
:10312C00F80800001D0F0000C30F0000BC010000D8
:10313C00A40000002700000024000000CA000000CA
:10314C00940E0000A70E0000D60E0000030D000028
:10315C004A010000080100009B000000F30700007A
:10316C009D0F0000890F0000C20F0000C00F00006F
:10317C00420F00001E01000048020000710A00000E
:10318C003C000000F70000006B0200008A06000003
:10319C00700D0000FC0D0000040E00006F0E00000E
:1031AC00C60F0000B50F0000C30F00008B0F00000E
:1031BC007F0D00002104000022000000210000000F
:1031CC00220000002100000022000000220000006C
:1031DC00220000002300000079000000980200008B
:1031EC00B70A0000990C0000680C0000A60C000047
:1031FC00C20D00003B0D0000FB0D0000380E00005E
:10320C00B70200004C010000AC0000005A010000A5
:10321C00FB020000F60400007D090000A004000081
:10322C00C20400009B0B0000090B000046050000C7
:10323C00BA050000420800003C0F0000ED0F000032
:10324C00E40A00004F00000002010000DA0F000049
:10325C00DE0F0000F00F0000B90C00004B00000066
:10326C00530000004D000000CF0D0000810F000046
:10327C00E20F0000D70F0000790000004B000000A7
:10328C0051010000840E0000780F0000B807000008
:10329C0001050000430F00008E050000570C0000D4
:1032AC00A304000045050000950A00003D05000040
:1032BC00000E000047010000F9000000900D000016
:1032CC00A50F0000D10F0000E40F0000C1020000A8
:1032DC008D010000B90300009E010000F102000006
:1032EC00A50D0000B50F0000E70F0000E60F000071
:1032FC00E60F0000200F0000B50C00007D0B000055
:10330C0000010000440000004600000043000000E3
:10331C00430000004400000025010000AF02000043
:10332C003D0400001A0D0000E50E00008E0F000099
:10333C00C20F00008A0F00000D0F0000450E0000A8
:10334C00BE0C0000F5030000290700009F0A0000D6
:10335C001C0500007B0400008A0B0000200D0000FF
:10336C001E0C0000BD040000A8080000BC070000F3
:10337C00D50E00000F0D0000AB000000480000004F
:10338C0084000000060F0000010F0000A20A0000DC
:10339C001A0100008E00000043060000BD0F000063
:1033AC00CE0F0000BD0F00006604000014020000E8
:1033BC007C030000C0010000E5010000DB0B0000F5
:1033CC00F30E00008B0F0000CE0F0000CB0F00009F
:1033DC00CC0F0000060F0000C10C0000D100000053
:1033EC002A0000002B0000002B0000002A00000027
:1033FC002A0000002A000000670100003D0A0000BE
:10340C00120D00007F0C0000BB0C00004F0D0000E3
:10341C00A1030000320200006B0300003405000021
:10342C00B7050000DD090000FF05000033080000AF
:10343C00F70F0000FA0F0000A80100006300000065
:10344C00BE010000FE0F0000F60F0000F40F00009C
:10345C004C0100005F0000005C00000090010000C7
:10346C00A00F0000EB0F0000FA0F00008707000010
:10347C006100000088000000470C0000760F00007F
:10348C0019040000060D000014030000C40B00001A
:10349C00490B0000F8080000C60F00003E0B0000AE
:1034AC00B00000003200000098000000850E000003
:1034BC00320F0000AD0F000021010000CD00000014
:1034CC004A020000C70F0000BA0F0000BB0F00003B
:1034DC00240E0000F80100000E0400007E00000025
:1034EC009900000079050000CF0D0000430E00008C
:1034FC00510F0000C60F0000C50F0000720F000036
:10350C003D0D0000DE000000230000002300000041
:10351C002300000024000000230000002300000012
:10352C006F020000E80A0000CA0C0000690D0000E0
:10353C009F0D0000940D00008A0E0000F6020000A2
:10354C006A0000004A010000BD0200004D050000A9
:10355C00DD040000E2040000CD0C00005F0600005A
:10356C00D8050000BE080000A90E0000380D0000B0
:10357C00370000002C00000087000000210F000025
:10358C00360F0000B30500000701000076000000B4
:10359C0043060000CD0F0000CF0F0000CE0F00003F
:1035AC00FC0400001502000021030000EB010000E8
:1035BC0008020000E60B0000F20E0000930F000062
:1035CC00C00F0000C40F0000CA0F0000240F000041
:1035DC00CE0C00007C0000002A0000002A00000035
:1035EC002D0000002E0000002A0000002A00000020
:1035FC0057010000CF090000320D00007D0C0000C7
:10360C00A60C0000510D0000A203000033020000C4
:10361C006E03000032050000BC050000DD0900004F
:10362C000006000086080000C30F0000F00F000029
:10363C001D0300004E000000D6010000DE0F00004C
:10364C00E20F0000EE0F00001B030000070100005A
:10365C00640000005B000000E90F0000320F000066
:10366C00D70F0000AF020000700000000E02000037
:10367C00D20D0000CD0F0000DC0E00005B0300003B
:10368C00D50B00007F0C0000FA0200009D05000025
:10369C0016050000970A000056050000FA0D000000
:1036AC0049010000FB000000980D0000A90F00006C
:1036BC00D40F0000E60F0000A70200008E010000EE
:1036CC00A903000097010000FC020000B00D0000EF
:1036DC00B60F0000E80F0000E80F0000E80F000034
:1036EC00280F0000C00C00007F0B0000040100003C
:1036FC0048000000470000004700000045000000A3
:10370C004300000029010000B10200003C0400004D
:10371C001A0D0000E50E00008B0F0000BF0F00001B
:10372C00870F00000C0F0000400E0000BD0C0000C5
:10373C00F903000060060000900A00001B05000061
:10374C007C0400008E0B0000230D00001E0C0000FA
:10375C00BD040000A9080000620700005605000027
:10376C000A0500001A0B0000680B00003C05000065
:10377C00630600005C0B0000ED050000FE04000079
:10378C00BE0A00009A0B000036090000520A000025
:10379C009E080000B8090000B106000003060000F6
:1037AC0012090000320700006F090000E609000052
:1037BC001F0A0000560900002207000066060000E0
:1037CC003F09000097060000B909000073090000CA
:1037DC004A060000DF07000074090000550A0000CB
:1037EC00CB0500002A090000BA09000012060000EF
:1037FC00F1090000E6060000BB050000860600008B
:10380C00EE090000C205000079060000AD090000B9
:10381C00BC0500007C090000D30900003E06000036
:10382C00C10900008509000097060000D5070000BB
:10383C008D09000017070000B00B00009604000073
:10384C00310A00003A060000A20700001A0C000022
:10385C00310500008F010000280500005C0100000C
:10386C00C4040000FF050000190A0000DF09000075
:10387C005C0D0000600B00007309000018070000CD
:10388C001D020000C3060000AD030000AE090000DD
:10389C000C030000D9050000CF070000420D00000A
:1038AC00C7080000FF0F0000E00C00009B0B00009D
:1038BC00BD0A0000F60400009F0400009104000003
:1038CC00F5040000EA0700001F0C0000E1050000F1
:1038DC0073040000ED06000063040000440C0000BB
:1038EC001B090000820A00000C0A0000A103000062
:1038FC003D040000AE0A0000C20200009904000062
:10390C00540A0000270500009B090000EE0B000084
:10391C00840A0000F109000029060000CB03000016
:10392C00B7030000E2080000EA050000DD0000001B
:10393C0001060000900A0000EF090000D60D0000FF
:10394C0036080000470C0000BB0200008A0600008D
:10395C00220A0000AE080000EF0A00006404000018
:10396C0033070000870500000C0E0000BE090000A4
:10397C002205000065070000F6020000D3070000D6
:10398C00390B000055090000FE0A0000860C0000EF
:10399C006502000043050000E0090000A8040000D7
:1039AC00F9050000F503000003080000000B0000FF
:1039BC00C40800008B0A0000250A000078030000F0
:1039CC0019050000930400008D0B0000A8050000F1
:1039DC0096070000370900004F030000A302000007
:1039EC000007000024080000660B00007C090000A2
:1039FC005F0C0000D7050000110500002F08000027
:103A0C0039070000270A00007D0800006D0800003F
:103A1C00D40A0000CD020000E6070000A808000050
:103A2C002E050000C40B0000E2050000300400006D
:103A3C00A6040000FF0800009A0A00007E0800009F
:103A4C0082020000C1060000A3050000F10900007D
:103A5C00290700004F0800009B060000D309000056
:103A6C00F0080000AE0600005608000067060000D3
:103A7C00DC08000088080000850A0000940B000098
:103A8C00C5050000D20400008C0B00008E0A00005B
:103A9C0096050000CF0A00006206000067090000CE
:103AAC00A90900002B0B00000E060000C805000041
:103ABC00910A000009060000560A00009C0500004F
:103ACC0024060000670A0000F00500005C0A0000F4
:103ADC0071090000040A000039090000BA05000051
:103AEC00E106000052060000B209000018060000B2
:103AFC006709000041070000D906000051060000CC
:103B0C009E09000096090000B60900008309000018
:103B1C00980900007B090000F6090000BD080000B0
:103B2C006B0600003C090000450900003807000046
:103B3C00500900003109000049070000B4090000D9
:103B4C0003070000F7080000780900007408000063
:103B5C0012070000AD090000880600009A09000059
:103B6C0040090000950700009A0600004D0900006E
:103B7C00ED0700005B090000CA0600009A0900006E
:103B8C00C60600005B0700008A060000380600002D
:103B9C005D060000630900003E070000920700006C
:103BAC009E080000B5090000A70900007C09000070
:103BBC00F5080000350900000A0A0000DC040000CA
:103BCC008C0A00006A070000A10800001009000020
:103BDC008C030000280400007C0B0000820900000C
:103BEC0007040000900A0000C6040000490A000007
:103BFC002F090000EF0300008403000031030000D4
:103C0C002B040000E70300006C040000030B000011
:103C1C00230A0000B00700006403000076040000D3
:103C2C006F030000740600008308000027080000E2
:103C3C00E0080000BB0B000071060000AF0A00009A
:103C4C00B90A00008606000085060000A00B0000E3
:103C5C00110A000015080000CF0A00000907000037
:103C6C006F0500001F0A00001F070000CD060000B2
:103C7C00920900002506000017060000EB06000064
:103C8C00C9090000DD050000F006000088090000ED
:103C9C0064090000160A00001A08000074070000EE
:103CAC00960600004C09000048060000610900005F
:103CBC00BB0600002B070000C506000081070000B2
:103CCC006C050000EB0A0000CE0C0000370500006C
:103CDC00720E00002F0E0000200C00003C0D0000A6
:103CEC00230700006E0500005A07000021040000A5
:103CFC00ED0B0000E80B00007F0E0000AD0B000088
:103D0C00A50C00004E0500005D0500001C0600001F
:103D1C0052070000390C0000960A00000402000053
:103D2C00AC050000E2080000280B00004A09000066
:103D3C005E02000063040000E8070000580B00005E
:103D4C007A0B0000700400003B0500000E07000019
:103D5C00D3050000940A0000740A00003C05000022
:103D6C00470600005A0A00001F060000CA050000A2
:103D7C00D7050000180400007B080000F6060000C0
:103D8C007F08000094060000EB0500005A060000B6
:103D9C00B1030000430A0000690600003D09000061
:103DAC008806000079060000AA06000045070000FE
:103DBC00F106000033050000BF060000F809000002
:103DCC005E0600006F090000590700003F08000064
:103DDC00070A0000F7060000210700000406000097
:103DEC00970600006D070000430A00006E070000F4
:103DFC004A090000FB0500008A0A00007D0600004D
:103E0C00F20A0000470600002108000049090000E2
:103E1C008406000098080000E8050000D0070000A8
:103E2C00A00700009F0A0000B3060000AB0A0000C8
:103E3C008D050000330A00002F0A0000E409000081
:103E4C00F70700003D0B0000A8060000DA0900008F
:103E5C00D30500003F0B000029060000F10700000D
:103E6C00950B00004D05000076090000730600005C
:103E7C00040A0000EA050000EF060000080A000032
:103E8C00950900003B090000900900005909000049
:103E9C005C0600000F070000BE060000DC060000F8
:103EAC00B30800005806000093060000C30600008B
:103EBC004106000035080000ED09000094090000DF
:103ECC00770900004E08000019070000A80900003F
:103EDC00990900008106000033080000AB090000BE
:103EEC00A20600007F09000084080000F80600000C
:103EFC002B080000B30900002E0700003409000055
:103F0C00FC0600008209000051080000290900008D
:103F1C00F10600008B0800003309000015070000B3
:103F2C00780900008E090000350900001209000014
:103F3C00B9070000A609000075090000780600000A
:103F4C00120A0000D7050000FD080000630A0000FB
:103F5C00EB060000790600007D090000F206000067
:103F6C00E809000070060000FA09000028060000AD
:103F7C008A090000DF0900000D060000DB090000C3
:103F8C00DC0600005C09000071080000F806000067
:103F9C00F7050000F9090000820700001A0600006E
:103FAC00B3060000870A0000310700005809000022
:103FBC0030060000370800002D0A0000B009000090
:103FCC00A80500007709000040090000F105000079
:103FDC00F00600005108000013040000C60A00009F
:103FEC0034090000EA0B0000DF0B0000440800005D
:103FFC00B2060000400800000A0A0000FB0800009E
:10400C0067060000C6080000A3080000F00A0000C4
:10401C00D105000071070000FB0600009F0B00009B
:10402C0089070000C9070000B0080000F80800006C
:10403C00F1040000A90800009B0A00008B06000098
:10404C0047090000E3050000260700004E070000AA
:10405C006C05000053060000090B00005E05000013
:10406C00900A0000110A000058050000050B000022
:10407C00610B000031060000CF0A0000FB050000B8
:10408C00800A0000D4090000BD090000D40800001B
:10409C00AD060000830900004E090000F60900007F
:1040AC0030060000B0090000710A0000330900005E
:1040BC00310700004A07000056090000C70900003C
:1040CC009A090000CA0600003306000081060000B1
:1040DC00CC070000D5070000B5070000DF08000082
:1040EC00520900001D090000840900001E0900008F
:1040FC00230700003A0700000F0900009409000094
:10410C0044090000530700000A0600005F07000086
:10411C0030060000220700006C0A00002F07000088
:10412C001508000095050000740A000082040000C8
:10413C00870700008E08000012080000AE05000082
:10414C00BF060000B90A000060090000D10A000097
:10415C003407000060090000820A00007C070000A0
:10416C007E040000E5070000630A0000460400001E
:10417C00500A00004E090000BF07000015060000A1
:10418C006D08000073070000ED050000D30A000065
:10419C001F0B0000FE0700006C090000390A00002C
:1041AC002B0A000096080000FD0500003B0A0000E9
:1041BC00690600006B0900000106000015060000EE
:1041CC007E0B0000C80800004305000079090000C0
:1041DC0094060000550600008A060000C90800007D
:1041EC00F3060000CB050000350600006E09000048
:1041FC00000700007607000031090000A30600004C
:10420C00840A0000AB0900006F050000C80A00001A
:10421C009D060000D80A0000AB060000BC0A000096
:10422C00350A000096050000030A00001A0700007A
:10423C00D60900001B070000AF060000D4060000E2
:10424C00CC090000E6090000110600005908000026
:10425C00D60800008609000062090000C0060000B4
:10426C000607000050090000460900007B09000009
:10427C009B0600006B0700007B090000C8060000CD
:10428C005D09000096060000B1060000FC06000067
:10429C003B090000C8060000060A00001F090000C8
:1042AC00EB0500006E090000FA0B0000CF040000C3
:1042BC009506000006090000CE0B0000670C0000FC
:1042CC00520B0000FB0300003F070000D30A000064
:1042DC002D0B0000CE040000A207000073070000A5
:1042EC00CC0A0000B90B0000D4060000760B0000CD
:1042FC00220C00003B0E0000CC0E0000640E0000EF
:10430C004B0B00007F0C0000F6030000C103000003
:10431C00A4040000370500003C050000CA0B000097
:10432C001F0C0000D10A0000C70A0000E6070000BD
:10433C0046050000120B0000F30A00001A0A0000E8
:10434C006D060000CC040000760A0000BD050000DC
:10435C008E060000750A00009E040000A2040000F6
:10436C00C506000074090000BD050000220900000C
:10437C00D50400001B060000720A00002B09000087
:10438C00EF0500006008000087090000B20800007B
:10439C000C0600001B0900008F08000089090000B2
:1043AC00D30A00005205000034090000FB0800008D
:1043BC006B050000B1080000FF07000004070000B7
:1043CC00C0090000A2090000A40600006F0900004B
:1043DC00170700004409000051090000D106000035
:1043EC00FF060000430700001C0700003208000015
:1043FC0042090000410900007A070000FF09000093
:10440C00B8050000C1090000400A00002E09000098
:10441C004D050000C8070000760B0000200A0000C4
:10442C00FB0800008C060000DF0600009F0A00005D
:10443C004F0A000076050000A50B00001A0B0000C7
:10444C008704000025040000190A000086080000FB
:10445C00C4050000880B0000AB0A00000A0800002D
:10446C00AD060000F508000062080000D60500004B
:10447C00AE0500007A0A00009E06000068090000E4
:10448C00A6080000CE090000750600000209000015
:10449C000C060000AE0800008C0900009D06000010
:1044AC00F10600009B0900004E0700008506000085
:1044BC00440A00000D09000033060000420700000A
:1044CC004A07000043090000D2090000A1060000C1
:1044DC001A090000BE090000F3080000DD05000009
:1044EC008D070000BF0800003C060000EF0700002D
:1044FC00E907000077070000DF06000085080000D0
:10450C00B60B0000740700006D050000FA0B0000EC
:10451C00250900006B060000010700003C060000A6
:10452C00540800001505000043090000B305000005
:10453C00DE0600009A07000089060000D60900007C
:10454C0063070000A80600008D0800002F0600007D
:10455C0007080000EA0800007A080000F9070000CC
:10456C0069080000950A0000470600009D0A00003B
:10457C004906000030090000840500008F0A000085
:10458C00570A0000FC0600009E06000021090000EE
:10459C00480A000081050000EF080000410B0000F4
:1045AC00C10500009A0900004D060000140A000025
:1045BC00750600009206000067090000BD070000A8
:1045CC001A0700009806000067060000A709000003
:1045DC00890900004F09000006090000700700005F
:1045EC0020070000D506000058080000AC090000A8
:1045FC00410A0000170A00006B090000E1090000E5
:10460C009406000000080000530900007706000023
:10461C00D70900005E0700000A090000E908000045
:10462C0043070000A7090000AA0900000C070000BE
:10463C00C809000098060000D8090000E406000034
:10464C00290900004E090000DC0700009507000056
:10465C0090090000DA07000033060000340A00005D
:10466C00B10600006F050000050A00006609000095
:10467C009B0800006A060000160A0000CB0500002B
:10468C00070A0000F6060000C7050000D20A000069
:10469C00EE0500007F060000B1090000E7060000EF
:1046AC00C106000042080000E8090000E505000012
:1046BC0089070000C2080000CF090000190A000099
:1046CC00C0080000F8090000DC0500004F060000DF
:1046DC00AC050000260600002D0A0000930800001F
:1046EC0045050000AC0700004A050000C30C0000A3
:1046FC004A0C000091040000C3060000C50700002E
:10470C002B0C00005107000019030000B804000036
:10471C002004000066090000A70B00009B090000A4
:10472C003C030000B505000091090000420900009F
:10473C00D60A0000050600002809000066060000E5
:10474C00020900001E0A00009E050000C4090000BA
:10475C0041060000E5060000FE0700007A0100009B
:10476C000F0A0000C90C0000CA0D0000FF0F00006A
:10477C00330300002501000078040000400B00000A
:10478C00930E00004F0E0000A4010000D6020000A2
:10479C001A060000F20A0000C50D00001403000008
:1047AC00BB0A0000250C0000600D0000F2030000A5
:1047BC00E0050000F50C000045040000B305000006
:1047CC00F70C000070050000350B0000430B0000D7
:1047DC0006060000C00B0000C7050000FC09000025
:1047EC00C00A0000C6050000F70A00006C0A0000B1
:1047FC00990900008A060000820600002E090000BC
:10480C0008030000960C0000500B00004705000048
:10481C000D0A0000C70C0000C8050000FE0A0000CD
:10482C003F0A0000E90900001B0700001E050000FC
:10483C005C050000790B0000EC0500009A090000F3
:10484C00200500002809000068080000150D000074
:10485C00F003000070090000460B00005205000038
:10486C0050060000250C0000A6080000D70600002A
:10487C005D060000890600000D0700008608000098
:10488C00CF050000F80700006E070000FC0D0000CB
:10489C00F6020000E80B00008F040000BC050000CD
:1048AC00FD0A0000F20A00001C050000A10B00002C
:1048BC00E10B00008906000073080000CE0A00001E
:1048CC008D0600008A090000E0060000450A000081
:1048DC00280A0000CD0400003B060000170A000067
:1048EC00AF0900008B04000012060000090B000049
:1048FC008E060000800A0000C40700000F070000AD
:10490C00860600009208000010090000F507000060
:10491C0042050000900A00000B0B0000380100005B
:10492C00DE030000020500005D0C0000EC0200003C
:10493C00EA0A000076050000D40C000036060000E0
:10494C00A00D0000C40200003C0B0000520200004D
:10495C00BC0A000033050000300500003B0B0000D2
:10496C00410C000071060000AD0300002509000099
:10497C00C0090000160A0000D8080000CB0900008E
:10498C006D06000010060000C80800007108000049
:10499C000F06000059060000BC070000CF060000FF
:1049AC00A2060000420700002E0C0000B701000018
:1049BC00990A0000F30A00001B0400002D0D0000F2
:1049CC00D3050000CA0C000052050000560300007D
:1049DC00E10A0000D3090000630900001006000082
:1049EC004D0900009D090000840A0000C606000065
:1049FC00940600004A070000EF070000BF08000003
:104A0C00270C0000E4020000B7050000740A000047
:104A1C00B40900002E050000020C0000BD030000CC
:104A2C00950800001F0A0000CE060000610A000075
:104A3C00F3050000BD040000AA09000046060000B2
:104A4C00EC060000C60B0000930A0000B40900003D
:104A5C00E40500008D060000210A0000C6060000D7
:104A6C002305000085090000E90800005508000036
:104A7C00CC080000A90A0000BE0B00000D030000CA
:104A8C002805000050060000FC0A0000B20A0000D5
:104A9C00380A0000D2030000120900005C0C000070
:104AAC00B3060000CD090000E9060000690500000E
:104ABC0073090000B70500002D0A000084050000F2
:104ACC00E8060000AE080000520600005C0C000076
:104ADC00170C0000CB03000060040000FD03000075
:104AEC005B040000F803000058050000C208000039
:104AFC008A0500004205000037080000330800005A
:104B0C007000000038070000B60600002F050000FA
:104B1C00D70F0000970C0000ED000000A50400006A
:104B2C001B0700009D0D00001D0F0000D0020000AF
:104B3C00EF010000C5050000480B0000430D00000C
:104B4C008A03000019060000D10D0000CD0A0000F8
:104B5C00F5040000240B0000C90C00003B09000008
:104B6C00190B0000D9040000BB0A0000A7050000C7
:104B7C00060A0000D2050000ED0A00005C060000E9
:104B8C002E0A0000D9090000210600005909000076
:104B9C003B030000EA0B0000AB0A00009306000088
:104BAC00670B0000930C0000D2020000F309000018
:104BBC00390A00009E0B0000680C0000A8040000DD
:104BCC00160A00007D090000AC0400002F0600004E
:104BDC000C0B0000A4060000490A0000260A000085
:104BEC00FF04000035080000B5040000B20D000001
:104BFC00CA0200006F0C0000900300000D090000B9
:104C0C005E040000420C0000CC08000062050000AD
:104C1C0044050000FD0500002F080000160A0000E6
:104C2C003F09000022090000C6060000CE09000062
:104C3C000509000013070000BB0D0000EF02000087
:104C4C0035090000050D000050030000300C000079
:104C5C0079040000640C00008D07000019050000A9
:104C6C009E0A0000710B00006F0B0000D50A0000BB
:104C7C004B06000021090000160600003F0A000048
:104C8C000305000097050000A3090000650900005A
:104C9C00E1080000BD0500006E060000770800006A
:104CAC00E50700000700000042020000C4020000FB
:104CBC00FA0C000009050000830C00003B0C0000FE
:104CCC00810100002E00000006020000660B0000AF
:104CDC006E020000830C0000390A0000C90D0000B0
:104CEC00430C0000F20C0000B10200008202000034
:104CFC001704000041090000FC0B00007E050000B9
:104D0C006C0E00000B0E0000B3030000BD0A000087
:104D1C00020B000014080000560E0000B70B000038
:104D2C00770100004C0400006D060000DB09000058
:104D3C00AE0500009B0100002E090000440B000092
:104D4C00E50B0000710B0000C804000072050000A8
:104D5C00E20B0000BC0B0000D80600007907000035
:104D6C004F0B00002F0C0000590300001706000029
:104D7C00DA04000082090000B7070000D107000028
:104D8C0020050000C30B0000A80B0000A1060000CA
:104D9C00C20B0000C308000036040000130600001C
:104DAC003F090000A30A0000070B0000B80900002F
:104DBC00CB09000050070000ED070000FD090000C2
:104DCC00970A00002A0400008B020000570B000019
:104DDC00AF0C00002705000013050000C008000000
:104DEC00F10D000034060000750D00002D030000CD
:104DFC006A06000072040000E50500009B0B000031
:104E0C00930500008F0C0000170A0000BE0B000079
:104E1C00C4080000EB040000E20800008C0600004F
:104E2C0064060000CC0400007E0400005D06000057
:104E3C00100B0000990B00003D050000BD050000A3
:104E4C0098080000DB070000FA030000570600007A
:104E5C004B0B00007D0300004F0B00001E0B0000ED
:104E6C006D05000037050000AE0400004A09000083
:104E7C00F4030000D10A0000910A0000BA060000F9
:104E8C00D4090000CB07000040060000A507000075
:104E9C00FB080000540900008105000023060000F7
:104EAC00D807000005080000CC030000470B0000E9
:104EBC00C00B0000A00B0000A70E00005102000068
:104ECC00B5060000DF0C0000CF0B0000830B0000C8
:104EDC00BD0300008B040000E40B00004F0B00002E
:104EEC00320C0000620400000E0C00008F0B00005E
:104EFC00410300005E0600000B0A0000AF03000037
:104F0C00150B00005F080000310400007A0B000054
:104F1C00D00900009A0A0000500B00000C08000099
:104F2C000A0A000098060000B5050000350A0000CA
:104F3C005B0A0000810500002E050000C30900007B
:104F4C00FD0800001B070000A4090000CD080000AC
:104F5C00130700007C080000EC080000EF060000BE
:104F6C00EB0700005D020000B00700001F06000008
:104F7C009F0F0000EA0D00005802000078090000A5
:104F8C00260B0000160F0000430E0000C7020000A5
:104F9C00E2050000CC0B00009D0D00007F05000019
:104FAC00FD050000F50D000062050000370600004D
:104FBC00590C0000630500008C050000F20C000089
:104FCC004D090000DE0A00008D050000E00A00001B
:104FDC0063050000120B00003B0A000053050000A3
:104FEC00380A0000C20900008D090000AC0800005E
:104FFC0093050000E803000098050000B70B0000C3
:10500C003F030000A10B0000300D00007C040000E9
:10501C00CA0A0000500500007F0B0000DF050000ED
:10502C00ED030000ED060000C20B0000C8090000F3
:10503C00670900004F0500001A0900001A03000060
:10504C008D0600009C0D0000A702000094060000D5
:10505C00BC0C0000DF020000680A000045040000E0
:10506C00280C0000160600003D050000880B00000F
:10507C000A0A0000630A0000730A0000F30600002D
:10508C00420900008A09000048090000430800009A
:10509C002E080000620D0000CB020000E60A0000A2
:1050AC00480300008906000072040000C80B0000D1
:1050BC0035060000BC0400007A080000B40A0000A9
:1050CC00DC060000790600007308000031060000C1
:1050DC0027060000BE0B000066050000AE070000AE
:1050EC001D0500007C040000DA06000040090000E9
:1050FC00AA050000BB050000160900000B07000004
:10510C00E206000016070000D0080000ED070000C2
:10511C0067010000600B0000F20A00007D01000036
:10512C00AB0A0000E205000097070000090C000024
:10513C001D09000014050000410E00005004000081
:10514C00E60B00008E0300006E090000A00B0000AF
:10515C00E0020000A808000055060000780A0000D4
:10516C001C0C0000160B00006A030000CC0A0000A7
:10517C009E050000EB040000FF090000F20800008F
:10518C00800600000B0600003809000038070000FC
:10519C00EB060000E1080000B2080000BC080000AB
:1051AC003E090000AA080000520C0000D2020000C8
:1051BC00530C000007040000AB0A0000ED040000D3
:1051CC00920C000018040000C20300002A0B00001F
:1051DC00C90A00004A0B0000B50900007B0A000058
:1051EC00630A0000D6050000B1050000BA050000F6
:1051FC0080070000D9070000E3020000F809000056
:10520C00D903000099020000640A0000980A00000B
:10521C0036040000550C00000E0C00003B0400008E
:10522C00690C0000D4010000130900000103000008
:10523C00C4070000470400008B0500008A0400002E
:10524C009F0B000053090000D803000082040000EB
:10525C00020A0000700A000009050000DA040000D0
:10526C00960900004E050000860900002B0800007E
:10527C00130300002B0B00002F0B0000240B00006D
:10528C0067030000E903000095040000B80D00005E
:10529C004E030000460600001D0A000087030000B4
:1052AC00CA0900002B0B0000F10900007105000079
:1052BC00D2090000F0090000B60700003406000017
:1052CC00240A00002A060000D90400005E09000030
:1052DC008D020000FA0C0000CC0300002F0A000025
:1052EC00410A0000DE030000E50B00002A07000065
:1052FC006005000023090000540300007D0B000032
:10530C00EF020000F60B000007070000820400000B
:10531C000F0400004E0B0000500B0000130B00009C
:10532C005D0B0000DD0A0000200500004B050000AD
:10533C00330A0000A0050000210900001E0800002F
:10534C0037030000210B0000E9040000FD0B0000F6
:10535C00910F0000AF0200008F0700006C0B0000E3
:10536C007E0B0000D50E00003A0C000092020000EB
:10537C00710600008D050000AC0D0000C303000099
:10538C00FA0A0000940A0000020E0000C503000097
:10539C00780A0000BE0A0000CA0C00004E0A000089
:1053AC00BE090000340C0000AA0A0000F70500003A
:1053BC00CA040000660A000022060000D4050000A2
:1053CC004D050000450A00004C060000080A0000CC
:1053DC00040A0000290A0000BE060000180600009E
:1053EC00F708000056050000F1050000AB0C0000AA
:1053FC004A0C0000F2040000EE0300001609000045
:10540C00200D000028020000EA040000040A00003D
:10541C00AB050000A5090000800C0000480300004B
:10542C00EA0500008D040000170B00005E0600006A
:10543C00AE060000BA0900002D0700005606000059
:10544C000505000087050000DC060000C908000007
:10545C007D070000D8060000730D00001F0300003C
:10546C0098070000D20C0000C8020000A10900003F
:10547C008E0400000A0A000011040000700A0000EB
:10548C001306000065050000090B0000FD0A000072
:10549C004F0A0000100600007A0900008E07000079
:1054AC002B060000EF06000065090000CD07000088
:1054BC003B090000240E0000850200006F0A00006A
:1054CC0033040000D008000007050000040C0000A5
:1054DC0079060000B60400005E050000A905000076
:1054EC0038070000AC0A00002A0A0000740600000D
:1054FC005A07000000060000330700009D09000059
:10550C0079050000BD06000074070000EE050000E0
:10551C0075080000210800001E04000007040000AC
:10552C002E0B00006D0200001E0300002E06000072
:10553C00550C0000A40D000003030000BE04000085
:10554C00010B0000A00E000017050000E60600008D
:10555C00D40D00007502000011050000E80B0000DE
:10556C00BF0200005B050000E20A0000B30400006B
:10557C00A709000000060000FF0B000088030000D4
:10558C0067090000C9090000420A0000260A000051
:10559C00360600003F0C000076070000B505000041
:1055AC0039060000AA080000D30900001606000006
:1055BC0053080000E8070000C50500009F09000023
:1055CC00AC0B0000AD00000007090000AA0B0000A6
:1055DC004F0C0000C7020000240900000405000065
:1055EC00AF0D0000C5050000FF060000BA0D00005D
:1055FC00E4020000BE090000CE020000A504000079
:10560C004B0A0000D7040000AE090000F5080000AA
:10561C00AA0C0000E40500007F030000430A000010
:10562C00CD0A0000C305000025070000A6040000F9
:10563C00EA040000080700008906000020090000A9
:10564C008C080000770700001C040000E208000032
:10565C00B70B0000E7020000B20A0000AA0B000022
:10566C009E050000DC08000021060000330B000042
:10567C008B050000C10400001E090000EF090000AA
:10568C006A0A0000060900002C070000FE08000052
:10569C002A090000B8090000F5090000AE06000058
:1056AC000D0A000048090000FE080000E107000098
:1056BC003902000087030000740C0000BC0A0000D3
:1056CC00D7020000BE020000560C0000BB0C00000C
:1056DC00230C00000E040000FD050000FC0300007C
:1056EC00F50A000003050000FF0A0000C80B0000CB
:1056FC0073050000DD0A000094030000430600005F
:10570C00D8090000CC0A0000D40900007A0A000075
:10571C0009040000AA0900009F060000EA05000029
:10572C00B5090000DD09000062090000F606000062
:10573C00C608000089080000A206000064060000EC
:10574C00280900009E060000CA060000C4060000DE
:10575C003D0900005808000000000000080000008F
:10576C0010000000180000002000000028000000BD
:10577C00300000003800000040000000480000002D
:10578C00500000005800000060000000680000009D
:10579C00700000007800000080000000880000000D
:1057AC009000000098000000A0000000A80000007D
:1057BC00B0000000B8000000C0000000C8000000ED
:1057CC00D0000000D8000000E0000000E80000005D
:1057DC00F0000000F80000000001000008010000CB
:1057EC001001000018010000200100002801000039
:1057FC0030010000380100004001000048010000A9
:10580C005001000058010000600100006801000018
:10581C007001000078010000800100008801000088
:10582C009001000098010000A0010000A8010000F8
:10583C00B0010000B8010000C0010000C801000068
:10584C00D0010000D8010000E0010000E8010000D8
:10585C00F0010000F8010000000200000802000046
:10586C0010020000180200002002000028020000B4
:10587C003002000038020000400200004802000024
:10588C005002000058020000600200006802000094
:10589C007002000078020000800200008802000004
:1058AC009002000098020000A0020000A802000074
:1058BC00B0020000B8020000C0020000C8020000E4
:1058CC00D0020000D8020000E0020000E802000054
:1058DC00F0020000F80200000003000008030000C2
:1058EC001003000018030000200300002803000030
:1058FC0030030000380300004003000048030000A0
:10590C00500300005803000060030000680300000F
:10591C00700300007803000080030000880300007F
:10592C009003000098030000A0030000A8030000EF
:10593C00B0030000B8030000C0030000C80300005F
:10594C00D0030000D8030000E0030000E8030000CF
:10595C00F0030000F803000000040000080400003D
:10596C0010040000180400002004000028040000AB
:10597C00300400003804000040040000480400001B
:10598C00500400005804000060040000680400008B
:10599C0070040000780400008004000088040000FB
:1059AC009004000098040000A0040000A80400006B
:1059BC00B0040000B8040000C0040000C8040000DB
:1059CC00D0040000D8040000E0040000E80400004B
:1059DC00F0040000F80400000005000008050000B9
:1059EC001005000018050000200500002805000027
:1059FC003005000038050000400500004805000097
:105A0C005005000058050000600500006805000006
:105A1C007005000078050000800500008805000076
:105A2C009005000098050000A0050000A8050000E6
:105A3C00B0050000B8050000C0050000C805000056
:105A4C00D0050000D8050000E0050000E8050000C6
:105A5C00F0050000F8050000000600000806000034
:105A6C0010060000180600002006000028060000A2
:105A7C003006000038060000400600004806000012
:105A8C005006000058060000600600006806000082
:105A9C0070060000780600008006000088060000F2
:105AAC009006000098060000A0060000A806000062
:105ABC00B0060000B8060000C0060000C8060000D2
