:020000040800F2
:1000000000200020C5110008690800086B080008DE
:1000100000000000000000000000000000000000E0
:100020000000000000000000000000006D08000853
:1000300000000000000000006F08000871080008C0
:1000400015120008151200081512000815120008F4
:1000500015120008151200081512000815120008E4
:1000600015120008151200081512000815120008D4
:1000700015120008151200081512000815120008C4
:1000800015120008151200080000000015120008E3
:1000900015120008151200081512000815120008A4
:1000A0001512000815120008151200081512000894
:1000B00015120008000000001512000800000000E2
:1000C00010B5064C2378002B07D1054B002B02D02E
:1000D000044800E000BF0123237010BD1000002081
:1000E0000000000070120008044B10B5002B03D074
:1000F0000349044800E000BF10BDC04600000000F6
:100100001400002070120008002243088B4274D3B0
:1001100003098B425FD3030A8B4244D3030B8B4208
:1001200028D3030C8B420DD3FF22090212BA030C11
:100130008B4202D31212090265D0030B8B4219D3F2
:1001400000E0090AC30B8B4201D3CB03C01A524112
:10015000830B8B4201D38B03C01A5241430B8B425A
:1001600001D34B03C01A5241030B8B4201D30B0343
:10017000C01A5241C30A8B4201D3CB02C01A52416A
:10018000830A8B4201D38B02C01A5241430A8B422D
:1001900001D34B02C01A5241030A8B4201D30B0216
:1001A000C01A5241CDD2C3098B4201D3CB01C01A30
:1001B000524183098B4201D38B01C01A524143093A
:1001C0008B4201D34B01C01A524103098B4201D328
:1001D0000B01C01A5241C3088B4201D3CB00C01A95
:1001E000524183088B4201D38B00C01A524143080D
:1001F0008B4201D34B00C01A5241411A00D2014632
:10020000524110467047FFE701B5002000F006F8A4
:1002100002BDC0460029F7D076E770477047C04658
:10022000002B15D1002A13D1002906DB01DC0028A0
:1002300006D00020C043410802E0802109060020CA
:1002400007B4024801A14018029003BDD1FFFFFF8F
:1002500003B4684601B5029800F034F8019B9E464D
:1002600002B00CBC7047C046F0B5CE469946030CB0
:100270009C46130447461B0C1D000E0061460404F7
:10028000240C80B50700100C4B4365434143604389
:100290002C0CC01824188C46A34203D980235B027F
:1002A0009846C444494679435643230C2D042D0CEB
:1002B0008919634424046019C918C0BCB946B04602
:1002C000F0BDC046F8B5CE46474680B59146984643
:1002D00004000D0000F032F807000E0002000B00D1
:1002E00048464146FFF7C0FF241A8D41089B38005D
:1002F00031001C605D60C0BCB946B046F8BDC04668
:100300001C2101231B04984201D3000C10391B0A45
:10031000984201D3000A08391B09984201D3000909
:10032000043902A2105C40187047C0460403020260
:10033000010101010000000000000000F0B54F467F
:100340004646D646C0B506000F001000190082B020
:10035000002F5DDB34003D00002B0BDB16001F007F
:10036000AB4217D90020002102B0E0BCBA46B1462A
:10037000A846F0BD002746428F41AF42F2D800D1D7
:10038000A0E001235B42994609E0002746428F41E5
:10039000AF42E7D8AF4200D190E000239946390040
:1003A000300000F0B7F880462900200000F0B2F8D5
:1003B00043461B1A9846203B75D4310099409A4613
:1003C0000B003100404681400A00AB422ED82BD0B2
:1003D0005146A41A9D41002900DA90E00021002036
:1003E00001260090019151468E400196414601261A
:1003F0008E404146009600291FD1009801994B4636
:10040000002BB1D003000C0000215842A141ABE702
:1004100000257442BD41002BB7DB16001F00AB4224
:10042000A0D8AF42ADD14DE0A142D1D900210020EA
:100430000090019141460029DFD0D90756085F0896
:100440000E4343460EE0AF4201D1A6420CD8A41B96
:10045000BD41012124196D410022013B6418554121
:10046000002B06D0AF42EED9013B24196D41002B81
:10047000F8D1009A019B514612196B41002925DBE6
:100480002E002C00CE404146CC40514600292DDBA9
:1004900034008C4021004446A6403000121A8B41A3
:1004A00000920193A9E7424638009A462023310082
:1004B00090409B1AD94003000B4382E7A64200D923
:1004C00050E76AE7A64200D85BE74BE740462021A9
:1004D000091A28008840260001004046C6402C002A
:1004E0000E434146CC4051460029D1DA40462021F6
:1004F00035008440091ACD4021002943CBE741460D
:1005000020260127761A00200021F7400090019153
:1005100001976BE710B5002903D1FFF7F1FE2030FA
:1005200002E00800FFF7ECFE10BDC04610B588B031
:100530001422002103A800F06EFE174B5A69802197
:10054000C9030A435A615A690A400092009A5A69DB
:100550008021C9020A435A615A690A400192019AEC
:100560005A69802189020A435A615B690B400293F0
:10057000029B0A4C0022FF21200000F0C7FDFF2350
:100580000393FE3B049300230593069303A92000E5
:1005900000F0F8FC08B010BD001002400004004854
:1005A000F0B5DE4657464E464546E0B591B0934617
:1005B0000024002200230C920D930B900E9170E00A
:1005C000A41A9D41029A039BA4185D41009A019BC5
:1005D00048464146FFF748FE424A0023FFF720FE07
:1005E000069E079F36184F410096019701239C46AF
:1005F000E244A146A846DA4524DA4A46434648463C
:100600004146FFF731FE384A0023FFF709FE040098
:100610000D00009A019B10001900FFF725FE324AD9
:100620000023FFF7FDFD02000B00200029008018C9
:10063000594104900591002904DCC1D12B4904984B
:100640008842BDD953460893DB1709930C9B0D9C38
:100650000899099A5B1854410C930D940A9B013335
:100660000A930A9B0B9A934219DA0A98C117204AF7
:100670000023FFF7F9FD0B9AD317FFF7D1FD1D4AB1
:1006800001235B42801859410290039100239A464E
:10069000002600279946984600960197ABE70F9CE5
:1006A00001340E9B9C4214DAE117134A0023200008
:1006B000FFF7DAFD0E9AD317FFF7B2FD0F4A0123B9
:1006C0005B42801859410690079100260F940A96C4
:1006D000C7E70C980D9911B0F0BCBB46B246A946CD
:1006E000A046F0BD20A1070040420F0000093D00D8
:1006F000E067350060DAD9FF80841E00C0BDF0FFDE
:1007000072B6FEE700B591B03022002104A800F0D7
:1007100082FD10220021684600F07DFD0223049333
:10072000012207920F3208920C93A0239B030E9391
:1007300004A800F0B9F800280ED107230093053B68
:1007400001930023029303930121684600F024FBE8
:10075000002803D111B000BDFFF7D2FFFFF7D0FF93
:10076000F8B5CE46474680B500F0D8FBFFF7CAFF84
:10077000FFF7DCFE5FE0334BAA00D758324BB400E2
:10078000E358994600F0E6FB304B984618604A461D
:1007900039003800FFF704FF02000B002C4F3A60CD
:1007A0007B6000F0D7FB2B4B18601B684246126839
:1007B0009B1A294803603A687B682849A419641980
:1007C000E700C9190A604B600268254BA400E2509B
:1007D000244C01220221200000F098FC642000F04B
:1007E000BFFB00220221200000F090FC0135042D07
:1007F000C1DD1C4C01220421200000F087FC642094
:1008000000F0AEFB00220421200000F07FFC013646
:10081000042E01DC0025EAE7124C01220821200009
:1008200000F074FCFA20C00000F09AFB00220921BD
:10083000200000F06BFC012201210A4800F066FC58
:100840000026E5E79C1200088812000868010020D5
:100850005801002064010020600100209000002069
:100860002C00002000040048FEE7FEE770477047B8
:1008700010B500F063FB10BD82B00A4B99690122EC
:100880001143996199690A400092009ADA698021BE
:1008900049050A43DA61DB690B400193019B02B011
:1008A0007047C0460010024070B582B0041E00D1EF
:1008B0002EE20368DB0726D5AE4B5A680C231340A3
:1008C000042B18D0AB4B5A680C231340082B0ED0C6
:1008D0006368012B3CD0002B51D1A64B1A68A64966
:1008E0000A401A601A68A5490A401A6036E0A14B0E
:1008F0005B68DB03ECD59F4B1B689B0303D56368E8
:10090000002B00D107E223689B0772D5994B5B68E7
:100910000C221A425DD0974B5A680C231340082BC7
:1009200053D0E368002B00D185E0924A136801217F
:100930000B43136000F00EFB05008E4B1B689B07FA
:1009400070D400F007FB401B0228F6D90320E0E139
:10095000884A116880235B020B4313606368002B95
:1009600025D000F0F7FA0500824B1B689B03CAD420
:1009700000F0F0FA401B6428F6D90320C9E1052BEA
:1009800009D07C4B1A687C490A401A601A687B4976
:100990000A401A60E2E7774B19688022D2020A43C4
:1009A0001A601968802252020A431A60D6E700F0E2
:1009B000D1FA05006F4B1B689B03A4D500F0CAFA5F
:1009C000401B6428F6D90320A3E16A4B5B68DB0374
:1009D000A7D4684B1B689B0703D5E368012B00D0A5
:1009E0009BE164490B68F82293432269D2001343C8
:1009F0000B6023681B0744D5E369002B2ED05D4AAA
:100A0000536A01210B43536200F0A4FA0500594BCD
:100A10005B6A9B0735D400F09DFA401B0228F6D98B
:100A2000032076E153490B68F82293432269D200F0
:100A300013430B60DDE74F4A136801218B431360BA
:100A400000F088FA05004B4B1B689B07D1D500F0DE
:100A500081FA401B0228F6D903205AE1454A536A1D
:100A600001218B43536200F075FA0500414B5B6A2C
:100A70009B0706D500F06EFA401B0228F6D903202A
:100A800047E123685B0700D480E03A4BDB69DB0079
:100A90001DD4384BDA69802149050A43DA61DB69E4
:100AA0000B400193019B0125354B1B68DB0510D5DD
:100AB000A368012B21D0002B36D12E4B1A6A0121BD
:100AC0008A431A621A6A03318A431A621AE00025BD
:100AD000EAE72B4A116880235B000B43136000F0A8
:100AE00039FA0600264B1B68DB05E1D400F032FA28
:100AF000801B6428F6D903200BE11E4A136A0121EA
:100B00000B431362A368002B24D000F023FA0600E5
:100B1000184B1B6A9B0737D400F01CFA801B194B3B
:100B20009842F5D90320F4E0052B09D0114B1A6A3D
:100B300001218A431A621A6A03318A431A62E1E781
:100B40000C4B1A6A04210A431A621A6A03390A43CF
:100B50001A62D7E700F0FEF90600064B1B6A9B07F6
:100B600012D500F0F7F9801B064B9842F5D9032007
:100B7000CFE0C04600100240FFFFFEFFFFFFFBFF7B
:100B80000070004088130000012D33D02368DB067D
:100B900010D56369012B33D0053351D1654A536BAE
:100BA00004218B435363536BF4318B43A169C90018
:100BB0000B435363236A002B00D1B0E05D4A5168B8
:100BC0000C220A40082A00D18AE0022B4FD0594A51
:100BD000136859490B40136000F0BCF90400554BF1
:100BE0001B689B017AD500F0B5F9001B0228F6D9E5
:100BF00003208EE04F4AD36950490B40D361C5E7CB
:100C00004C4B5A6B04210A435A635A6B03390A430B
:100C10005A6300F09FF90500464B5B6B9B0706D4B7
:100C200000F098F9401B0228F6D9032071E04149F1
:100C30004B6BF8229343A269D20013434B63B9E78D
:100C40003C4B5A6B04210A435A635A6B03398A435B
:100C50005A6300F07FF90500364B5B6B9B07A9D503
:100C600000F078F9401B0228F6D9032051E0314A00
:100C7000136831490B40136000F06CF905002D4BEF
:100C80001B689B0106D500F065F9401B0228F6D9C8
:100C900003203EE0274BDA6A0F218A43E16A0A43C8
:100CA000DA625A6826490A40A16A606A01430A4327
:100CB0005A601968802252040A431A6000F04AF907
:100CC00004001C4B1B689B0106D400F043F9001B79
:100CD0000228F6D903201CE000201AE0002018E0CA
:100CE000012B1ED0134B5A68D86A80235B02134035
:100CF000616A8B4217D10F230340E16A8B4214D102
:100D0000F0239B031A40A36A9A4210D1002000E00E
:100D1000012002B070BD0120FBE70120F9E70020AF
:100D2000F7E70120F5E70120F3E70120F1E70120D3
:100D3000EFE7C04600100240FFFFFFFEFFFFFFEF9E
:100D4000FFFFC2FF10B5104B5A680C231340082B4D
:100D500001D00E4810BD910C073319400C48445C7B
:100D60000949C96A0B400B49C95CD20304D507483D
:100D7000FFF7CAF96043EDE76201121B93019B1A6A
:100D8000DB001B191802E5E70010024000127A0090
:100D9000C0120008B012000870B504000D00002851
:100DA00000D17EE0434B1A68012313408B420AD2E4
:100DB00040490B68012293432B430B600B681A4098
:100DC000AA4200D06FE023689A070ED55B0705D5CD
:100DD000394A5168E023DB000B435360364A5368BD
:100DE000F0218B43A1680B4353602368DB072DD5AB
:100DF0006368012B1ED0022B22D02F4A1268920763
:100E000053D52D494A680320824313434B6000F0B9
:100E1000A1F80600284B5B680C221A4063689B000F
:100E20009A4213D000F096F8801B244B9842F1D9D7
:100E3000032035E0204A12689203E2D401202FE01B
:100E40001D4A12689201DCD4012029E0194B1A686E
:100E500001231340AB4209D916490B680122934381
:100E60002B430B600B681A40AA4220D123685B0712
:100E700006D5114A536812490B40E1680B43536091
:100E8000FFF760FF0C4B5A6812090F2313400D4AFD
:100E9000D35CD8400C4B1860032000F017F80020FA
:100EA00070BD0120FCE70120FAE70120F8E70120EE
:100EB000F6E7C04600200240001002408813000000
:100EC000FFF8FFFFD01200080800002010B5040052
:100ED0000F4B1978FA208000FFF716F901000D4B2F
:100EE0001868FFF711F900F067F900280DD1032CFD
:100EF00001D901200AE0013000222100404200F027
:100F000057F9054B1C60002000E0012010BDC046D1
:100F100000000020080000200400002010B5064A50
:100F2000136810210B4313600320FFF7CFFFFFF777
:100F3000A3FC002010BDC04600200240034A1168F7
:100F4000034B1B785B1813607047C0466C01002090
:100F500000000020014B18687047C0466C0100205B
:100F600070B50400FFF7F6FF0500631C02D0044BC8
:100F70001B78E418FFF7EEFF401BA042FAD370BDC8
:100F800000000020F0B583B0002356E086685F00C3
:100F90000324BC40A643CC68BC403443846044680E
:100FA00094434E683609012232409A4022434260FF
:100FB00053E0DE080836B600375805321A40920072
:100FC0000F249440A7430C69944022003A433250C6
:100FD00056E0032600E00026A64034003C430232DF
:100FE0009200444E9451444A9768EA433E00AE430F
:100FF0004C68E40201D53E002E433F4CA660E768F2
:101000003E0016404C68A40201D53E002E433A4CE7
:10101000E66067683E0016404C68A40301D53E00B8
:101020002E43354C6660266832404C68E40301D597
:101030002A003243304C226001330C682200DA402F
:1010400056D001229A40250015401442F4D04E6833
:1010500003243440013C012C98D94C6803222240DF
:10106000032A08D0C4685E000322B24094438A6811
:10107000B2402243C2604C6803222240022A98D028
:1010800004685E0003221700B740BC434F683A4033
:10109000B240224302604C68C02292021442CBD07C
:1010A000164CA66901221643A661A469224001924A
:1010B000019A9A08941CA4000E4EA75903241C40C0
:1010C000A4000F26A640B7439026F605B04282D072
:1010D0000B4EB04208D00B4EB04207D00A4EB04281
:1010E00000D176E7052677E7012675E7022673E744
:1010F00003B0F0BD000001400004014000100240B8
:101100000004004800080048000C0048002A01D0F4
:10111000816170478162FCE770B5002811DB8308AC
:10112000134DC0339B005C5903221040C000FC32B9
:1011300016008640B44389010A40824022435A5136
:1011400070BD0F230340083B9B0806339B00094AF0
:10115000944663445C6803221040C000FC321500D2
:101160008540AC4389010A40824022435A60E7E748
:1011700000E100E000ED00E0013880235B049842CC
:101180000FD2094A50600948036A1B021B0AC0219A
:1011900009060B43036200239360073313600020AA
:1011A00070470120FCE7C04610E000E000ED00E0E1
:1011B00010B5FFF7B1FF10BD10B5FFF7DDFF10BD93
:1011C000704700000D488546FFF7FAFF0C480D49AF
:1011D0000D4A002302E0D458C4500433C4188C4292
:1011E000F9D30A4A0A4C002301E013600432A242F8
:1011F000FBD300F019F8FFF7B3FAFEE70020002058
:10120000000000200C000020F01200081000002058
:1012100070010020FEE703008218934200D170475E
:1012200019700133F9E7000070B500260C4C0D4D24
:10123000641BA410A64209D1002600F019F80A4C3C
:101240000A4D641BA410A64205D170BDB300EB5833
:1012500098470136EEE7B300EB5898470136F2E7BE
:10126000E8120008E8120008EC120008E812000872
:10127000F8B5C046F8BC08BC9E467047F8B5C046F5
:08128000F8BC08BC9E46704753
:1012880064000000FA000000F4010000EE02000013
:10129800E803000080000000A0000000C00000007B
:1012A800E000000000010000010203040506070831
:1012B800090A0B0C0D0E0F10020304050607080996
:1012C8000A0B0C0D0E0F10100000000000000000AB
:0812D8000102030406070809E6
:0812E0005CF0FF7F010000003B
:0412E800E900000811
:0412EC00C100000835
:0C12F000010000000400000000127A0061
:04000005080011C519
:00000001FF
