:020000040800F2
:1000000000200020A5100008650B0008670B000801
:1000100000000000000000000000000000000000E0
:10002000000000000000000000000000690B000854
:1000300000000000000000006B0B00086D0B0008C2
:10004000F5100008F5100008F5100008F51000087C
:10005000F5100008F5100008F5100008F51000086C
:10006000F5100008F5100008F5100008F51000085C
:10007000F5100008F5100008F5100008F51000084C
:10008000F5100008F510000800000000F510000849
:10009000F5100008ED050008F5100008F51000083F
:1000A000F5100008F5100008F5100008F51000081C
:1000B000F510000800000000F51000080000000026
:1000C00010B5064C2378002B07D1054B002B02D02E
:1000D000044800E000BF0123237010BD6800002029
:1000E00000000000BC210008044B10B5002B03D019
:1000F0000349044800E000BF10BDC04600000000F6
:100100006C000020BC21000803B47146490840007F
:100110004900095E49008E4403BC70470022430831
:100120008B4274D303098B425FD3030A8B4244D3BF
:10013000030B8B4228D3030C8B420DD3FF22090201
:1001400012BA030C8B4202D31212090265D0030BC0
:100150008B4219D300E0090AC30B8B4201D3CB03B6
:10016000C01A5241830B8B4201D38B03C01A5241F8
:10017000430B8B4201D34B03C01A5241030B8B42FA
:1001800001D30B03C01A5241C30A8B4201D3CB02E5
:10019000C01A5241830A8B4201D38B02C01A5241CA
:1001A000430A8B4201D34B02C01A5241030A8B42CD
:1001B00001D30B02C01A5241CDD2C3098B4201D3E5
:1001C000CB01C01A524183098B4201D38B01C01A63
:1001D000524143098B4201D34B01C01A52410309DA
:1001E0008B4201D30B01C01A5241C3088B4201D389
:1001F000CB00C01A524183088B4201D38B00C01A36
:10020000524143088B4201D34B00C01A5241411A5C
:1002100000D20146524110467047FFE701B5002069
:1002200000F0F0F802BDC0460029F7D076E770472D
:1002300003460B437FD4002243088B4274D3030947
:100240008B425FD3030A8B4244D3030B8B4228D3E8
:10025000030C8B420DD3FF22090212BA030C8B420E
:1002600002D31212090265D0030B8B4219D300E0AE
:10027000090AC30B8B4201D3CB03C01A5241830B33
:100280008B4201D38B03C01A5241430B8B4201D3E3
:100290004B03C01A5241030B8B4201D30B03C01A0C
:1002A0005241C30A8B4201D3CB02C01A5241830A86
:1002B0008B4201D38B02C01A5241430A8B4201D3B5
:1002C0004B02C01A5241030A8B4201D30B02C01ADF
:1002D0005241CDD2C3098B4201D3CB01C01A524146
:1002E00083098B4201D38B01C01A524143098B42CF
:1002F00001D34B01C01A524103098B4201D30B01B8
:10030000C01A5241C3088B4201D3CB00C01A5241DC
:1003100083088B4201D38B00C01A524143088B42A1
:1003200001D34B00C01A5241411A00D2014652413A
:10033000104670475DE0CA0F00D04942031000D359
:100340004042534000229C4603098B422DD3030AAE
:100350008B4212D3FC22890112BA030A8B420CD3BE
:10036000890192118B4208D3890192118B4204D3E7
:1003700089013AD0921100E08909C3098B4201D367
:10038000CB01C01A524183098B4201D38B01C01AA1
:10039000524143098B4201D34B01C01A5241030918
:1003A0008B4201D30B01C01A5241C3088B4201D3C7
:1003B000CB00C01A524183088B4201D38B00C01A74
:1003C0005241D9D243088B4201D34B00C01A52414B
:1003D000411A00D20146634652415B10104601D3D8
:1003E0004042002B00D54942704763465B1000D362
:1003F000404201B5002000F005F802BD0029F8D008
:1004000016E770477047C046F0B5CE469946030CD4
:100410009C46130447461B0C1D000E006146040455
:10042000240C80B50700100C4B43654341436043E7
:100430002C0CC01824188C46A34203D980235B02DD
:100440009846C444494679435643230C2D042D0C49
:100450008919634424046019C918C0BCB946B04660
:10046000F0BDC046F0B5DE4657464E464546E0B5BF
:100470008BB01822002104A800F08CFF594B5A6958
:100480008021C9030A435A615A690A400392039AB8
:100490005A69802189020A435A615A690A400292C4
:1004A000029A5A698021C9020A435A615B690B406A
:1004B0000193019B4C4D0126AE6202239A46AB622A
:1004C00002339946AB6204339846AB6208339B46CD
:1004D000AB621033AB624022AA628021A96204960B
:1004E00008969027FF0504A80100380000F043FBA0
:1004F0005046049000240594089604A80100380092
:1005000000F039FB484604900594089604A80100C1
:10051000380000F030FB404604900594089604A88B
:100520000100380000F027FB049605960694079416
:10053000089404A80100280000F01DFB5046049018
:10054000059606940794089404A80100280000F07A
:1005500012FB48460490059606940794089404A854
:100560000100280000F007FB404604900596069421
:100570000794089404A80100280000F0FCFA5846EB
:100580000490059606940794089404A80100280096
:1005900000F0F1FA2023049305960694079408943A
:1005A00004AB1900280000F0E6FA402204920596F8
:1005B00006940794089404AB1900280000F0DBFAB5
:1005C00080210491059606940794089404A92800B4
:1005D00000F0D1FA0BB0F0BCBB46B246A946A0462B
:1005E000F0BDC046001002400004004870B5CD4880
:1005F00000F0FFFB90200221C00500F0B1FB0028B5
:1006000075D090200421C00500F0AAFB002800D17D
:10061000A3E090200821C00500F0A2FB002800D133
:10062000D0E0C14B1B78002B18D0C04B1B68072BA8
:1006300004DCBF4A1278002A00D1F5E0BC4A1278E7
:10064000002A00D009E1B94B1B68072B00DC1DE133
:10065000B64B06221A60B64B053A1A70B54B1B789A
:10066000002B1CD0B14B1B68072B04DCB04A12785E
:10067000002A00D114E1AE4A1278002A00D027E106
:10068000AA4B1B68002B00DA45E1A84B1B68072B1F
:1006900005DDA64B06221A60A54B053A1A70A64B3B
:1006A0001B78002B00D176E1A44B1B78002B00D1E6
:1006B0004EE1012B00D16FE1022B00D06BE1A04B8A
:1006C0001B78002B00D173E19D4A013B13709D4BB9
:1006D0005B69FF221A4200D05DE19B4A0023137040
:1006E0009A4A1370964A1370944A137053E18E4BD2
:1006F00001221A708F4A002313708F4A13708B4A9D
:1007000013608B4A13708F4C00220121200000F0EF
:100710002EFB00220221200000F029FB00220421F0
:10072000200000F024FB00220821200000F01FFB25
:1007300000221021200000F01AFB002220212000BE
:1007400000F015FB00224021200000F010FB0022E9
:100750008021200000F00BFB53E7734A0023137045
:10076000744A01211170744A1370704A1360704A00
:100770001370744C0122200000F0F9FA01220221CA
:10078000200000F0F4FA01220421200000F0EFFA2A
:1007900001220821200000F0EAFA012210212000A5
:1007A00000F0E5FA01222021200000F0E0FA012209
:1007B0004021200000F0DBFA01228021200000F01F
:1007C000D6FA26E7584B00221A705A4B1A705A4B29
:1007D00001321A705B4C00220121200000F0C7FAA0
:1007E00000220221200000F0C2FA00220421200091
:1007F00000F0BDFA00220821200000F0B8FA002223
:100800001021200000F0B3FA00222021200000F087
:10081000AEFA00224021200000F0A9FA0022802137
:10082000200000F0A4FAFCE60121994089B20132CF
:10083000444800F09CFA3D4B1B68002B04DC3B4A0B
:10084000136801331360FEE6013B0121994089B230
:1008500000223C4800F08BFAF1E70121994089B26F
:100860000122384800F083FA304B1B68062B04DD68
:100870002E4A1368013B1360E5E6013301219940DC
:1008800089B200222F4800F072FAF1E7002B00DB5A
:10089000E4E6274B00221A70244B01321A60DDE691
:1008A0000121994089B2274800F061FA1F4B1B686B
:1008B000002B04DC1D4A136801331360E0E6013BA2
:1008C0000121994089B201221E4800F050FAF1E757
:1008D00001242100994089B21A4E0022300000F014
:1008E00046FA124D2B6801339C40A1B20122300020
:1008F00000F03DFA2B68062B04DD0C4A1368013B1F
:100900001360BDE601330121994089B20122300014
:1009100000F02DFAF1E7064B00221A70034B01326A
:100920001A60B2E6940000208F00002088000020AA
:100930008C0000208E0000208D0000208700002009
:10094000840000200004004886000020850000206C
:1009500000F0D2FBC3171B0EC018FF221040C31AB1
:100960002C490B701A402C4B5A6100F0C5FB2B49E7
:10097000FFF744FD64310800294B1B68D96AFFF773
:10098000CDFBC0B2274B1870002801D101221A708C
:10099000254B01221A7070BD224B1B78002B03D00F
:1009A000204A013B1370F6E71F4B02221A70F2E750
:1009B00000F0A2FBC217520F8018072303409B1AB6
:1009C000FF221A40134B1B781341DB07F0D501249B
:1009D0009440A1B20022104800F0C9F9E44364B287
:1009E0000C4B1A7814401C7000F086FB6521FFF751
:1009F00005FD08000A4B1B68D96AFFF78FFBC0B2E0
:100A00000A4B1870002800D061E6084B01221A70CA
:100A10005DE6C0468600002000040048790500001D
:100A20009400002085000020870000208400002022
:100A300072B6FEE710B50C480C4B03600C4B4360DC
:100A4000002383600B4AC26003614361803383618A
:100A500000F0C6FA002804D1074B802292031A60E6
:100A600010BDFFF7E5FFC0469400002000440140A0
:100A70003F1F0000E703000000E100E010B51A4A44
:100A8000136801218B431360174B1B68DB07FBD4F2
:100A9000164A136801210B431360144B1B689B0714
:100AA000FBD5124B1A68F8218A4378390A431A6039
:100AB0005A6870318A435A605A680D490A405A6030
:100AC0005A6803218A435A60084B5B680C221A4219
:100AD000FAD1084800F0E0FA032000F0A9F8002855
:100AE00000D110BDFFF7A4FF00200240001002401B
:100AF000FFF8FFFF00127A0010B500F0C1F8FFF711
:100B0000BDFFFFF7AFFCFFF795FF134800F036F984
:100B100003E0124B1B78002B0AD190200121C00565
:100B200000F01EF90028F4D10C4B01221A70F0E7F6
:100B3000094B1B68D96A0A4A914207D0084ADA620F
:100B4000054BDA60054B00221A70E6E7F422FF320B
:100B5000DA62014BDA60F5E7940000209000002093
:100B6000E7030000FEE7FEE77047704710B500F0AE
:100B700097F810BD7047F0B5002216E00B699C464F
:100B8000C4682B006B435E00F618F743B443664617
:100B90005E433443C4604C68022C26D04D68046820
:100BA0003C406B432343036001320C682300D34075
:100BB0003BD00123934025001D401C42F4D04B68DC
:100BC000013B012BDAD88F6883682C006C436600E8
:100BD0003619B3437C43234383600E68CC68436873
:100BE000B343744323434360C8E7FF2D0DD84C69DA
:100BF000A446066A1C006C436C4325012D1BAE43C2
:100C000065466C4334430462C8E74C69A446466AAF
:100C10002D0A2C006C436C436C4325012D1BAE4305
:100C200065466C4334434462B8E70020F0BD0000E1
:100C300010B504000F4B1978FA208000FFF76EFA08
:100C400001000D4B1868FFF769FA00F085F80028DD
:100C50000DD1032C01D901200AE00130002221002E
:100C6000404200F075F8054B1C60002000E00120B8
:100C700010BDC04604000020000000200800002035
:100C800010B5064A136810210B4313600320FFF7C9
:100C9000CFFF00F0D3F9002010BDC0460020024075
:100CA000034A1168034B1B785B1813607047C046FA
:100CB000DC0000200400002070B5002811DB830850
:100CC000134DC0339B005C5903221040C000FC321E
:100CD00016008640B44389010A40824022435A519B
:100CE00070BD0F230340083B9B0806339B00094A55
:100CF000944663445C6803221040C000FC32150037
:100D00008540AC4389010A40824022435A60E7E7AC
:100D100000E100E000ED00E0013880235B04984230
:100D20000FD2094A50600948036A1B021B0AC021FE
:100D300009060B430362002393600733136000200E
:100D400070470120FCE7C04610E000E000ED00E045
:100D500010B5FFF7B1FF10BD10B5FFF7DDFF10BDF7
:100D600003690B4201D0012070470020FCE7002AF4
:100D700001D0816170478162FCE700003D23C35CC4
:100D8000012B26D13C330222C2540268D3680121D0
:100D90000B43D3600368114A93420FD08022D205DF
:100DA00093420BD00E4A934208D00E4A934205D08C
:100DB0001A6801210A431A6000200BE09968072293
:100DC0000A40062A07D01A6801210A431A60002047
:100DD00000E0012070470020FCE7C046002C0140E5
:100DE0000004004000400140704770477047704762
:100DF000704770B504000368DE681D69AA070ED548
:100E0000B2070CD5032252421A610123037703680B
:100E10009B699B0751D0FFF7E9FF002323776B07FE
:100E200012D5730710D52368052252421A61022396
:100E3000237723689A69C0239B001A4243D020007D
:100E4000FFF7D4FF002323772B0710D533070ED5E8
:100E50002368092252421A61042323772368DB693D
:100E60009B0737D02000FFF7C1FF00232377EB0655
:100E700012D5F30610D52368112252421A610823B5
:100E800023772368DA69C0239B001A4229D0200007
:100E9000FFF7ACFF00232377EB0701D5F30727D437
:100EA0002B0601D533062BD46B0601D573062FD440
:100EB000AD0601D5B60633D470BDFFF796FF20000E
:100EC000FFF795FFA9E72000FFF78FFF2000FFF74E
:100ED0008EFFB7E72000FFF788FF2000FFF787FFAE
:100EE000C3E72000FFF781FF2000FFF780FFD1E775
:100EF0002368022252421A612000FFF775FFCFE7F4
:100F00002368812252421A61200000F096F8CBE754
:100F10002368412252421A612000FFF769FFC7E7A8
:100F20002368212252421A61200000F085F8C3E7AD
:100F30000368244A904206D08022D205904202D013
:100F4000214A904203D1702293434A6813431D4AB9
:100F5000904212D08022D20590420ED01A4A90427E
:100F60000BD01A4A904208D0194A904205D0194A2B
:100F7000904202D0184A904203D1184A1A40CB68D6
:100F80001343802293434A69134303608B68C3620F
:100F90000B6883620B4B984208D00D4B984205D0EA
:100FA0000C4B984202D00C4B984201D10B69036361
:100FB000012343610269134203D003690122934371
:100FC00003617047002C01400004004000200040F5
:100FD000004001400044014000480140FFFCFFFF89
:100FE00070B5041E26D03D23C35C002B1CD03D25CC
:100FF00002236355210001C9FFF79AFF012346220E
:10100000A354083AA3540132A3540132A354013229
:10101000A3540132A3540132A3540132A354013228
:10102000A3546355002070BD3C330022C25400F02D
:101030001DF8DCE70120F6E77047704782B00A4BE5
:10104000996901221143996199690A400092009AB5
:10105000DA69802149050A43DA61DB690B400193B3
:10106000019B02B07047C0460010024082B0026887
:10107000074B9A4201D002B07047064B9A69802113
:1010800089020A439A619B690B400193019BF2E735
:101090000044014000100240014B18607047C046F8
:1010A000000000200D488546FFF764FD0C480D49FF
:1010B0000D4A002302E0D458C4500433C4188C42B3
:1010C000F9D30A4A0A4C002301E013600432A24219
:1010D000FBD300F0B5F9FFF70FFDFEE7002000207D
:1010E0000000002068000020BC22000868000020EA
:1010F00030020020FEE70000164B10B51C68236B81
:10110000002B16D1182000F02BFA021E206304D108
:101110005221114B114800F0BBF9114B0021036023
:10112000104B4360104B83600B23838101201061BF
:101130005161246B0D4A206961690D4BFFF764F919
:101140000122002380185941206161614800400854
:1011500010BDC04618000020D4210008EB21000873
:101160000E33CDAB34126DE6ECDE05002D7F954CD1
:101170002DF45158002310B50400036043608360D0
:1011800081814366C2810361436183611900082242
:101190005C3000F0FFF80B4B246263620A4BA362E1
:1011A0000A4BE3620A4B23630A4B9C4205D00A4B6D
:1011B0009C4202D0094B9C4203D12000583000F0E1
:1011C00063F910BDFD120008251300085D13000827
:1011D00089130008E000002048010020B001002031
:1011E00010B5034A0349044800F06CF810BDC0462E
:1011F0000C000020E51700081C00002041680B4B84
:1012000010B50400994201D000F0ECFAA168084B37
:10121000994202D0200000F0E5FAE168054B9942BE
:1012200002D0200000F0DEFA10BDC046E000002031
:1012300048010020B001002010B5094B094A0421E3
:101240001A6009480022FFF795FF0122092107488B
:10125000FFF790FF022212210548FFF78BFF10BD18
:1012600018020020E1110008E000002048010020E1
:10127000B001002010B5024800F007F910BDC046CB
:101280002102002010B5024800F000F910BDC04650
:101290002102002010B50400FFF7ECFF236A002BA9
:1012A00002D0FFF7EFFF10BD044B2362044B1B6815
:1012B000002BF6D1FFF7C0FFF3E7C046FD11000891
:1012C00018020020F7B51400002600900191A568CF
:1012D0006768013F04D52468002CF8D13000FEBDBA
:1012E000AB89012B08D90E22AB5E013304D0290053
:1012F0000098019B984706436835EAE770B50C00F3
:101300000E25495F00F074F8002803DB636D1B189D
:10131000636570BDA389024A1340A381F9E7C04603
:10132000FFEFFFFFF8B51F008B8905000C001600CA
:10133000DB0505D50E23C95E0022022300F044F828
:10134000A389054A28001340A38132000E23E15EE1
:101350003B0000F061F8F8BDFFEFFFFF70B50C0037
:101360000E25495F00F030F8A389421C03D1054ADD
:101370001340A38170BD802252011343A381606595
:10138000F8E7C046FFEFFFFF10B50E23C95E00F07F
:1013900009F810BD03008218934200D170471970FC
:1013A0000133F9E7002370B5064D040008002B60F7
:1013B00000F0B2FE431C03D12B68002B00D0236049
:1013C00070BDC0461C02002070B50400080011006A
:1013D0001A000023054D2B6000F0C6FE431C03D10C
:1013E0002B68002B00D0236070BDC0461C0200207B
:1013F00070B50400080011001A000023054D2B6091
:1014000000F0BAFE431C03D12B68002B00D02360F0
:1014100070BDC0461C02002070B504000800110019
:101420001A000023054D2B6000F0BEFE431C03D1C3
:101430002B68002B00D0236070BDC0461C0200202A
:1014400070B500260C4C0D4D641BA410A64209D1AA
:10145000002600F0B3FE0A4C0A4D641BA410A642FD
:1014600005D170BDB300EB5898470136EEE7B300E5
:10147000EB5898470136F2E7B4220008B42200087E
:10148000B8220008B4220008704770477047000077
:101490007FB514001A00094B05001B680E00D868C0
:1014A000074B002C01D1074B1C0007490193029404
:1014B0002B00009600F0C2F900F0E2F918000020BD
:1014C000432200087E2200085022000870B5050063
:1014D0000C1E10D0043C2368002B00DAE41828000E
:1014E00000F0EAF81D4A1368002B05D16360146010
:1014F000280000F0E9F870BDA34208D9206821183F
:101500008B42F3D119685B6809182160EEE71A0075
:101510005B68002B01D0A342F9D911685018A04292
:101520000BD120680918501811608342E0D1186867
:101530005B68411811605360DAE7A04202D90C23BE
:101540002B60D5E7206821188B4203D119685B68AE
:101550000918216063605460CAE7C0462802002071
:1015600010B5034B0100186800F026F810BDC04606
:101570001800002070B50F4E0D00316804000029DE
:1015800002D100F06BF930602900200000F066F90C
:10159000431C03D101256D42280070BD0323C51CE7
:1015A0009D43A842F8D0291A200000F057F90130D5
:1015B000F2D1EFE724020020F7B50322CB1C9343BE
:1015C000083305001F000C2B34D20C27B94233D846
:1015D000280000F071F8374E33681C00002C2FD122
:1015E00039002800FFF7C6FF0400431C5FD13468B0
:1015F0000094009B002B4AD1002C52D02368280075
:10160000E3180099019300F029F9019B834248D126
:1016100023682800FF1A3900FFF7ACFF013040D0E3
:101620002368DB19236033685A68002A33D1009B92
:10163000336019E0002BC9DA0C232B600020FEBDBB
:101640002168C91B20D40B290AD9E2192760A342BB
:1016500004D1326063681160536005E05A60F9E7B5
:101660006268A3420ED13260280000F02DF82000FD
:1016700007220B30231D9043C21A9842DFD01B1A59
:10168000A350DCE75A60EFE723006468A6E7009CFC
:1016900063680093ADE71A005B68A342FBD10023A7
:1016A000DAE70C2328002B6000F00EF8C6E707608D
:1016B000DAE7C0462802002010B50248FFF7E5FE31
:1016C00010BDC0462002002010B50248FFF7DEFE24
:1016D00010BDC04620020020F7B50C228B5E05002D
:1016E0000C001A0756D44A68002A02DC0A6C002A49
:1016F0004EDDE76A002F4BD0002280202E682A6042
:101700001A004001216A0240034233D0626DA3896E
:101710005B0706D56368D21A636B002B01D0236C7C
:10172000D21A00232800E76A216AB847A289431C1D
:1017300006D129681D2946D8294BCB40DB0742D565
:101740000023636023692360D20405D5431C02D1C2
:101750002B68002B00D16065616B2E60002917D0CB
:1017600023004433994202D02800FFF7AFFE002344
:1017700063630DE001232800B8470200431CC6D173
:101780002B68002BC3D01D2B01D0162B1AD12E6035
:1017900000201EE00E69002EFAD00F680E60BA1B02
:1017A000019200229B0700D14A69A260019B002B95
:1017B000EEDDA36A32001F002800019B216AB847B2
:1017C000002807DCA2894023012013431BB2A38118
:1017D0004042FEBD019B36181B1A0193E6E7C04646
:1017E000010040200B6970B505000C00002B02D1F0
:1017F0000025280070BD002804D0036A002B01D109
:10180000FFF748FD0C22A35E002BF1D0626ED207D9
:1018100004D49B0502D4A06DFFF737FE28002100F9
:10182000FFF75AFF636E0500DB07E2D4A3899B052F
:10183000DFD4A06DFFF72AFEDBE700000EB417B57A
:10184000054C05AB04CB01002068019300F046F87D
:101850001EBC08BC03B0184718000020002370B558
:10186000064D040008002B6000F08EFC431C03D1E1
:101870002B68002B00D0236070BDC0461C020020E6
:10188000062010B500F08CFB012000F095FC936859
:1018900010B5013B9360002B04DA9469A34207DB87
:1018A0000A2905D01368581C10601970080010BD73
:1018B00000F0ACFA0100F9E7F8B506000F001400DB
:1018C000D518AC4201D1002007E021783A00300061
:1018D000FFF7DDFF0134431CF3D1F8BDF0B5A1B033
:1018E0000F0015001E000390002804D0036A002B8F
:1018F00001D1FFF7CFFC7B6EDB0705D4BB899B05CD
:1019000002D4B86DFFF7C1FDBB891B0702D53B6947
:10191000002B13D13900039800F0BAFA00280DD03B
:101920007B6EDB0703D50120404221B0F0BDBB89AF
:101930009B05F8D4B86DFFF7A9FDF4E7002308ACC8
:101940006361203363761033A37607962E003378D5
:10195000002B01D0252B48D1731B0593AE420BD031
:101960002A0039000398FFF7A7FF013000D1AEE04D
:101970006369059A9B1863613378002B00D1A6E058
:10198000012200235242626004A954325218751C8D
:101990002360E360A3601370A365594B0522180010
:1019A0002978059300F01CFB6E1C00281FD12268CB
:1019B000D30604D5532304A95B18202119701307FB
:1019C00004D5532304A95B182B2119702B782A2BDB
:1019D00016D02E0000210A20E3683278751C303AB8
:1019E000092A50D9002911D117E00136AFE7059B2C
:1019F0002268C01A01238340134335002360CCE7DB
:101A0000079B191D1B680791002B01DB0B9304E05A
:101A10005B42E36002231343236033782E2B0CD107
:101A200073782A2B34D1079B02361A1D1B68079244
:101A3000002B01DA01235B420993324D0322280077
:101A4000317800F0CDFA002806D04023401B8340B7
:101A50002268013613432360317806222A48751C18
:101A6000217600F0BDFA002840D0284B002B22D16F
:101A70000722079B07339343083307936369049A4C
:101A80009B18636162E743432E0001219B18A4E782
:101A900000230A201900013663603278751C303A41
:101AA000092A03D9002BC8D00991C6E741432E006B
:101AB00001238918F1E707AA009221003A00144B8C
:101AC000039800E000BF0490049B0133D6D17B6EE5
:101AD000DB0705D4BB899B0502D4B86DFFF7D6FCA4
:101AE000BB895B0600D51EE70D981EE707AA00928A
:101AF00021003A00064B039800F07CF8E3E7C0466B
:101B00007F220008852200088922000800000000CA
:101B1000B9180008F7B5160001938A680B690C0024
:101B20000090934200DA13002200336043321278AF
:101B3000002A01D00133336023689B0602D5336845
:101B4000023333602268062315001D401A4227D055
:101B5000230043331B785A1E93412268920630D4E7
:101B6000220001990098089D4332A847013025D0F2
:101B70000622236800251340042B05D13368E5684D
:101B8000ED1AEB43DB171D40A3682269934201DD88
:101B90009B1AED180026B54220D1002010E0013537
:101BA000E36832689B1AAB42D2DD2200012301991F
:101BB0000098089F1932B8470130F0D10120404207
:101BC000FEBD3020E1184331087021005A1C453118
:101BD0000978A218433202331170C1E722000123B1
:101BE00001990098089F1A32B8470130E6D00136B3
:101BF000D1E70000F0B58BB006920A00433207939C
:101C0000059003920A7E0C00109B782A09D8622A5C
:101C10000BD8002A00D1BAE07A490491582A00D1A1
:101C20008EE0250042352A7022E010006338152826
:101C3000F7D8FEF769FA16001F00F6FFF6FFF6FF69
:101C4000F6FF1F00F6FFF6FFF6FFF6FF9F003600D7
:101C50007E00F6FFF6FFB000F6FF3600F6FFF6FF57
:101C6000820025001A684235111D196013682B7017
:101C700001239EE018680968021D0D060BD5066851
:101C80001A60002E03DA2D23039A764213705D4BFF
:101C90000A27049318E006681A604906F1D536B29F
:101CA000EFE70868196840C9050602D4400600D568
:101CB000B6B21960534B0A2704936F2A00D1023F32
:101CC0002300002243331A706368A360002B06DBF5
:101CD00004212268039D8A43226033430CD0039D74
:101CE00030003900FEF7A0FA049B013D5B5C2B70CD
:101CF000330006009F42F3D9082F09D12368DB0780
:101D000006D5626823699A4202DC3023013D2B70BC
:101D1000039B5B1B2361079B210000930598069B97
:101D200009AAFFF7F7FE013048D1012040420BB06D
:101D3000F0BD202209680A432260782232490491CA
:101D4000210045310A701968226840C9100602D482
:101D5000500600D5B6B21960D30702D5202313432D
:101D60002360002E01D01027AAE720222368934386
:101D70002360F8E71A680D68101D49691860136838
:101D80002E0601D5196002E06D06FBD519800023EF
:101D9000039D2361BFE71A68111D196015680021B2
:101DA0002800626800F01CF9002801D0401B606028
:101DB000636823610023039A1370ACE72A00236948
:101DC00006990598079DA8470130AED023689B0768
:101DD00015D4099BE0689842A9DA1800A7E7220009
:101DE000012306990598079E1932B04701309CD00F
:101DF0000135E368099A9B1AAB42F0DCE9E700255C
:101E0000F7E7C04690220008A1220008F8B50600B6
:101E10000D001400002804D0036A002B01D1FFF745
:101E200039FAA369A360A3891B0702D52369002B94
:101E300009D12100300000F02BF8002803D0012543
:101E40006D422800F8BD23692068EFB2C01A6369AB
:101E5000EDB2834205DC21003000FFF7C3FC00280F
:101E6000EDD1A3680130013BA36023685A1C2260B6
:101E70001F706369834204D0A389DB07E1D50A2D73
:101E8000DFD121003000FFF7ADFC0028D9D0D6E724
:101E90002D4B70B5050018680C00002804D0036AAB
:101EA000002B01D1FFF7F6F90C22A35E1A0723D409
:101EB000DA0607D409222A60402201201343A381B5
:101EC00040423AE05B0713D5616B002908D023003C
:101ED0004433994202D02800FFF7F8FA00236363E5
:101EE0002422A3899343A381002363602369236091
:101EF0000823A2891343A3812369002B0BD1A021BE
:101F00008022A389890092000B40934203D02100D4
:101F1000280000F09BF80C22A35E01211A000A4061
:101F20000B420BD00022A26062695242A2610020E3
:101F30002269824201D11A06BED470BD990700D42D
:101F40006269A260F3E7C0461800002070B5040083
:101F50000D001F2904D9162303600120404270BDE3
:101F6000C36B002B04D08A009B181A68002A08D182
:101F7000200000F031F82A000100200000F01AF8DB
:101F8000EDE7012A09D0511C03D11623036001207B
:101F9000E5E700212800196090470020DFE70000F6
:101FA00010B5034B01001868FFF7D0FF10BDC04605
:101FB00018000020002370B5064D04000800110031
:101FC0002B6000F0C9F8431C03D12B68002B00D014
:101FD000236070BD1C02002010B500F0ADF810BDEC
:101FE000C9B28218904201D10020704703788B4219
:101FF000FBD00130F6E7000070B50E001D000E2387
:10200000C95E140096B000290CDAB2898023110051
:1020100019401A4214D18023DB000020296023607C
:1020200016B070BD6A4600F053F80028EDDBF023CF
:1020300001991B021940044BC9184B425941EAE768
:1020400000214023E9E7C04600E0FFFFF0B502268B
:102050008B8905000C0085B0334207D0230047333D
:10206000236023610123636105B0F0BD03AB02AAC5
:10207000FFF7C2FF029F019039002800FFF79CFA8A
:10208000002808D10C22A35E9A05EDD403229343C5
:102090001E43A681E2E78023A28920601343A38127
:1020A000039B20616761002B0CD028000E23E15EAA
:1020B00000F020F8002805D00323A2899A43023BB0
:1020C0001343A381A389019A1343A381CCE70000A2
:1020D000002370B5064D0400080011002B6000F0CD
:1020E00023F8431C03D12B68002B00D0236070BD64
:1020F0001C020020002370B5064D040008002B6070
:1021000000F022F8431C03D12B68002B00D0236081
:1021100070BDC0461C02002058220120014B4042E5
:102120001A6070471C02002058220120014B4042D7
:102130001A6070471C02002058220120014B4042C7
:102140001A6070471C0200205822024B00201A60BF
:102150007047C0461C02002058220120014B40421B
:102160001A6070471C02002058220120014B404297
:102170001A6070471C02002058220120014B404287
:102180001A6070471C020020054A030011680029EC
:1021900001D1044911601068C31813607047C0462C
:1021A0002C0200203002002058220120014B404226
:1021B0001A6070471C020020FEE70000F8B5C04618
:1021C000F8BC08BC9E467047F8B5C046F8BC08BCD1
:0421D0009E46704770
:1021D4005245454E54206D616C6C6F63207375637A
:1021E400636565646564002F6275696C642F676E4E
:1021F400752D746F6F6C732D666F722D73746D33E0
:10220400325F31332E332E72656C312E32303234DC
:10221400303932362D313731352F7372632F6E6575
:10222400776C69622F6E65776C69622F6C69626383
:102234002F7374646C69622F72616E642E63002C58
:102244002066756E6374696F6E3A200061737365FE
:102254007274696F6E2022257322206661696C6531
:10226400643A2066696C6520222573222C206C69EF
:102274006E65202564257325730A00232D302B20D9
:1022840000686C4C00656667454647003031323360
:1022940034353637383941424344454600303132CB
:1022A400333435363738396162636465660000005B
:0422B400E900000835
:0422B800C100000859
:1022BC0000127A0001000000040000000000000081
:1022CC0003000000E00000201C00002000000000C3
:1022DC00E000002048010020B001002000000000B8
:1022EC0000000000000000000000000000000000E2
:1022FC0000000000000000000000000000000000D2
:10230C0000000000000000000000000000000000C1
:08231C000000000000000000B9
:04000005080010A53A
:00000001FF
